{
  "contractName": "RangeProofValidator",
  "abi": [
    {
      "constant": false,
      "inputs": [
        {
          "name": "lower",
          "type": "uint256"
        },
        {
          "name": "upper",
          "type": "uint256"
        },
        {
          "name": "commitment",
          "type": "bytes"
        },
        {
          "name": "proof",
          "type": "bytes"
        }
      ],
      "name": "validate",
      "outputs": [
        {
          "name": "",
          "type": "bool"
        }
      ],
      "payable": false,
      "stateMutability": "nonpayable",
      "type": "function"
    }
  ],
  "bytecode": "0x608060405234801561001057600080fd5b50611f63806100206000396000f3fe608060405260043610610041576000357c0100000000000000000000000000000000000000000000000000000000900463ffffffff168063a61d7e3e14610046575b600080fd5b34801561005257600080fd5b5061006d60048036036100689190810190611dee565b610083565b60405161007a9190611e90565b60405180910390f35b6000606060076040519080825280602002602001820160405280156100bc57816020015b60608152602001906001900390816100a75790505b5090506060601f6040519080825280602002602001820160405280156100f657816020015b60608152602001906001900390816100e15790505b509050606060008060606000808a955060008090505b885181101561020057868181518110151561012357fe5b906020019060200201519150868181518110151561013d57fe5b9060200190602002015160018a5103821461017257876001830181518110151561016357fe5b90602001906020020151610175565b8c515b039250826040519080825280601f01601f1916602001820160405280156101ab5781602001600182028038833980820191505090505b5093506020840195508160208d01019450610800831015156101cc57600080fd5b6101d786868561031d565b8389828151811015156101e657fe5b90602001906020020181905250808060010191505061010c565b5089955060008090505b87518110156102fe57868181518110151561022157fe5b906020019060200201519150868181518110151561023b57fe5b906020019060200201516001895103821461027057876001830181518110151561026157fe5b90602001906020020151610273565b8b515b039250826040519080825280601f01601f1916602001820160405280156102a95781602001600182028038833980820191505090505b5093506020840195508160208c01019450612000831015156102ca57600080fd5b6102d586868561031d565b8388828151811015156102e457fe5b90602001906020020181905250808060010191505061020a565b5061030b8d8d8a8a610348565b98505050505050505050949350505050565b5b602081101515610343578151835260208301925060208201915060208103905061031e565b505050565b60006060600b60405190808252806020026020018201604052801561038157816020015b606081526020019060019003908161036c5790505b50905060006103918787036112b6565b60016028608001016002020190506103a8876112ff565b8260008151811015156103b757fe5b906020019060200201819052506103cd866112ff565b8260018151811015156103dc57fe5b906020019060200201819052506104368560008151811015156103fb57fe5b9060200190602002015161041861041260016112ff565b84611343565b87600181518110151561042757fe5b90602001906020020151611449565b85600081518110151561044557fe5b9060200190602002018190525061049f85600481518110151561046457fe5b9060200190602002015161048161047b60016112ff565b84611343565b87600181518110151561049057fe5b90602001906020020151611449565b8560048151811015156104ae57fe5b906020019060200201819052506104dd8260008151811015156104cd57fe5b9060200190602002015182611343565b8260008151811015156104ec57fe5b9060200190602002018190525061051b82600181518110151561050b57fe5b9060200190602002015182611343565b82600181518110151561052a57fe5b9060200190602002018190525061054e6105458888036112ff565b60028301611343565b82600481518110151561055d57fe5b906020019060200201819052506105a484601e81518110151561057c57fe5b9060200190602002015183600481518110151561059557fe5b90602001906020020151611564565b15156105b5576000925050506112ae565b6106428560008151811015156105c757fe5b906020019060200201516106248760058151811015156105e357fe5b906020019060200201518560008151811015156105fc57fe5b9060200190602002015189600181518110151561061557fe5b90602001906020020151611449565b87600181518110151561063357fe5b906020019060200201516115b9565b82600281518110151561065157fe5b906020019060200201819052506106eb6106b486600281518110151561067357fe5b9060200190602002015184600181518110151561068c57fe5b906020019060200201518860018151811015156106a557fe5b90602001906020020151611449565b8660048151811015156106c357fe5b906020019060200201518760018151811015156106dc57fe5b906020019060200201516115b9565b8260038151811015156106fa57fe5b9060200190602002018190525061075a85600081518110151561071957fe5b9060200190602002015186600481518110151561073257fe5b9060200190602002015187600181518110151561074b57fe5b906020019060200201516115d7565b151561076b576000925050506112ae565b6107be85600281518110151561077d57fe5b9060200190602002015186600581518110151561079657fe5b906020019060200201518760018151811015156107af57fe5b906020019060200201516115d7565b15156107cf576000925050506112ae565b6108228560038151811015156107e157fe5b906020019060200201518660068151811015156107fa57fe5b9060200190602002015187600181518110151561081357fe5b906020019060200201516115d7565b1515610833576000925050506112ae565b61088684600081518110151561084557fe5b9060200190602002015185601281518110151561085e57fe5b9060200190602002015187600181518110151561087757fe5b906020019060200201516115d7565b1515610897576000925050506112ae565b6108ea8460018151811015156108a957fe5b906020019060200201518560138151811015156108c257fe5b906020019060200201518760018151811015156108db57fe5b906020019060200201516115d7565b15156108fb576000925050506112ae565b61094e84600281518110151561090d57fe5b9060200190602002015185601481518110151561092657fe5b9060200190602002015187600181518110151561093f57fe5b906020019060200201516115d7565b151561095f576000925050506112ae565b6109b284600781518110151561097157fe5b9060200190602002015185601581518110151561098a57fe5b906020019060200201518760018151811015156109a357fe5b906020019060200201516115d7565b15156109c3576000925050506112ae565b610a168260028151811015156109d557fe5b906020019060200201518560128151811015156109ee57fe5b90602001906020020151876001815181101515610a0757fe5b906020019060200201516115b9565b826002815181101515610a2557fe5b90602001906020020181905250610a85826003815181101515610a4457fe5b90602001906020020151856013815181101515610a5d57fe5b90602001906020020151876001815181101515610a7657fe5b906020019060200201516115b9565b826003815181101515610a9457fe5b90602001906020020181905250610af4826002815181101515610ab357fe5b90602001906020020151856016815181101515610acc57fe5b90602001906020020151876001815181101515610ae557fe5b906020019060200201516115d7565b1515610b05576000925050506112ae565b610b58826003815181101515610b1757fe5b90602001906020020151856017815181101515610b3057fe5b90602001906020020151876001815181101515610b4957fe5b906020019060200201516115d7565b1515610b69576000925050506112ae565b6000610b96856018815181101515610b7d57fe5b90602001906020020151610b9160016112ff565b611601565b14610bb957846003815181101515610baa57fe5b90602001906020020151610bd3565b846006815181101515610bc857fe5b906020019060200201515b826005815181101515610be257fe5b906020019060200201819052506000610c1c856019815181101515610c0357fe5b90602001906020020151610c1760016112ff565b611601565b14610c3f57846003815181101515610c3057fe5b90602001906020020151610c59565b846006815181101515610c4e57fe5b906020019060200201515b826006815181101515610c6857fe5b906020019060200201819052506000610ca285601a815181101515610c8957fe5b90602001906020020151610c9d60016112ff565b611601565b14610cc557846003815181101515610cb657fe5b90602001906020020151610cdf565b846006815181101515610cd457fe5b906020019060200201515b826007815181101515610cee57fe5b906020019060200201819052506000610d2885601b815181101515610d0f57fe5b90602001906020020151610d2360016112ff565b611601565b14610d4b57846003815181101515610d3c57fe5b90602001906020020151610d65565b846006815181101515610d5a57fe5b906020019060200201515b826008815181101515610d7457fe5b906020019060200201819052506000610dae85601c815181101515610d9557fe5b90602001906020020151610da960016112ff565b611601565b14610dd157846003815181101515610dc257fe5b90602001906020020151610deb565b846006815181101515610de057fe5b906020019060200201515b826009815181101515610dfa57fe5b906020019060200201819052506000610e3485601d815181101515610e1b57fe5b90602001906020020151610e2f60016112ff565b611601565b14610e5757846003815181101515610e4857fe5b90602001906020020151610e71565b846006815181101515610e6657fe5b906020019060200201515b82600a815181101515610e8057fe5b90602001906020020181905250610fa8856001815181101515610e9f57fe5b90602001906020020151866002815181101515610eb857fe5b90602001906020020151846005815181101515610ed157fe5b90602001906020020151856006815181101515610eea57fe5b90602001906020020151886002815181101515610f0357fe5b90602001906020020151896003815181101515610f1c57fe5b906020019060200201518a6004815181101515610f3557fe5b906020019060200201518b6005815181101515610f4e57fe5b906020019060200201518c6006815181101515610f6757fe5b906020019060200201518d6012815181101515610f8057fe5b906020019060200201518e6014815181101515610f9957fe5b9060200190602002015161161b565b1515610fb9576000925050506112ae565b6110d4856001815181101515610fcb57fe5b90602001906020020151866002815181101515610fe457fe5b90602001906020020151846007815181101515610ffd57fe5b9060200190602002015185600881518110151561101657fe5b9060200190602002015188600781518110151561102f57fe5b9060200190602002015189600881518110151561104857fe5b906020019060200201518a600981518110151561106157fe5b906020019060200201518b600a81518110151561107a57fe5b906020019060200201518c600b81518110151561109357fe5b906020019060200201518d60138151811015156110ac57fe5b906020019060200201518e60158151811015156110c557fe5b9060200190602002015161161b565b15156110e5576000925050506112ae565b6111b584601e8151811015156110f757fe5b9060200190602002015186600181518110151561111057fe5b9060200190602002015187600281518110151561112957fe5b9060200190602002015185600981518110151561114257fe5b9060200190602002015188601681518110151561115b57fe5b9060200190602002015189600c81518110151561117457fe5b906020019060200201518a600d81518110151561118d57fe5b906020019060200201518b600e8151811015156111a657fe5b90602001906020020151611641565b15156111c6576000925050506112ae565b61129684601e8151811015156111d857fe5b906020019060200201518660018151811015156111f157fe5b9060200190602002015187600281518110151561120a57fe5b9060200190602002015185600a81518110151561122357fe5b9060200190602002015188601781518110151561123c57fe5b9060200190602002015189600f81518110151561125557fe5b906020019060200201518a601081518110151561126e57fe5b906020019060200201518b601181518110151561128757fe5b90602001906020020151611641565b15156112a7576000925050506112ae565b6001925050505b949350505050565b6000806001905060008090505b6101008110156112f257818410156112df5780925050506112fa565b60028202915080806001019150506112c3565b506101009150505b919050565b606060206040519080825280601f01601f1916602001820160405280156113355781602001600182028038833980820191505090505b509050816020820152919050565b606060006101008060088651028560ff010181151561135e57fe5b050290506000811315156113a95760006040519080825280601f01601f1916602001820160405280156113a05781602001600182028038833980820191505090505b50915050611443565b6008818115156113b557fe5b046040519080825280601f01601f1916602001820160405280156113e85781602001600182028038833980820191505090505b509150600082518551106113fd578251611400565b84515b905060008060208701915060208501905061141c81838561031d565b6000866008895102860303905061143b61143687836116ed565b6117e0565b955050505050505b92915050565b60606000845190506000845190506000845190506060816040519080825280601f01601f1916602001820160405280156114925781602001600182028038833980820191505090505b5090506000828486606001010190506060816040519080825280601f01601f1916602001820160405280156114d65781602001600182028038833980820191505090505b5090506020810186815285602082015284604082015286606082018860208e01600060046101c2f1868860600183018860208e01600060046101c2f190508586850383018760208d01600060046101c2f1905085602086018584600060056105465a03f1905050508385876060010101815114151561155457600080fd5b8296505050505050509392505050565b6000606061157b8461157660016112ff565b611853565b9050600061159161158b8661186c565b85611601565b131580156115b0575060006115ae6115a88361186c565b85611601565b135b91505092915050565b60606115ce6115c8858561189b565b8361193d565b90509392505050565b6000806115f76115e88686866115b9565b6115f260016112ff565b611601565b1490509392505050565b600061160f8383600161195b565b90508091505092915050565b60006116308c8c8a8d8d87898e8e8e8e611b89565b90509b9a5050505050505050505050565b600060606116628561165d61165660016112ff565b6080611343565b61193d565b9050606061167d6116788b8b8b89898d89611cb1565b6117e0565b905060006116948661168f858f61189b565b611601565b121580156116b9575060006116b6866116b18e6028608001611343565b611601565b13155b80156116dd575060006116db6116d58380519060200120611cf3565b88611601565b145b9250505098975050505050505050565b60606000821415611700578290506117da565b60ff821115151561171057600080fd5b60006020845181151561171f57fe5b0614151561172c57600080fd5b82516040519080825280601f01601f1916602001820160405280156117605781602001600182028038833980820191505090505b509050600060018360019060020a020390506000836101000360020a905060008460020a905060008090505b86518110156117d55760008083602084018a01518719160491506000831415156117bd5784838a0151871602820191505b6020830187019050818152505060208101905061178c565b505050505b92915050565b60606000602083518115156117f157fe5b061415156117fe57600080fd5b600060019050600080600090505b84518110156118405760208101850151159250821561183057602082019150611835565b611840565b60208101905061180c565b5080840192508084510383525050919050565b60606118618383600061195b565b508091505092915050565b60608061187d836008855102611343565b90506118938361188d60026112ff565b83611449565b915050919050565b6060806118a860026112ff565b905060606118b68585611853565b905060606118c48686611d37565b905060606118d6836008855102611343565b905060606118e5848684611449565b905060606118f4848785611449565b905060606119028383611d37565b905061192e817ffffffffffffffffffffffffffffffffffffffffffffffffffffffffffffffffe611343565b97505050505050505092915050565b60606119538361194d60016112ff565b84611449565b905092915050565b60606000835185511161196f578351611972565b84515b6040519080825280601f01601f1916602001820160405280156119a45781602001600182028038833980820191505090505b509150600080600060208801925060208701915060208501905060006020895103840190506000602089510384019050600080905060006020895186010390505b8481101515611aa557600080905060008090508886101515611a0657855191505b8785101515611a1457845190505b8b15611a4e5783818303038352818183031180611a3657508082038482840303115b611a41576000611a44565b60015b60ff169350611a7e565b83818301018352818183011080611a6a57508082018482840101105b611a75576000611a78565b60015b60ff1693505b8082141515611a8c57600199505b60208603955060208503945050506020810390506119e5565b506001811415611b74578815611b0357611ad0611ac189611d50565b611acb60016112ff565b611853565b7fffffffffffffffffffffffffffffffffffffffffffffffffffffffffffffffff80905097509750505050505050611b81565b606060208951016040519080825280601f01601f191660200182016040528015611b3c5781602001600182028038833980820191505090505b509050602089019350604081019250611b5783858b5161031d565b600160208201528060018090509850985050505050505050611b81565b8787975097505050505050505b935093915050565b60006060611ba4611b9f8e8e8d89898e8d611cb1565b6117e0565b90506060611bbf611bba8f8e8d8a898e8e611cb1565b6117e0565b90506000611c9d611c9784846040516020018083805190602001908083835b602083101515611c035780518252602082019150602081019050602083039250611bde565b6001836020036101000a03801982511681845116808217855250505050505090500182805190602001908083835b602083101515611c565780518252602082019150602081019050602083039250611c31565b6001836020036101000a0380198251168184511680821785525050505050509050019250505060405160208183030381529060405280519060200120611cf3565b89611601565b14925050509b9a5050505050505050505050565b6060611ce6611cd5611cc489888c611449565b611ccf89888d611449565b8b6115b9565b611ce085858c611449565b8a6115b9565b9050979650505050505050565b606060206040519080825280601f01601f191660200182016040528015611d295781602001600182028038833980820191505090505b509050816020820152919050565b6060611d458383600161195b565b508091505092915050565b60606000806020840191508351820190505b80821015611d7a578151198252602082019150611d62565b8392505050919050565b600082601f8301121515611d9757600080fd5b8135611daa611da582611ed8565b611eab565b91508082526020830160208301858383011115611dc657600080fd5b611dd1838284611f1a565b50505092915050565b6000611de68235611f10565b905092915050565b60008060008060808587031215611e0457600080fd5b6000611e1287828801611dda565b9450506020611e2387828801611dda565b935050604085013567ffffffffffffffff811115611e4057600080fd5b611e4c87828801611d84565b925050606085013567ffffffffffffffff811115611e6957600080fd5b611e7587828801611d84565b91505092959194509250565b611e8a81611f04565b82525050565b6000602082019050611ea56000830184611e81565b92915050565b6000604051905081810181811067ffffffffffffffff82111715611ece57600080fd5b8060405250919050565b600067ffffffffffffffff821115611eef57600080fd5b601f19601f8301169050602081019050919050565b60008115159050919050565b6000819050919050565b8281833760008383015250505056fea265627a7a72305820926809a730d7570f2999e7930e8da2b9c5d8960c08db7c2638624eaaed73d32b6c6578706572696d656e74616cf50037",
  "source": "pragma solidity >=0.4.21 <0.6.0;\r\npragma experimental ABIEncoderV2; // solium-disable-line no-experimental \r\n\r\ncontract RangeProofValidator {\r\n\r\n    int constant t = 128;\r\n    int constant l = 40;\r\n\r\n    // Convert bytes to array of big integers\r\n    function validate(uint lower, uint upper, bytes memory commitment, bytes memory proof) public returns(bool) {\r\n        bytes[] memory com = new bytes[](7);\r\n        bytes[] memory prf = new bytes[](31);\r\n        uint[] memory index;\r\n        uint destPointer;\r\n        uint srcPointer;\r\n        bytes memory part;\r\n        uint length;\r\n        uint start;\r\n\r\n        assembly { index := commitment }\r\n        for (uint i = 0; i < com.length; i++) {\r\n            start = index[i];\r\n            length = (i == com.length - 1 ? commitment.length : index[i+1]) - index[i];\r\n            part = new bytes(length);\r\n            assembly {\r\n                destPointer := add(part, 32)\r\n                srcPointer := add(add(commitment, 32), start)\r\n            }\r\n            require(length < 2048);\r\n            copyWords(destPointer, srcPointer, length);\r\n            com[i] = part;\r\n        }\r\n\r\n        assembly { index := proof }\r\n\r\n        for (uint i = 0; i < prf.length; i++) {\r\n            start = index[i];\r\n            length = (i == prf.length - 1 ? proof.length : index[i+1]) - index[i];\r\n            part = new bytes(length);\r\n            assembly {\r\n                destPointer := add(part, 32)\r\n                srcPointer := add(add(proof, 32), start)\r\n            }\r\n            require(length < 8192);\r\n            copyWords(destPointer, srcPointer, length);\r\n            prf[i] = part;\r\n        }\r\n        return validateProof(lower, upper, com, prf);\r\n    }\r\n\r\n    function validateProof(uint lower, uint upper, bytes[] memory com, bytes[] memory prf) internal returns (bool) {\r\n        // Stack too deep so store in memory: tmp = (a, b, cLeft, cRight)\r\n        bytes[] memory tmp = new bytes[](11);\r\n\r\n        int T = 2 * (t + l + 1) + int(bitLength(upper - lower));\r\n        tmp[0] = toBigInt(lower);\r\n        tmp[1] = toBigInt(upper);\r\n\r\n        // Scale for Proof without Tolerance\r\n        com[0] = modexp(com[0], shiftLeft(toBigInt(1), T), com[1]); // cPrime\r\n        com[4] = modexp(com[4], shiftLeft(toBigInt(1), T), com[1]);\r\n        tmp[0] = shiftLeft(tmp[0], T);\r\n        tmp[1] = shiftLeft(tmp[1], T);\r\n        tmp[4] = shiftLeft(toBigInt(upper - lower), T + 2);\r\n        if (!validateFloorSqrt(prf[30], tmp[4])) {return false;} // for maxCommitment\r\n\r\n        // Step 2\r\n        // c / g^a = c * (1/g)^a\r\n        tmp[2] = modmul(com[0], modexp(com[5], tmp[0], com[1]), com[1]);\r\n\r\n        // g^b / c = g^b * (1/c)\r\n        tmp[3] = modmul(modexp(com[2], tmp[1], com[1]), com[4], com[1]);\r\n\r\n        // Return false if invalid inverse is provided\r\n        if (!validateModInv(com[0], com[4], com[1])) {return false;}\r\n        if (!validateModInv(com[2], com[5], com[1])) {return false;}\r\n        if (!validateModInv(com[3], com[6], com[1])) {return false;}\r\n        if (!validateModInv(prf[0], prf[18], com[1])) {return false;}\r\n        if (!validateModInv(prf[1], prf[19], com[1])) {return false;}\r\n        if (!validateModInv(prf[2], prf[20], com[1])) {return false;}\r\n        if (!validateModInv(prf[7], prf[21], com[1])) {return false;}\r\n\r\n        // Step 6\r\n        tmp[2] = modmul(tmp[2], prf[18], com[1]);\r\n        tmp[3] = modmul(tmp[3], prf[19], com[1]);\r\n\r\n        // Return false if invalid inverse is provided\r\n        if (!validateModInv(tmp[2], prf[22], com[1])) {return false;}\r\n        if (!validateModInv(tmp[3], prf[23], com[1])) {return false;}\r\n\r\n        // Get rid of negative exponents D1, D2\r\n        tmp[5] = compare(prf[24], toBigInt(1)) == 0 ? com[6] : com[3];\r\n        tmp[6] = compare(prf[25], toBigInt(1)) == 0 ? com[6] : com[3];\r\n        tmp[7] = compare(prf[26], toBigInt(1)) == 0 ? com[6] : com[3];\r\n        tmp[8] = compare(prf[27], toBigInt(1)) == 0 ? com[6] : com[3];\r\n        tmp[9] = compare(prf[28], toBigInt(1)) == 0 ? com[6] : com[3];\r\n        tmp[10] = compare(prf[29], toBigInt(1)) == 0 ? com[6] : com[3];\r\n\r\n        // Step 7\r\n        if (!validateSQ(com[1], com[2], tmp[5], tmp[6], prf[2], prf[3], prf[4], prf[5], prf[6], prf[18], prf[20])) {return false;}\r\n        if (!validateSQ(com[1], com[2], tmp[7], tmp[8], prf[7], prf[8], prf[9], prf[10], prf[11], prf[19], prf[21])) {return false;}\r\n\r\n        // Step 8\r\n        if (!validateCFT(prf[30], com[1], com[2], tmp[9], prf[22], prf[12], prf[13], prf[14])) {return false;}\r\n        if (!validateCFT(prf[30], com[1], com[2], tmp[10], prf[23], prf[15], prf[16], prf[17])) {return false;}\r\n\r\n        return true;\r\n    }\r\n\r\n    function validateFloorSqrt(bytes memory sqrt, bytes memory N) internal returns (bool) {\r\n        bytes memory sqrtPlus = bigadd(sqrt, toBigInt(1));\r\n        return compare(square(sqrt), N) <= 0 && compare(square(sqrtPlus), N) > 0;\r\n    }\r\n\r\n    function validateCFT(bytes memory b, bytes memory N, bytes memory g, bytes memory h, bytes memory Einv, bytes memory C,\r\n        bytes memory D1, bytes memory D2) internal returns (bool) {\r\n\r\n        bytes memory c = bmod(C, shiftLeft(toBigInt(1), t));\r\n        bytes memory W = trim(restoreCommitment(N, g, h, D1, D2, Einv, c));\r\n\r\n        return compare(D1, multiply(c, b)) >= 0 &&\r\n            compare(D1, shiftLeft(b, t + l)) <= 0 &&\r\n            compare(loadHash(keccak256(W)), C) == 0;\r\n    }\r\n\r\n    function validateSQ(bytes memory N, bytes memory g, bytes memory h_orInv1, bytes memory h_orInv2, bytes memory F,\r\n        bytes memory c, bytes memory D, bytes memory D1, bytes memory D2, bytes memory Einv, bytes memory Finv) internal returns (bool) {\r\n\r\n        return validateEC(N, g, F, h_orInv1, h_orInv2, Finv, Einv, c, D, D1, D2);\r\n    }\r\n\r\n    function validateEC(bytes memory N, bytes memory g1, bytes memory g2, bytes memory h1, bytes memory h2,\r\n        bytes memory Einv, bytes memory Finv, bytes memory c, bytes memory D, bytes memory D1, bytes memory D2) internal returns (bool) {\r\n\r\n        bytes memory W1 = trim(restoreCommitment(N, g1, h1, D, D1, Einv, c));\r\n        bytes memory W2 = trim(restoreCommitment(N, g2, h2, D, D2, Finv, c));\r\n\r\n        return compare(loadHash(keccak256(abi.encodePacked(W1, W2))), c) == 0;\r\n    }\r\n\r\n    function validateModInv(bytes memory a, bytes memory a_inv, bytes memory N) internal returns (bool) {\r\n        return compare(modmul(a, a_inv, N), toBigInt(1)) == 0;\r\n    }\r\n\r\n    function restoreCommitment(bytes memory N, bytes memory g, bytes memory h, bytes memory D1,\r\n        bytes memory D2, bytes memory Einv, bytes memory c) internal returns (bytes memory ret) {\r\n\r\n        return modmul(modmul(modexp(g, D1, N), modexp(h, D2, N), N), modexp(Einv, c, N), N);\r\n    }\r\n\r\n    function loadHash(bytes32 f) internal pure returns (bytes memory ret) {\r\n        ret = new bytes(32);\r\n        assembly {mstore(add(ret, 32), f) }\r\n    }\r\n\r\n    function bitLength(uint x) internal pure returns (uint) {\r\n        uint test = 1;\r\n        for (uint i = 0; i < 256; i++) {\r\n            if (x < test) return i;\r\n            test = test * 2;\r\n        }\r\n        return 256;\r\n    }\r\n\r\n    function compare(bytes memory a, bytes memory b) internal returns (int cmp) {\r\n        (, cmp) = addOrSub(a, b, true);\r\n    }\r\n\r\n    function toBigInt(uint x) internal pure returns (bytes memory ret) {\r\n        ret = new bytes(32);\r\n        assembly { mstore(add(ret, 32), x) }\r\n    }\r\n\r\n    function bignot(bytes memory x) internal pure returns (bytes memory) {\r\n        uint pointer;\r\n        uint pointerEnd;\r\n        assembly {\r\n            pointer := add(x, 32)\r\n            pointerEnd := add(pointer, mload(x))\r\n        }\r\n        for (; pointer < pointerEnd; pointer += 32) {\r\n            assembly {\r\n                mstore(pointer, not(mload(pointer)))\r\n            }\r\n        }\r\n        return x;\r\n    }\r\n\r\n    function bigadd(bytes memory a, bytes memory b) internal returns (bytes memory ret) {\r\n        (ret, ) = addOrSub(a, b, false);\r\n    }\r\n\r\n    function bigsub(bytes memory a, bytes memory b) internal returns (bytes memory ret) {\r\n        (ret, ) = addOrSub(a, b, true);\r\n    }\r\n\r\n    function addOrSub(bytes memory _a, bytes memory _b, bool negative_b) internal returns (bytes memory result, int cmp) {\r\n        result = new bytes(_a.length > _b.length ? _a.length : _b.length);\r\n\r\n        uint aStart;\r\n        uint bStart;\r\n        uint rStart;\r\n        assembly {\r\n            aStart := add(_a, 32)\r\n            bStart := add(_b, 32)\r\n            rStart := add(result, 32)\r\n        }\r\n        uint aPos = aStart + (_a.length - 32);\r\n        uint bPos = bStart + (_b.length - 32);\r\n        uint carry = 0;\r\n\r\n        for(uint rPos = rStart + result.length - 32; rPos >= rStart; rPos -= 32) {\r\n            uint aPart = 0;\r\n            uint bPart = 0;\r\n            if (aPos >= aStart) {\r\n                assembly { aPart := mload(aPos) }\r\n            }\r\n            if (bPos >= bStart) {\r\n                assembly { bPart := mload(bPos) }\r\n            }\r\n            if (negative_b) {\r\n                assembly {\r\n                    mstore(rPos, sub(sub(aPart, bPart), carry))\r\n                }\r\n                carry = (aPart - bPart > aPart || aPart - bPart - carry > aPart - bPart) ? 1 : 0;\r\n            } else {\r\n                assembly {\r\n                    mstore(rPos, add(add(aPart, bPart), carry))\r\n                }\r\n                carry = (aPart + bPart < aPart || aPart + bPart + carry < aPart + bPart) ? 1 : 0;\r\n            }\r\n            if (aPart != bPart) cmp = 1;\r\n            aPos -= 32;\r\n            bPos -= 32;\r\n        }\r\n\r\n        // If overflow we have to add 1 in front\r\n        if (carry == 1) {\r\n\r\n            if (negative_b) return (bigadd(bignot(result), toBigInt(1)), -1);\r\n\r\n            bytes memory result2 = new bytes(result.length + 32);\r\n            assembly {\r\n                aPos := add(result, 32)\r\n                bPos := add(result2, 64)\r\n            }\r\n            copyWords(bPos, aPos, result.length);\r\n            assembly {\r\n                mstore(add(result2, 32), 1)\r\n            }\r\n            return (result2, 1);\r\n        }\r\n        return (result, cmp);\r\n    }\r\n\r\n    function square(bytes memory x) internal returns (bytes memory ret) {\r\n        bytes memory largeN = shiftLeft(x, int(x.length) * 8);\r\n        return modexp(x, toBigInt(2), largeN);\r\n    }\r\n\r\n    // ab = ((a+b)^2-(a-b)^2) / 4\r\n    function multiply(bytes memory a, bytes memory b) internal returns (bytes memory ret) {\r\n        bytes memory two = toBigInt(2);\r\n        bytes memory sum = bigadd(a, b); // a+b\r\n        bytes memory diff = bigsub(a, b); // abs(a-b)\r\n        bytes memory largeN = shiftLeft(sum, int(sum.length) * 8);\r\n        bytes memory sumSquared = modexp(sum, two, largeN); //(a+b)^2\r\n        bytes memory diffSquared = modexp(diff, two, largeN); //(a-b)^2\r\n        bytes memory ab4 = bigsub(sumSquared, diffSquared);\r\n        ret = shiftLeft(ab4, -2);\r\n    }\r\n\r\n    function modmul(bytes memory a, bytes memory b, bytes memory N) internal returns (bytes memory ret) {\r\n        return bmod(multiply(a,b), N);\r\n    }\r\n\r\n    function copyWords(uint dest, uint src, uint len) internal pure{\r\n        for(; len >= 32; len -= 32) {\r\n            assembly {\r\n                mstore(dest, mload(src))\r\n            }\r\n            dest += 32;\r\n            src += 32;\r\n        }\r\n    }\r\n\r\n    function trim(bytes memory x)internal pure returns (bytes memory y) {\r\n        require(x.length % 32 == 0);\r\n        bool isZero = true;\r\n        uint zeroCount;\r\n        for (uint i = 0; i < x.length; i += 32) {\r\n            assembly {\r\n                isZero := iszero(mload(add(x, add(i, 32))))\r\n            }\r\n            if (isZero) {\r\n                zeroCount += 32;\r\n            } else {\r\n                break;\r\n            }\r\n        }\r\n        assembly {\r\n            y := add(x, zeroCount)\r\n            mstore(y, sub(mload(x), zeroCount))\r\n        }\r\n    }\r\n\r\n    function shiftBitsRight(bytes memory x, uint bitShift) internal pure returns (bytes memory y) {\r\n        if (bitShift == 0) return x;\r\n        require(bitShift <= 255);\r\n        require(x.length % 32 == 0);\r\n\r\n        y = new bytes(x.length);\r\n\r\n        uint maskRight = (uint(1) << bitShift) - 1; // mask to get only the lower X bits\r\n        uint multiplyRight = 2 ** (256 - bitShift);\r\n        uint divideRemaining = 2 ** bitShift;\r\n        for (uint i = 0; i < x.length; i += 32) {\r\n            uint value;\r\n            uint _dst;\r\n            assembly {\r\n                value := div(and(not(maskRight), mload(add(x, add(i, 32)))), divideRemaining)\r\n            }\r\n            if (i != 0) {\r\n                // What moved from the previous word to this one\r\n                assembly {\r\n                    value := add(value, mul(and(maskRight, mload(add(x, i))), multiplyRight))\r\n                }\r\n            }\r\n            assembly {\r\n                _dst := add(y, add(i, 32))\r\n                mstore(_dst, value)\r\n            }\r\n        }\r\n    }\r\n\r\n    function shiftLeft(bytes memory x, int n) internal pure returns (bytes memory ret) {\r\n        // New bitlength = x.length * 8 + n; round up to multiple of 256\r\n        int newBitLength = ((255 + n + int(x.length * 8)) / 256) * 256;\r\n        if (newBitLength <= 0) return new bytes(0);\r\n\r\n        ret = new bytes(uint(newBitLength) / 8);\r\n        uint copy_len = x.length < ret.length ? x.length : ret.length;\r\n        uint _input;\r\n        uint _output;\r\n        assembly {\r\n            _input := add(x, 32)\r\n            _output := add(ret, 32)\r\n        }\r\n\r\n        copyWords(_output, _input, copy_len);\r\n\r\n        // Apply bit shift (between 0 and 255 to the right)\r\n        uint bitShift = uint(newBitLength - int(x.length * 8) - n);\r\n        ret = trim(shiftBitsRight(ret, bitShift));\r\n    }\r\n\r\n    function bmod(bytes memory _x, bytes memory _mod) internal returns (bytes memory ret) {\r\n        return modexp(_x, toBigInt(1), _mod);\r\n    }\r\n\r\n    // Wrapper for built-in bigint_modexp, modified from https://gist.github.com/lionello/ee285ea220dc64517499c971ff92a2a5\r\n    function modexp(bytes memory _base, bytes memory _exp, bytes memory _mod) internal returns (bytes memory) {\r\n\r\n        uint256 bl = _base.length;\r\n        uint256 el = _exp.length;\r\n        uint256 ml = _mod.length;\r\n        bytes memory ret = new bytes(ml);\r\n        uint inputSize = 96 + bl + el + ml;\r\n        bytes memory rawInput = new bytes(inputSize);\r\n\r\n        assembly {\r\n            let freemem := add(rawInput, 32)\r\n            mstore(freemem, bl)\r\n            mstore(add(freemem,32), el)\r\n            mstore(add(freemem,64), ml)\r\n\r\n            let x := call(450, 0x4, 0, add(_base,32), bl, add(freemem,96), bl)\r\n            x := call(450, 0x4, 0, add(_exp,32), el, add(freemem,add(96, bl)), el)\r\n            x := call(450, 0x4, 0, add(_mod,32), ml, add(freemem,sub(inputSize, ml)), ml)\r\n\r\n            x := call(sub(gas, 1350), 0x5, 0, freemem, inputSize, add(ret, 32), ml)\r\n        }\r\n\r\n        require(rawInput.length == 96 + bl + el + ml);\r\n        return ret;\r\n    }\r\n  \r\n}",
  "sourcePath": "C:\\Nick\\ethnyc\\zksupply\\contracts\\RangeProofValidator.sol",
  "compiler": {
    "name": "solc",
    "version": "0.5.0+commit.1d4f565a.Emscripten.clang"
  },
  "schemaVersion": "3.0.1",
  "updatedAt": "2019-05-18T15:56:03.184Z",
  "devdoc": {
    "methods": {}
  },
  "userdoc": {
    "methods": {}
  }
}