{
  "contractName": "RangeProofValidator",
  "abi": [
    {
      "anonymous": false,
      "inputs": [
        {
          "indexed": false,
          "name": "_s",
          "type": "string"
        },
        {
          "indexed": false,
          "name": "_u",
          "type": "uint256"
        }
      ],
      "name": "Print",
      "type": "event"
    },
    {
      "constant": false,
      "inputs": [
        {
          "name": "lower",
          "type": "uint256"
        },
        {
          "name": "upper",
          "type": "uint256"
        },
        {
          "name": "commitment",
          "type": "bytes"
        },
        {
          "name": "proof",
          "type": "bytes"
        }
      ],
      "name": "validate",
      "outputs": [
        {
          "name": "",
          "type": "bool"
        }
      ],
      "payable": false,
      "stateMutability": "nonpayable",
      "type": "function"
    },
    {
      "constant": false,
      "inputs": [
        {
          "name": "a",
          "type": "uint256"
        },
        {
          "name": "p",
          "type": "uint256"
        }
      ],
      "name": "modInverse",
      "outputs": [
        {
          "name": "",
          "type": "uint256"
        }
      ],
      "payable": false,
      "stateMutability": "nonpayable",
      "type": "function"
    },
    {
      "constant": false,
      "inputs": [
        {
          "name": "p",
          "type": "uint256"
        },
        {
          "name": "A",
          "type": "uint256"
        },
        {
          "name": "validPlainTexts",
          "type": "uint256[]"
        },
        {
          "name": "c2",
          "type": "uint256"
        },
        {
          "name": "commitments",
          "type": "bytes[]"
        },
        {
          "name": "challenges",
          "type": "bytes[]"
        },
        {
          "name": "responses",
          "type": "bytes[]"
        }
      ],
      "name": "verifyNonInteractiveDisjunctiveZKProofOfEncryptionOfPlaintextElGamal",
      "outputs": [
        {
          "name": "result1",
          "type": "bool"
        },
        {
          "name": "result2",
          "type": "bool"
        }
      ],
      "payable": false,
      "stateMutability": "nonpayable",
      "type": "function"
    },
    {
      "constant": true,
      "inputs": [
        {
          "name": "x",
          "type": "uint256"
        }
      ],
      "name": "toBigInt",
      "outputs": [
        {
          "name": "ret",
          "type": "bytes"
        }
      ],
      "payable": false,
      "stateMutability": "pure",
      "type": "function"
    },
    {
      "constant": false,
      "inputs": [
        {
          "name": "a",
          "type": "bytes"
        },
        {
          "name": "b",
          "type": "bytes"
        }
      ],
      "name": "bigadd",
      "outputs": [
        {
          "name": "ret",
          "type": "bytes"
        }
      ],
      "payable": false,
      "stateMutability": "nonpayable",
      "type": "function"
    },
    {
      "constant": false,
      "inputs": [
        {
          "name": "a",
          "type": "bytes"
        },
        {
          "name": "b",
          "type": "bytes"
        }
      ],
      "name": "bigsub",
      "outputs": [
        {
          "name": "ret",
          "type": "bytes"
        }
      ],
      "payable": false,
      "stateMutability": "nonpayable",
      "type": "function"
    },
    {
      "constant": false,
      "inputs": [
        {
          "name": "x",
          "type": "bytes"
        }
      ],
      "name": "square",
      "outputs": [
        {
          "name": "ret",
          "type": "bytes"
        }
      ],
      "payable": false,
      "stateMutability": "nonpayable",
      "type": "function"
    },
    {
      "constant": false,
      "inputs": [
        {
          "name": "a",
          "type": "bytes"
        },
        {
          "name": "b",
          "type": "bytes"
        }
      ],
      "name": "multiply",
      "outputs": [
        {
          "name": "ret",
          "type": "bytes"
        }
      ],
      "payable": false,
      "stateMutability": "nonpayable",
      "type": "function"
    },
    {
      "constant": true,
      "inputs": [
        {
          "name": "x",
          "type": "bytes"
        },
        {
          "name": "bitShift",
          "type": "uint256"
        }
      ],
      "name": "shiftBitsRight",
      "outputs": [
        {
          "name": "y",
          "type": "bytes"
        }
      ],
      "payable": false,
      "stateMutability": "pure",
      "type": "function"
    },
    {
      "constant": true,
      "inputs": [
        {
          "name": "x",
          "type": "bytes"
        },
        {
          "name": "n",
          "type": "int256"
        }
      ],
      "name": "shiftLeft",
      "outputs": [
        {
          "name": "ret",
          "type": "bytes"
        }
      ],
      "payable": false,
      "stateMutability": "pure",
      "type": "function"
    },
    {
      "constant": false,
      "inputs": [
        {
          "name": "_x",
          "type": "bytes"
        },
        {
          "name": "_mod",
          "type": "bytes"
        }
      ],
      "name": "bmod",
      "outputs": [
        {
          "name": "ret",
          "type": "bytes"
        }
      ],
      "payable": false,
      "stateMutability": "nonpayable",
      "type": "function"
    },
    {
      "constant": false,
      "inputs": [
        {
          "name": "_base",
          "type": "bytes"
        },
        {
          "name": "_exp",
          "type": "bytes"
        },
        {
          "name": "_mod",
          "type": "bytes"
        }
      ],
      "name": "modexp",
      "outputs": [
        {
          "name": "",
          "type": "bytes"
        }
      ],
      "payable": true,
      "stateMutability": "payable",
      "type": "function"
    },
    {
      "constant": false,
      "inputs": [
        {
          "name": "b",
          "type": "bytes"
        }
      ],
      "name": "bytesToUint",
      "outputs": [
        {
          "name": "",
          "type": "uint256"
        }
      ],
      "payable": false,
      "stateMutability": "nonpayable",
      "type": "function"
    }
  ],
  "bytecode": "0x608060405234801561001057600080fd5b506132e4806100206000396000f3fe6080604052600436106100c5576000357c0100000000000000000000000000000000000000000000000000000000900463ffffffff16806302d06d05146100ca5780633adfed281461010757806344f94bda1461014457806368b54a3a146101815780636d8e8182146101be578063830058ab146101fb5780638b4c9e831461023857806398edc97f14610268578063a4d662d8146102a6578063a59bc5e8146102e3578063a61d7e3e14610320578063a6203b411461035d578063ff27c4761461039a575b600080fd5b3480156100d657600080fd5b506100f160048036036100ec9190810190612c31565b6103d7565b6040516100fe9190613132565b60405180910390f35b34801561011357600080fd5b5061012e60048036036101299190810190612e46565b610491565b60405161013b9190613132565b60405180910390f35b34801561015057600080fd5b5061016b60048036036101669190810190612c72565b610549565b60405161017891906130e2565b60405180910390f35b34801561018d57600080fd5b506101a860048036036101a39190810190612c31565b610567565b6040516101b591906130e2565b60405180910390f35b3480156101ca57600080fd5b506101e560048036036101e09190810190612c72565b610596565b6040516101f291906130e2565b60405180910390f35b34801561020757600080fd5b50610222600480360361021d9190810190612d75565b6105af565b60405161022f91906130e2565b60405180910390f35b610252600480360361024d9190810190612cde565b6106b5565b60405161025f91906130e2565b60405180910390f35b34801561027457600080fd5b5061028f600480360361028a9190810190612e82565b6107d0565b60405161029d9291906130b9565b60405180910390f35b3480156102b257600080fd5b506102cd60048036036102c89190810190612c72565b610ec7565b6040516102da91906130e2565b60405180910390f35b3480156102ef57600080fd5b5061030a60048036036103059190810190612c72565b610f69565b60405161031791906130e2565b60405180910390f35b34801561032c57600080fd5b5061034760048036036103429190810190612f80565b610f82565b604051610354919061309e565b60405180910390f35b34801561036957600080fd5b50610384600480360361037f9190810190612e1d565b611254565b60405161039191906130e2565b60405180910390f35b3480156103a657600080fd5b506103c160048036036103bc9190810190612dc9565b611298565b6040516103ce91906130e2565b60405180910390f35b60008060008090505b8351811015610487576001810184510360080260020a848281518110151561040457fe5b9060200101517f010000000000000000000000000000000000000000000000000000000000000090047f0100000000000000000000000000000000000000000000000000000000000000027f0100000000000000000000000000000000000000000000000000000000000000900460ff16028201915080806001019150506103e0565b5080915050919050565b60008083141580156104a35750818314155b80156104b0575060008214155b15156104bb57600080fd5b818311156104d25781838115156104ce57fe5b0692505b600080600190506000849050600086905060005b60008214151561051f5781838115156104fb57fe5b049050838482028603838484028603809550819650829750839850505050506104e6565b600085121561053a5784600003870395505050505050610543565b84955050505050505b92915050565b606061055f836105596001611254565b846106b5565b905092915050565b6060806105788360088551026105af565b905061058e836105886002611254565b836106b5565b915050919050565b60606105a48383600061138b565b508091505092915050565b606060006101008060088651028560ff01018115156105ca57fe5b050290506000811315156106155760006040519080825280601f01601f19166020018201604052801561060c5781602001600182028038833980820191505090505b509150506106af565b60088181151561062157fe5b046040519080825280601f01601f1916602001820160405280156106545781602001600182028038833980820191505090505b5091506000825185511061066957825161066c565b84515b90506000806020870191506020850190506106888183856115b9565b600086600889510286030390506106a76106a28783611298565b6115e4565b955050505050505b92915050565b60606000845190506000845190506000845190506060816040519080825280601f01601f1916602001820160405280156106fe5781602001600182028038833980820191505090505b5090506000828486606001010190506060816040519080825280601f01601f1916602001820160405280156107425781602001600182028038833980820191505090505b5090506020810186815285602082015284604082015286606082018860208e01600060046101c2f1868860600183018860208e01600060046101c2f190508586850383018760208d01600060046101c2f1905085602086018584600060056105465a03f190505050838587606001010181511415156107c057600080fd5b8296505050505050509392505050565b6000806060806107df8b611254565b90506060600080819055505b8951600054101561084b576108188a60005481518110151561080957fe5b90602001906020020151611254565b8160005481518110151561082857fe5b9060200190602002018190525060008081548092919060010191905055506107eb565b600080819055505b8751600054101561096d576108886108838960005481518110151561087457fe5b906020019060200201516103d7565b611254565b8360005481518110151561089857fe5b906020019060200201819052506108cf6108ca886000548151811015156108bb57fe5b906020019060200201516103d7565b611254565b60016000548154811015156108e057fe5b9060005260206000200190805190602001906108fd9291906129bd565b506109286109238760005481518110151561091457fe5b906020019060200201516103d7565b611254565b600260005481548110151561093957fe5b9060005260206000200190805190602001906109569291906129bd565b506000808154809291906001019190505550610853565b600080819055505b80516000541015610ba8576060610a4861098e8d611254565b600260005481548110151561099f57fe5b906000526020600020018054600181600116156101000203166002900480601f016020809104026020016040519081016040528092919081815260200182805460018160011615610100020316600290048015610a3d5780601f10610a1257610100808354040283529160200191610a3d565b820191906000526020600020905b815481529060010190602001808311610a2057829003601f168201915b5050505050856106b5565b90506060610b77610abd86600054815181101515610a6257fe5b90602001906020020151610ab8610a788f611254565b610ab3610aae610aa08a600054815181101515610a9157fe5b906020019060200201516103d7565b610aa98c6103d7565b610491565b611657565b610ec7565b610ec7565b6001600054815481101515610ace57fe5b906000526020600020018054600181600116156101000203166002900480601f016020809104026020016040519081016040528092919081815260200182805460018160011615610100020316600290048015610b6c5780601f10610b4157610100808354040283529160200191610b6c565b820191906000526020600020905b815481529060010190602001808311610b4f57829003601f168201915b5050505050866106b5565b90506000610b85838361169b565b1415610b9057600196505b50506000808154809291906001019190505550610975565b60206040519081016040528060008152509150600080819055505b82516000541015610cc1578183600054815181101515610bdf57fe5b906020019060200201516040516020018083805190602001908083835b602083101515610c215780518252602082019150602081019050602083039250610bfc565b6001836020036101000a03801982511681845116808217855250505050505090500182805190602001908083835b602083101515610c745780518252602082019150602081019050602083039250610c4f565b6001836020036101000a0380198251168184511680821785525050505050509050019250505060405160208183030381529060405291506000808154809291906001019190505550610bc3565b610cd5828051906020012060019004611254565b9150606060016000815481101515610ce957fe5b906000526020600020018054600181600116156101000203166002900480601f016020809104026020016040519081016040528092919081815260200182805460018160011615610100020316600290048015610d875780601f10610d5c57610100808354040283529160200191610d87565b820191906000526020600020905b815481529060010190602001808311610d6a57829003601f168201915b5050505050905060016000819055505b6001805490506000541015610ea057806001600054815481101515610db857fe5b906000526020600020016040516020018083805190602001908083835b602083101515610dfa5780518252602082019150602081019050602083039250610dd5565b6001836020036101000a03801982511681845116808217855250505050505090500182805460018160011615610100020316600290048015610e735780601f10610e51576101008083540402835291820191610e73565b820191906000526020600020905b815481529060010190602001808311610e5f575b50509250505060405160208183030381529060405290506000808154809291906001019190505550610d97565b6000610eac848361169b565b1415610eb757600194505b5050505097509795505050505050565b606080610ed46002611254565b90506060610ee28585610596565b90506060610ef08686610f69565b90506060610f028360088551026105af565b90506060610f118486846106b5565b90506060610f208487856106b5565b90506060610f2e8383610f69565b9050610f5a817ffffffffffffffffffffffffffffffffffffffffffffffffffffffffffffffffe6105af565b97505050505050505092915050565b6060610f778383600161138b565b508091505092915050565b600060606007604051908082528060200260200182016040528015610fbb57816020015b6060815260200190600190039081610fa65790505b5090506060601f604051908082528060200260200182016040528015610ff557816020015b6060815260200190600190039081610fe05790505b509050606060008060606000808a955060008090505b88518110156110ff57868181518110151561102257fe5b906020019060200201519150868181518110151561103c57fe5b9060200190602002015160018a5103821461107157876001830181518110151561106257fe5b90602001906020020151611074565b8c515b039250826040519080825280601f01601f1916602001820160405280156110aa5781602001600182028038833980820191505090505b5093506020840195508160208d01019450610800831015156110cb57600080fd5b6110d68686856115b9565b8389828151811015156110e557fe5b90602001906020020181905250808060010191505061100b565b508995507f5ecf36f705605fd144b15d76100246c2b9af70ede5b61b9f6b4f2a53c577ee148a516040516111339190613104565b60405180910390a160008090505b875181101561123557868181518110151561115857fe5b906020019060200201519150868181518110151561117257fe5b90602001906020020151600189510382146111a757876001830181518110151561119857fe5b906020019060200201516111aa565b8b515b039250826040519080825280601f01601f1916602001820160405280156111e05781602001600182028038833980820191505090505b5093506020840195508160208c010194506120008310151561120157600080fd5b61120c8686856115b9565b83888281518110151561121b57fe5b906020019060200201819052508080600101915050611141565b506112428d8d8a8a6116b5565b98505050505050505050949350505050565b606060206040519080825280601f01601f19166020018201604052801561128a5781602001600182028038833980820191505090505b509050816020820152919050565b606060008214156112ab57829050611385565b60ff82111515156112bb57600080fd5b6000602084518115156112ca57fe5b061415156112d757600080fd5b82516040519080825280601f01601f19166020018201604052801561130b5781602001600182028038833980820191505090505b509050600060018360019060020a020390506000836101000360020a905060008460020a905060008090505b86518110156113805760008083602084018a01518719160491506000831415156113685784838a0151871602820191505b60208301870190508181525050602081019050611337565b505050505b92915050565b60606000835185511161139f5783516113a2565b84515b6040519080825280601f01601f1916602001820160405280156113d45781602001600182028038833980820191505090505b509150600080600060208801925060208701915060208501905060006020895103840190506000602089510384019050600080905060006020895186010390505b84811015156114d55760008090506000809050888610151561143657855191505b878510151561144457845190505b8b1561147e578381830303835281818303118061146657508082038482840303115b611471576000611474565b60015b60ff1693506114ae565b8381830101835281818301108061149a57508082018482840101105b6114a55760006114a8565b60015b60ff1693505b80821415156114bc57600199505b6020860395506020850394505050602081039050611415565b5060018114156115a4578815611533576115006114f189612623565b6114fb6001611254565b610596565b7fffffffffffffffffffffffffffffffffffffffffffffffffffffffffffffffff809050975097505050505050506115b1565b606060208951016040519080825280601f01601f19166020018201604052801561156c5781602001600182028038833980820191505090505b50905060208901935060408101925061158783858b516115b9565b6001602082015280600180905098509850505050505050506115b1565b8787975097505050505050505b935093915050565b5b6020811015156115df57815183526020830192506020820191506020810390506115ba565b505050565b60606000602083518115156115f557fe5b0614151561160257600080fd5b600060019050600080600090505b84518110156116445760208101850151159250821561163457602082019150611639565b611644565b602081019050611610565b5080840192508084510383525050919050565b606060206040519080825280601f01601f19166020018201604052801561168d5781602001600182028038833980820191505090505b509050816020820152919050565b60006116a98383600161138b565b90508091505092915050565b60006060600b6040519080825280602002602001820160405280156116ee57816020015b60608152602001906001900390816116d95790505b50905060006116fe878703612657565b600160286080010160020201905061171587611254565b82600081518110151561172457fe5b9060200190602002018190525061173a86611254565b82600181518110151561174957fe5b906020019060200201819052506117a385600081518110151561176857fe5b9060200190602002015161178561177f6001611254565b846105af565b87600181518110151561179457fe5b906020019060200201516106b5565b8560008151811015156117b257fe5b9060200190602002018190525061180c8560048151811015156117d157fe5b906020019060200201516117ee6117e86001611254565b846105af565b8760018151811015156117fd57fe5b906020019060200201516106b5565b85600481518110151561181b57fe5b9060200190602002018190525061184a82600081518110151561183a57fe5b90602001906020020151826105af565b82600081518110151561185957fe5b9060200190602002018190525061188882600181518110151561187857fe5b90602001906020020151826105af565b82600181518110151561189757fe5b906020019060200201819052506118bb6118b2888803611254565b600283016105af565b8260048151811015156118ca57fe5b9060200190602002018190525061191184601e8151811015156118e957fe5b9060200190602002015183600481518110151561190257fe5b906020019060200201516126a0565b15156119225760009250505061261b565b6119af85600081518110151561193457fe5b9060200190602002015161199187600581518110151561195057fe5b9060200190602002015185600081518110151561196957fe5b9060200190602002015189600181518110151561198257fe5b906020019060200201516106b5565b8760018151811015156119a057fe5b906020019060200201516126f5565b8260028151811015156119be57fe5b90602001906020020181905250611a58611a218660028151811015156119e057fe5b906020019060200201518460018151811015156119f957fe5b90602001906020020151886001815181101515611a1257fe5b906020019060200201516106b5565b866004815181101515611a3057fe5b90602001906020020151876001815181101515611a4957fe5b906020019060200201516126f5565b826003815181101515611a6757fe5b90602001906020020181905250611ac7856000815181101515611a8657fe5b90602001906020020151866004815181101515611a9f57fe5b90602001906020020151876001815181101515611ab857fe5b90602001906020020151612713565b1515611ad85760009250505061261b565b611b2b856002815181101515611aea57fe5b90602001906020020151866005815181101515611b0357fe5b90602001906020020151876001815181101515611b1c57fe5b90602001906020020151612713565b1515611b3c5760009250505061261b565b611b8f856003815181101515611b4e57fe5b90602001906020020151866006815181101515611b6757fe5b90602001906020020151876001815181101515611b8057fe5b90602001906020020151612713565b1515611ba05760009250505061261b565b611bf3846000815181101515611bb257fe5b90602001906020020151856012815181101515611bcb57fe5b90602001906020020151876001815181101515611be457fe5b90602001906020020151612713565b1515611c045760009250505061261b565b611c57846001815181101515611c1657fe5b90602001906020020151856013815181101515611c2f57fe5b90602001906020020151876001815181101515611c4857fe5b90602001906020020151612713565b1515611c685760009250505061261b565b611cbb846002815181101515611c7a57fe5b90602001906020020151856014815181101515611c9357fe5b90602001906020020151876001815181101515611cac57fe5b90602001906020020151612713565b1515611ccc5760009250505061261b565b611d1f846007815181101515611cde57fe5b90602001906020020151856015815181101515611cf757fe5b90602001906020020151876001815181101515611d1057fe5b90602001906020020151612713565b1515611d305760009250505061261b565b611d83826002815181101515611d4257fe5b90602001906020020151856012815181101515611d5b57fe5b90602001906020020151876001815181101515611d7457fe5b906020019060200201516126f5565b826002815181101515611d9257fe5b90602001906020020181905250611df2826003815181101515611db157fe5b90602001906020020151856013815181101515611dca57fe5b90602001906020020151876001815181101515611de357fe5b906020019060200201516126f5565b826003815181101515611e0157fe5b90602001906020020181905250611e61826002815181101515611e2057fe5b90602001906020020151856016815181101515611e3957fe5b90602001906020020151876001815181101515611e5257fe5b90602001906020020151612713565b1515611e725760009250505061261b565b611ec5826003815181101515611e8457fe5b90602001906020020151856017815181101515611e9d57fe5b90602001906020020151876001815181101515611eb657fe5b90602001906020020151612713565b1515611ed65760009250505061261b565b6000611f03856018815181101515611eea57fe5b90602001906020020151611efe6001611254565b61169b565b14611f2657846003815181101515611f1757fe5b90602001906020020151611f40565b846006815181101515611f3557fe5b906020019060200201515b826005815181101515611f4f57fe5b906020019060200201819052506000611f89856019815181101515611f7057fe5b90602001906020020151611f846001611254565b61169b565b14611fac57846003815181101515611f9d57fe5b90602001906020020151611fc6565b846006815181101515611fbb57fe5b906020019060200201515b826006815181101515611fd557fe5b90602001906020020181905250600061200f85601a815181101515611ff657fe5b9060200190602002015161200a6001611254565b61169b565b146120325784600381518110151561202357fe5b9060200190602002015161204c565b84600681518110151561204157fe5b906020019060200201515b82600781518110151561205b57fe5b90602001906020020181905250600061209585601b81518110151561207c57fe5b906020019060200201516120906001611254565b61169b565b146120b8578460038151811015156120a957fe5b906020019060200201516120d2565b8460068151811015156120c757fe5b906020019060200201515b8260088151811015156120e157fe5b90602001906020020181905250600061211b85601c81518110151561210257fe5b906020019060200201516121166001611254565b61169b565b1461213e5784600381518110151561212f57fe5b90602001906020020151612158565b84600681518110151561214d57fe5b906020019060200201515b82600981518110151561216757fe5b9060200190602002018190525060006121a185601d81518110151561218857fe5b9060200190602002015161219c6001611254565b61169b565b146121c4578460038151811015156121b557fe5b906020019060200201516121de565b8460068151811015156121d357fe5b906020019060200201515b82600a8151811015156121ed57fe5b9060200190602002018190525061231585600181518110151561220c57fe5b9060200190602002015186600281518110151561222557fe5b9060200190602002015184600581518110151561223e57fe5b9060200190602002015185600681518110151561225757fe5b9060200190602002015188600281518110151561227057fe5b9060200190602002015189600381518110151561228957fe5b906020019060200201518a60048151811015156122a257fe5b906020019060200201518b60058151811015156122bb57fe5b906020019060200201518c60068151811015156122d457fe5b906020019060200201518d60128151811015156122ed57fe5b906020019060200201518e601481518110151561230657fe5b9060200190602002015161273d565b15156123265760009250505061261b565b61244185600181518110151561233857fe5b9060200190602002015186600281518110151561235157fe5b9060200190602002015184600781518110151561236a57fe5b9060200190602002015185600881518110151561238357fe5b9060200190602002015188600781518110151561239c57fe5b906020019060200201518960088151811015156123b557fe5b906020019060200201518a60098151811015156123ce57fe5b906020019060200201518b600a8151811015156123e757fe5b906020019060200201518c600b81518110151561240057fe5b906020019060200201518d601381518110151561241957fe5b906020019060200201518e601581518110151561243257fe5b9060200190602002015161273d565b15156124525760009250505061261b565b61252284601e81518110151561246457fe5b9060200190602002015186600181518110151561247d57fe5b9060200190602002015187600281518110151561249657fe5b906020019060200201518560098151811015156124af57fe5b906020019060200201518860168151811015156124c857fe5b9060200190602002015189600c8151811015156124e157fe5b906020019060200201518a600d8151811015156124fa57fe5b906020019060200201518b600e81518110151561251357fe5b90602001906020020151612763565b15156125335760009250505061261b565b61260384601e81518110151561254557fe5b9060200190602002015186600181518110151561255e57fe5b9060200190602002015187600281518110151561257757fe5b9060200190602002015185600a81518110151561259057fe5b906020019060200201518860178151811015156125a957fe5b9060200190602002015189600f8151811015156125c257fe5b906020019060200201518a60108151811015156125db57fe5b906020019060200201518b60118151811015156125f457fe5b90602001906020020151612763565b15156126145760009250505061261b565b6001925050505b949350505050565b60606000806020840191508351820190505b8082101561264d578151198252602082019150612635565b8392505050919050565b6000806001905060008090505b610100811015612693578184101561268057809250505061269b565b6002820291508080600101915050612664565b506101009150505b919050565b600060606126b7846126b26001611254565b610596565b905060006126cd6126c786610567565b8561169b565b131580156126ec575060006126ea6126e483610567565b8561169b565b135b91505092915050565b606061270a6127048585610ec7565b83610549565b90509392505050565b6000806127336127248686866126f5565b61272e6001611254565b61169b565b1490509392505050565b60006127528c8c8a8d8d87898e8e8e8e61280f565b90509b9a5050505050505050505050565b600060606127848561277f6127786001611254565b60806105af565b610549565b9050606061279f61279a8b8b8b89898d89612937565b6115e4565b905060006127b6866127b1858f610ec7565b61169b565b121580156127db575060006127d8866127d38e60286080016105af565b61169b565b13155b80156127ff575060006127fd6127f78380519060200120612979565b8861169b565b145b9250505098975050505050505050565b6000606061282a6128258e8e8d89898e8d612937565b6115e4565b905060606128456128408f8e8d8a898e8e612937565b6115e4565b9050600061292361291d84846040516020018083805190602001908083835b6020831015156128895780518252602082019150602081019050602083039250612864565b6001836020036101000a03801982511681845116808217855250505050505090500182805190602001908083835b6020831015156128dc57805182526020820191506020810190506020830392506128b7565b6001836020036101000a0380198251168184511680821785525050505050509050019250505060405160208183030381529060405280519060200120612979565b8961169b565b14925050509b9a5050505050505050505050565b606061296c61295b61294a89888c6106b5565b61295589888d6106b5565b8b6126f5565b61296685858c6106b5565b8a6126f5565b9050979650505050505050565b606060206040519080825280601f01601f1916602001820160405280156129af5781602001600182028038833980820191505090505b509050816020820152919050565b828054600181600116156101000203166002900490600052602060002090601f016020900481019282601f106129fe57805160ff1916838001178555612a2c565b82800160010185558215612a2c579182015b82811115612a2b578251825591602001919060010190612a10565b5b509050612a399190612a3d565b5090565b612a5f91905b80821115612a5b576000816000905550600101612a43565b5090565b90565b600082601f8301121515612a7557600080fd5b8135612a88612a838261317a565b61314d565b9150818183526020840193506020810190508360005b83811015612ace5781358601612ab48882612b5d565b845260208401935060208301925050600181019050612a9e565b5050505092915050565b600082601f8301121515612aeb57600080fd5b8135612afe612af9826131a2565b61314d565b91508181835260208401935060208101905083856020840282011115612b2357600080fd5b60005b83811015612b535781612b398882612c1d565b845260208401935060208301925050600181019050612b26565b5050505092915050565b600082601f8301121515612b7057600080fd5b8135612b83612b7e826131ca565b61314d565b91508082526020830160208301858383011115612b9f57600080fd5b612baa838284613257565b50505092915050565b600082601f8301121515612bc657600080fd5b8135612bd9612bd4826131f6565b61314d565b91508082526020830160208301858383011115612bf557600080fd5b612c00838284613257565b50505092915050565b6000612c158235613243565b905092915050565b6000612c29823561324d565b905092915050565b600060208284031215612c4357600080fd5b600082013567ffffffffffffffff811115612c5d57600080fd5b612c6984828501612bb3565b91505092915050565b60008060408385031215612c8557600080fd5b600083013567ffffffffffffffff811115612c9f57600080fd5b612cab85828601612bb3565b925050602083013567ffffffffffffffff811115612cc857600080fd5b612cd485828601612bb3565b9150509250929050565b600080600060608486031215612cf357600080fd5b600084013567ffffffffffffffff811115612d0d57600080fd5b612d1986828701612bb3565b935050602084013567ffffffffffffffff811115612d3657600080fd5b612d4286828701612bb3565b925050604084013567ffffffffffffffff811115612d5f57600080fd5b612d6b86828701612bb3565b9150509250925092565b60008060408385031215612d8857600080fd5b600083013567ffffffffffffffff811115612da257600080fd5b612dae85828601612bb3565b9250506020612dbf85828601612c09565b9150509250929050565b60008060408385031215612ddc57600080fd5b600083013567ffffffffffffffff811115612df657600080fd5b612e0285828601612bb3565b9250506020612e1385828601612c1d565b9150509250929050565b600060208284031215612e2f57600080fd5b6000612e3d84828501612c1d565b91505092915050565b60008060408385031215612e5957600080fd5b6000612e6785828601612c1d565b9250506020612e7885828601612c1d565b9150509250929050565b600080600080600080600060e0888a031215612e9d57600080fd5b6000612eab8a828b01612c1d565b9750506020612ebc8a828b01612c1d565b965050604088013567ffffffffffffffff811115612ed957600080fd5b612ee58a828b01612ad8565b9550506060612ef68a828b01612c1d565b945050608088013567ffffffffffffffff811115612f1357600080fd5b612f1f8a828b01612a62565b93505060a088013567ffffffffffffffff811115612f3c57600080fd5b612f488a828b01612a62565b92505060c088013567ffffffffffffffff811115612f6557600080fd5b612f718a828b01612a62565b91505092959891949750929550565b60008060008060808587031215612f9657600080fd5b6000612fa487828801612c1d565b9450506020612fb587828801612c1d565b935050604085013567ffffffffffffffff811115612fd257600080fd5b612fde87828801612bb3565b925050606085013567ffffffffffffffff811115612ffb57600080fd5b61300787828801612bb3565b91505092959194509250565b61301c8161322d565b82525050565b600061302d82613222565b808452613041816020860160208601613266565b61304a81613299565b602085010191505092915050565b6000600c82527f70726f6f66206c656e67746800000000000000000000000000000000000000006020830152604082019050919050565b61309881613239565b82525050565b60006020820190506130b36000830184613013565b92915050565b60006040820190506130ce6000830185613013565b6130db6020830184613013565b9392505050565b600060208201905081810360008301526130fc8184613022565b905092915050565b6000604082019050818103600083015261311d81613058565b905061312c602083018461308f565b92915050565b6000602082019050613147600083018461308f565b92915050565b6000604051905081810181811067ffffffffffffffff8211171561317057600080fd5b8060405250919050565b600067ffffffffffffffff82111561319157600080fd5b602082029050602081019050919050565b600067ffffffffffffffff8211156131b957600080fd5b602082029050602081019050919050565b600067ffffffffffffffff8211156131e157600080fd5b601f19601f8301169050602081019050919050565b600067ffffffffffffffff82111561320d57600080fd5b601f19601f8301169050602081019050919050565b600081519050919050565b60008115159050919050565b6000819050919050565b6000819050919050565b6000819050919050565b82818337600083830152505050565b60005b83811015613284578082015181840152602081019050613269565b83811115613293576000848401525b50505050565b6000601f19601f830116905091905056fea265627a7a72305820b1e96655ca410fdf848f8865e72948471d116b2f711152aa1aa68d352852c3ec6c6578706572696d656e74616cf50037",
  "source": "pragma solidity >=0.4.21 <0.6.0;\r\npragma experimental ABIEncoderV2; // solium-disable-line no-experimental \r\n\r\ncontract RangeProofValidator {\r\n    event Print(string _s,uint _u);\r\n    int constant t = 128;\r\n    int constant l = 40;\r\n\r\n    // Convert bytes to array of big integers\r\n    function validate(uint lower, uint upper, bytes memory commitment, bytes memory proof) public returns(bool) {\r\n        bytes[] memory com = new bytes[](7);\r\n        bytes[] memory prf = new bytes[](31);\r\n        uint[] memory index;\r\n        uint destPointer;\r\n        uint srcPointer;\r\n        bytes memory part;\r\n        uint length;\r\n        uint start;\r\n\r\n        assembly { index := commitment }\r\n        for (uint i = 0; i < com.length; i++) {\r\n            start = index[i];\r\n            length = (i == com.length - 1 ? commitment.length : index[i+1]) - index[i];\r\n            part = new bytes(length);\r\n            assembly {\r\n                destPointer := add(part, 32)\r\n                srcPointer := add(add(commitment, 32), start)\r\n            }\r\n            require(length < 2048);\r\n            copyWords(destPointer, srcPointer, length);\r\n            com[i] = part;\r\n        }\r\n\r\n        assembly { index := proof }\r\n        emit Print(\"proof length\",proof.length);\r\n        for (uint i = 0; i < prf.length; i++) {\r\n            start = index[i];\r\n            length = (i == prf.length - 1 ? proof.length : index[i+1]) - index[i];\r\n            part = new bytes(length);\r\n            assembly {\r\n                destPointer := add(part, 32)\r\n                srcPointer := add(add(proof, 32), start)\r\n            }\r\n            require(length < 8192);\r\n            copyWords(destPointer, srcPointer, length);\r\n            prf[i] = part;\r\n        }\r\n        return validateProof(lower, upper, com, prf);\r\n       //return true;\r\n    }\r\n\r\n\r\n    function modInverse(uint a, uint p) public returns (uint) {\r\n        require (a != 0 && a != p && p != 0);\r\n        if (a > p)\r\n            a = a % p;\r\n        int t1;\r\n        int t2 = 1;\r\n        uint r1 = p;\r\n        uint r2 = a;\r\n        uint q;\r\n        while (r2 != 0) {\r\n            q = r1 / r2;\r\n            (t1, t2, r1, r2) = (t2, t1 - int(q) * t2, r2, r1 - q * r2);\r\n        }\r\n        if (t1 < 0)\r\n            return p - uint(-t1);\r\n        return uint(t1);\r\n    }\r\n\r\nuint j;\r\n\r\n  bytes[] challengesBigInt;\r\n  bytes[] responsesBigInt;\r\n function verifyNonInteractiveDisjunctiveZKProofOfEncryptionOfPlaintextElGamal(uint p,uint  A,uint[] memory validPlainTexts,uint c2,bytes[] memory commitments,bytes[] memory challenges,bytes[] memory responses) public returns(bool result1,bool result2){\r\n\r\n  bytes[] memory commitmentsBigInt;\r\n  bytes memory pBigInt = toBigInt(p);\r\n  bytes[] memory validPlainTextsBigInt;\r\n  for(j =0; j< validPlainTexts.length;j++){\r\n    validPlainTextsBigInt[j] = toBigInt(validPlainTexts[j]);\r\n  }\r\n\r\n  for(j = 0; j < commitments.length; j++){\r\n    commitmentsBigInt[j] = toBigInt(bytesToUint(commitments[j]));\r\n    challengesBigInt[j] = toBigInt(bytesToUint(challenges[j]));\r\n    responsesBigInt[j] = toBigInt(bytesToUint(responses[j]));\r\n  }\r\n\r\n  for(j = 0; j < validPlainTextsBigInt.length; j++){\r\n    bytes memory leftBigInt = modexp(toBigInt(A),responsesBigInt[j],pBigInt);\r\n    bytes memory rightBigInt = modexp(multiply(commitmentsBigInt[j],multiply(toBigInt(c2),toBytes(modInverse(bytesToUint(validPlainTextsBigInt[j]),bytesToUint(pBigInt))))),challengesBigInt[j],pBigInt);\r\n    if(compare(leftBigInt,rightBigInt) == 0){\r\n        result1 = true;\r\n        }\r\n      }\r\n\r\n /*** COMPUTE EXPECTED CHALLENGE ***/\r\n  pBigInt = \"\";\r\n  for(j = 0; j< commitmentsBigInt.length;j++){\r\n    pBigInt = abi.encodePacked(pBigInt,commitmentsBigInt[j]);\r\n  }\r\n pBigInt = toBigInt(uint(keccak256(pBigInt))); //.remainder(pBigInt);\r\n\r\n bytes memory sumChallenges = challengesBigInt[0];\r\n  for(j = 1; j < challengesBigInt.length; j++){\r\n    sumChallenges = abi.encodePacked(sumChallenges,challengesBigInt[j]);\r\n  }\r\n  /*** VERIFY CHALLENGES ***/\r\n  if(compare(pBigInt,sumChallenges)==0){\r\n    result2 = true;\r\n  }\r\n}\r\n\r\nfunction validateProof(uint lower, uint upper, bytes[] memory com, bytes[] memory prf) internal returns (bool) {\r\n        // Stack too deep so store in memory: tmp = (a, b, cLeft, cRight)\r\n        bytes[] memory tmp = new bytes[](11);\r\n\r\n        int T = 2 * (t + l + 1) + int(bitLength(upper - lower));\r\n        tmp[0] = toBigInt(lower);\r\n        tmp[1] = toBigInt(upper);\r\n\r\n        // Scale for Proof without Tolerance\r\n        com[0] = modexp(com[0], shiftLeft(toBigInt(1), T), com[1]); // cPrime\r\n        com[4] = modexp(com[4], shiftLeft(toBigInt(1), T), com[1]);\r\n        tmp[0] = shiftLeft(tmp[0], T);\r\n        tmp[1] = shiftLeft(tmp[1], T);\r\n        tmp[4] = shiftLeft(toBigInt(upper - lower), T + 2);\r\n        if (!validateFloorSqrt(prf[30], tmp[4])) {return false;} // for maxCommitment\r\n\r\n        // Step 2\r\n        // c / g^a = c * (1/g)^a\r\n        tmp[2] = modmul(com[0], modexp(com[5], tmp[0], com[1]), com[1]);\r\n\r\n        // g^b / c = g^b * (1/c)\r\n        tmp[3] = modmul(modexp(com[2], tmp[1], com[1]), com[4], com[1]);\r\n\r\n        // Return false if invalid inverse is provided\r\n        if (!validateModInv(com[0], com[4], com[1])) {return false;}\r\n        if (!validateModInv(com[2], com[5], com[1])) {return false;}\r\n        if (!validateModInv(com[3], com[6], com[1])) {return false;}\r\n        if (!validateModInv(prf[0], prf[18], com[1])) {return false;}\r\n        if (!validateModInv(prf[1], prf[19], com[1])) {return false;}\r\n        if (!validateModInv(prf[2], prf[20], com[1])) {return false;}\r\n        if (!validateModInv(prf[7], prf[21], com[1])) {return false;}\r\n\r\n        // Step 6\r\n        tmp[2] = modmul(tmp[2], prf[18], com[1]);\r\n        tmp[3] = modmul(tmp[3], prf[19], com[1]);\r\n\r\n        // Return false if invalid inverse is provided\r\n        if (!validateModInv(tmp[2], prf[22], com[1])) {return false;}\r\n        if (!validateModInv(tmp[3], prf[23], com[1])) {return false;}\r\n\r\n        // Get rid of negative exponents D1, D2\r\n        tmp[5] = compare(prf[24], toBigInt(1)) == 0 ? com[6] : com[3];\r\n        tmp[6] = compare(prf[25], toBigInt(1)) == 0 ? com[6] : com[3];\r\n        tmp[7] = compare(prf[26], toBigInt(1)) == 0 ? com[6] : com[3];\r\n        tmp[8] = compare(prf[27], toBigInt(1)) == 0 ? com[6] : com[3];\r\n        tmp[9] = compare(prf[28], toBigInt(1)) == 0 ? com[6] : com[3];\r\n        tmp[10] = compare(prf[29], toBigInt(1)) == 0 ? com[6] : com[3];\r\n\r\n        // Step 7\r\n        if (!validateSQ(com[1], com[2], tmp[5], tmp[6], prf[2], prf[3], prf[4], prf[5], prf[6], prf[18], prf[20])) {return false;}\r\n        if (!validateSQ(com[1], com[2], tmp[7], tmp[8], prf[7], prf[8], prf[9], prf[10], prf[11], prf[19], prf[21])) {return false;}\r\n\r\n        // Step 8\r\n        if (!validateCFT(prf[30], com[1], com[2], tmp[9], prf[22], prf[12], prf[13], prf[14])) {return false;}\r\n        if (!validateCFT(prf[30], com[1], com[2], tmp[10], prf[23], prf[15], prf[16], prf[17])) {return false;}\r\n\r\n        return true;\r\n    }\r\n\r\n    function validateFloorSqrt(bytes memory sqrt, bytes memory N) internal returns (bool) {\r\n        bytes memory sqrtPlus = bigadd(sqrt, toBigInt(1));\r\n        return compare(square(sqrt), N) <= 0 && compare(square(sqrtPlus), N) > 0;\r\n    }\r\n\r\n    function validateCFT(bytes memory b, bytes memory N, bytes memory g, bytes memory h, bytes memory Einv, bytes memory C,\r\n        bytes memory D1, bytes memory D2) internal returns (bool) {\r\n\r\n        bytes memory c = bmod(C, shiftLeft(toBigInt(1), t));\r\n        bytes memory W = trim(restoreCommitment(N, g, h, D1, D2, Einv, c));\r\n\r\n        return compare(D1, multiply(c, b)) >= 0 &&\r\n            compare(D1, shiftLeft(b, t + l)) <= 0 &&\r\n            compare(loadHash(keccak256(W)), C) == 0;\r\n    }\r\n\r\n    function validateSQ(bytes memory N, bytes memory g, bytes memory h_orInv1, bytes memory h_orInv2, bytes memory F,\r\n        bytes memory c, bytes memory D, bytes memory D1, bytes memory D2, bytes memory Einv, bytes memory Finv) internal returns (bool) {\r\n\r\n        return validateEC(N, g, F, h_orInv1, h_orInv2, Finv, Einv, c, D, D1, D2);\r\n    }\r\n\r\n    function validateEC(bytes memory N, bytes memory g1, bytes memory g2, bytes memory h1, bytes memory h2,\r\n        bytes memory Einv, bytes memory Finv, bytes memory c, bytes memory D, bytes memory D1, bytes memory D2) internal returns (bool) {\r\n\r\n        bytes memory W1 = trim(restoreCommitment(N, g1, h1, D, D1, Einv, c));\r\n        bytes memory W2 = trim(restoreCommitment(N, g2, h2, D, D2, Finv, c));\r\n\r\n        return compare(loadHash(keccak256(abi.encodePacked(W1, W2))), c) == 0;\r\n    }\r\n\r\n    function validateModInv(bytes memory a, bytes memory a_inv, bytes memory N) internal returns (bool) {\r\n        return compare(modmul(a, a_inv, N), toBigInt(1)) == 0;\r\n    }\r\n\r\n    function restoreCommitment(bytes memory N, bytes memory g, bytes memory h, bytes memory D1,\r\n        bytes memory D2, bytes memory Einv, bytes memory c) internal returns (bytes memory ret) {\r\n\r\n        return modmul(modmul(modexp(g, D1, N), modexp(h, D2, N), N), modexp(Einv, c, N), N);\r\n    }\r\n\r\n    function loadHash(bytes32 f) internal pure returns (bytes memory ret) {\r\n        ret = new bytes(32);\r\n        assembly {mstore(add(ret, 32), f) }\r\n    }\r\n\r\n    function bitLength(uint x) internal pure returns (uint) {\r\n        uint test = 1;\r\n        for (uint i = 0; i < 256; i++) {\r\n            if (x < test) return i;\r\n            test = test * 2;\r\n        }\r\n        return 256;\r\n    }\r\n\r\n    function compare(bytes memory a, bytes memory b) internal returns (int cmp) {\r\n        (, cmp) = addOrSub(a, b, true);\r\n    }\r\n\r\n    function toBigInt(uint x) public pure returns (bytes memory ret) {\r\n        ret = new bytes(32);\r\n        assembly { mstore(add(ret, 32), x) }\r\n    }\r\n\r\n    function bignot(bytes memory x) internal pure returns (bytes memory) {\r\n        uint pointer;\r\n        uint pointerEnd;\r\n        assembly {\r\n            pointer := add(x, 32)\r\n            pointerEnd := add(pointer, mload(x))\r\n        }\r\n        for (; pointer < pointerEnd; pointer += 32) {\r\n            assembly {\r\n                mstore(pointer, not(mload(pointer)))\r\n            }\r\n        }\r\n        return x;\r\n    }\r\n\r\n    function bigadd(bytes memory a, bytes memory b) public returns (bytes memory ret) {\r\n        (ret, ) = addOrSub(a, b, false);\r\n    }\r\n\r\n    function bigsub(bytes memory a, bytes memory b) public returns (bytes memory ret) {\r\n        (ret, ) = addOrSub(a, b, true);\r\n    }\r\n\r\n    function addOrSub(bytes memory _a, bytes memory _b, bool negative_b) internal returns (bytes memory result, int cmp) {\r\n        result = new bytes(_a.length > _b.length ? _a.length : _b.length);\r\n\r\n        uint aStart;\r\n        uint bStart;\r\n        uint rStart;\r\n        assembly {\r\n            aStart := add(_a, 32)\r\n            bStart := add(_b, 32)\r\n            rStart := add(result, 32)\r\n        }\r\n        uint aPos = aStart + (_a.length - 32);\r\n        uint bPos = bStart + (_b.length - 32);\r\n        uint carry = 0;\r\n\r\n        for(uint rPos = rStart + result.length - 32; rPos >= rStart; rPos -= 32) {\r\n            uint aPart = 0;\r\n            uint bPart = 0;\r\n            if (aPos >= aStart) {\r\n                assembly { aPart := mload(aPos) }\r\n            }\r\n            if (bPos >= bStart) {\r\n                assembly { bPart := mload(bPos) }\r\n            }\r\n            if (negative_b) {\r\n                assembly {\r\n                    mstore(rPos, sub(sub(aPart, bPart), carry))\r\n                }\r\n                carry = (aPart - bPart > aPart || aPart - bPart - carry > aPart - bPart) ? 1 : 0;\r\n            } else {\r\n                assembly {\r\n                    mstore(rPos, add(add(aPart, bPart), carry))\r\n                }\r\n                carry = (aPart + bPart < aPart || aPart + bPart + carry < aPart + bPart) ? 1 : 0;\r\n            }\r\n            if (aPart != bPart) cmp = 1;\r\n            aPos -= 32;\r\n            bPos -= 32;\r\n        }\r\n\r\n        // If overflow we have to add 1 in front\r\n        if (carry == 1) {\r\n\r\n            if (negative_b) return (bigadd(bignot(result), toBigInt(1)), -1);\r\n\r\n            bytes memory result2 = new bytes(result.length + 32);\r\n            assembly {\r\n                aPos := add(result, 32)\r\n                bPos := add(result2, 64)\r\n            }\r\n            copyWords(bPos, aPos, result.length);\r\n            assembly {\r\n                mstore(add(result2, 32), 1)\r\n            }\r\n            return (result2, 1);\r\n        }\r\n        return (result, cmp);\r\n    }\r\n\r\n    function square(bytes memory x) public returns (bytes memory ret) {\r\n        bytes memory largeN = shiftLeft(x, int(x.length) * 8);\r\n        return modexp(x, toBigInt(2), largeN);\r\n    }\r\n\r\n    // ab = ((a+b)^2-(a-b)^2) / 4\r\n    function multiply(bytes memory a, bytes memory b) public returns (bytes memory ret) {\r\n        bytes memory two = toBigInt(2);\r\n        bytes memory sum = bigadd(a, b); // a+b\r\n        bytes memory diff = bigsub(a, b); // abs(a-b)\r\n        bytes memory largeN = shiftLeft(sum, int(sum.length) * 8);\r\n        bytes memory sumSquared = modexp(sum, two, largeN); //(a+b)^2\r\n        bytes memory diffSquared = modexp(diff, two, largeN); //(a-b)^2\r\n        bytes memory ab4 = bigsub(sumSquared, diffSquared);\r\n        ret = shiftLeft(ab4, -2);\r\n    }\r\n\r\n    function modmul(bytes memory a, bytes memory b, bytes memory N) internal returns (bytes memory ret) {\r\n        return bmod(multiply(a,b), N);\r\n    }\r\n\r\n    function copyWords(uint dest, uint src, uint len) internal pure{\r\n        for(; len >= 32; len -= 32) {\r\n            assembly {\r\n                mstore(dest, mload(src))\r\n            }\r\n            dest += 32;\r\n            src += 32;\r\n        }\r\n    }\r\n\r\n    function trim(bytes memory x)internal pure returns (bytes memory y) {\r\n        require(x.length % 32 == 0);\r\n        bool isZero = true;\r\n        uint zeroCount;\r\n        for (uint i = 0; i < x.length; i += 32) {\r\n            assembly {\r\n                isZero := iszero(mload(add(x, add(i, 32))))\r\n            }\r\n            if (isZero) {\r\n                zeroCount += 32;\r\n            } else {\r\n                break;\r\n            }\r\n        }\r\n        assembly {\r\n            y := add(x, zeroCount)\r\n            mstore(y, sub(mload(x), zeroCount))\r\n        }\r\n    }\r\n\r\n    function shiftBitsRight(bytes memory x, uint bitShift) public pure returns (bytes memory y) {\r\n        if (bitShift == 0) return x;\r\n        require(bitShift <= 255);\r\n        require(x.length % 32 == 0);\r\n\r\n        y = new bytes(x.length);\r\n\r\n        uint maskRight = (uint(1) << bitShift) - 1; // mask to get only the lower X bits\r\n        uint multiplyRight = 2 ** (256 - bitShift);\r\n        uint divideRemaining = 2 ** bitShift;\r\n        for (uint i = 0; i < x.length; i += 32) {\r\n            uint value;\r\n            uint _dst;\r\n            assembly {\r\n                value := div(and(not(maskRight), mload(add(x, add(i, 32)))), divideRemaining)\r\n            }\r\n            if (i != 0) {\r\n                // What moved from the previous word to this one\r\n                assembly {\r\n                    value := add(value, mul(and(maskRight, mload(add(x, i))), multiplyRight))\r\n                }\r\n            }\r\n            assembly {\r\n                _dst := add(y, add(i, 32))\r\n                mstore(_dst, value)\r\n            }\r\n        }\r\n    }\r\n\r\n    function shiftLeft(bytes memory x, int n) public pure returns (bytes memory ret) {\r\n        // New bitlength = x.length * 8 + n; round up to multiple of 256\r\n        int newBitLength = ((255 + n + int(x.length * 8)) / 256) * 256;\r\n        if (newBitLength <= 0) return new bytes(0);\r\n\r\n        ret = new bytes(uint(newBitLength) / 8);\r\n        uint copy_len = x.length < ret.length ? x.length : ret.length;\r\n        uint _input;\r\n        uint _output;\r\n        assembly {\r\n            _input := add(x, 32)\r\n            _output := add(ret, 32)\r\n        }\r\n\r\n        copyWords(_output, _input, copy_len);\r\n\r\n        // Apply bit shift (between 0 and 255 to the right)\r\n        uint bitShift = uint(newBitLength - int(x.length * 8) - n);\r\n        ret = trim(shiftBitsRight(ret, bitShift));\r\n    }\r\n\r\n    function bmod(bytes memory _x, bytes memory _mod) public returns (bytes memory ret) {\r\n        return modexp(_x, toBigInt(1), _mod);\r\n    }\r\n\r\n    // Wrapper for built-in bigint_modexp, modified from https://gist.github.com/lionello/ee285ea220dc64517499c971ff92a2a5\r\n    function modexp(bytes memory _base, bytes memory _exp, bytes memory _mod) public payable returns (bytes memory) {\r\n\r\n        uint256 bl = _base.length;\r\n        uint256 el = _exp.length;\r\n        uint256 ml = _mod.length;\r\n        bytes memory ret = new bytes(ml);\r\n        uint inputSize = 96 + bl + el + ml;\r\n        bytes memory rawInput = new bytes(inputSize);\r\n\r\n        assembly {\r\n            let freemem := add(rawInput, 32)\r\n            mstore(freemem, bl)\r\n            mstore(add(freemem,32), el)\r\n            mstore(add(freemem,64), ml)\r\n\r\n            let x := call(450, 0x4, 0, add(_base,32), bl, add(freemem,96), bl)\r\n            x := call(450, 0x4, 0, add(_exp,32), el, add(freemem,add(96, bl)), el)\r\n            x := call(450, 0x4, 0, add(_mod,32), ml, add(freemem,sub(inputSize, ml)), ml)\r\n\r\n            x := call(sub(gas, 1350), 0x5, 0, freemem, inputSize, add(ret, 32), ml)\r\n        }\r\n\r\n        require(rawInput.length == 96 + bl + el + ml);\r\n        return ret;\r\n    }\r\n      function toBytes(uint256 x) internal returns (bytes memory b) {\r\n      b = new bytes(32);\r\n      assembly { mstore(add(b, 32), x) }\r\n  }\r\n\r\n    function bytesToUint(bytes memory b) public returns (uint256){\r\n      uint256 number;\r\n      for(uint i=0;i<b.length;i++){\r\n        number = number + uint256(uint8(b[i]))*(2**(8*(b.length-(i+1))));\r\n      }\r\n      return number;\r\n    }\r\n}",
  "sourcePath": "C:\\Nick\\ethnyc\\zksupply\\contracts\\RangeProofValidator.sol",
  "compiler": {
    "name": "solc",
    "version": "0.5.0+commit.1d4f565a.Emscripten.clang"
  },
  "schemaVersion": "3.0.1",
  "updatedAt": "2019-05-19T01:06:07.902Z",
  "devdoc": {
    "methods": {}
  },
  "userdoc": {
    "methods": {}
  }
}