{
  "contractName": "ZkSensors",
  "abi": [
    {
      "constant": false,
      "inputs": [
        {
          "name": "lower",
          "type": "uint256"
        },
        {
          "name": "upper",
          "type": "uint256"
        },
        {
          "name": "commitment",
          "type": "bytes"
        },
        {
          "name": "proof",
          "type": "bytes"
        }
      ],
      "name": "validate",
      "outputs": [
        {
          "name": "",
          "type": "bool"
        }
      ],
      "payable": false,
      "stateMutability": "nonpayable",
      "type": "function"
    },
    {
      "inputs": [],
      "payable": false,
      "stateMutability": "nonpayable",
      "type": "constructor"
    },
    {
      "constant": false,
      "inputs": [
        {
          "name": "_id",
          "type": "uint256"
        },
        {
          "name": "_hash",
          "type": "bytes32"
        }
      ],
      "name": "senssorReport",
      "outputs": [],
      "payable": false,
      "stateMutability": "nonpayable",
      "type": "function"
    }
  ],
  "bytecode": "0x608060405234801561001057600080fd5b5033600360006101000a81548173ffffffffffffffffffffffffffffffffffffffff021916908373ffffffffffffffffffffffffffffffffffffffff160217905550611f69806100616000396000f3fe60806040526004361061004c576000357c0100000000000000000000000000000000000000000000000000000000900463ffffffff1680637366fe4e14610051578063a61d7e3e14610096575b600080fd5b34801561005d57600080fd5b506100946004803603604081101561007457600080fd5b810190808035906020019092919080359060200190929190505050610221565b005b3480156100a257600080fd5b50610207600480360360808110156100b957600080fd5b810190808035906020019092919080359060200190929190803590602001906401000000008111156100ea57600080fd5b8201836020820111156100fc57600080fd5b8035906020019184600183028401116401000000008311171561011e57600080fd5b91908080601f016020809104026020016040519081016040528093929190818152602001838380828437600081840152601f19601f8201169050808301925050505050505091929192908035906020019064010000000081111561018157600080fd5b82018360208201111561019357600080fd5b803590602001918460018302840111640100000000831117156101b557600080fd5b91908080601f016020809104026020016040519081016040528093929190818152602001838380828437600081840152601f19601f82011690508083019250505050505050919291929050505061023c565b604051808215151515815260200191505060405180910390f35b80600080848152602001908152602001600020819055505050565b60006060600760405190808252806020026020018201604052801561027557816020015b60608152602001906001900390816102605790505b5090506060601f6040519080825280602002602001820160405280156102af57816020015b606081526020019060019003908161029a5790505b509050606060008060606000808a955060008090505b88518110156103b95786818151811015156102dc57fe5b90602001906020020151915086818151811015156102f657fe5b9060200190602002015160018a5103821461032b57876001830181518110151561031c57fe5b9060200190602002015161032e565b8c515b039250826040519080825280601f01601f1916602001820160405280156103645781602001600182028038833980820191505090505b5093506020840195508160208d010194506108008310151561038557600080fd5b6103908686856104d6565b83898281518110151561039f57fe5b9060200190602002018190525080806001019150506102c5565b5089955060008090505b87518110156104b75786818151811015156103da57fe5b90602001906020020151915086818151811015156103f457fe5b906020019060200201516001895103821461042957876001830181518110151561041a57fe5b9060200190602002015161042c565b8b515b039250826040519080825280601f01601f1916602001820160405280156104625781602001600182028038833980820191505090505b5093506020840195508160208c010194506120008310151561048357600080fd5b61048e8686856104d6565b83888281518110151561049d57fe5b9060200190602002018190525080806001019150506103c3565b506104c48d8d8a8a610501565b98505050505050505050949350505050565b5b6020811015156104fc57815183526020830192506020820191506020810390506104d7565b505050565b60006060600b60405190808252806020026020018201604052801561053a57816020015b60608152602001906001900390816105255790505b509050600061054a87870361146f565b6001602860800101600202019050610561876114b8565b82600081518110151561057057fe5b90602001906020020181905250610586866114b8565b82600181518110151561059557fe5b906020019060200201819052506105ef8560008151811015156105b457fe5b906020019060200201516105d16105cb60016114b8565b846114fc565b8760018151811015156105e057fe5b90602001906020020151611602565b8560008151811015156105fe57fe5b9060200190602002018190525061065885600481518110151561061d57fe5b9060200190602002015161063a61063460016114b8565b846114fc565b87600181518110151561064957fe5b90602001906020020151611602565b85600481518110151561066757fe5b9060200190602002018190525061069682600081518110151561068657fe5b90602001906020020151826114fc565b8260008151811015156106a557fe5b906020019060200201819052506106d48260018151811015156106c457fe5b90602001906020020151826114fc565b8260018151811015156106e357fe5b906020019060200201819052506107076106fe8888036114b8565b600283016114fc565b82600481518110151561071657fe5b9060200190602002018190525061075d84601e81518110151561073557fe5b9060200190602002015183600481518110151561074e57fe5b9060200190602002015161171d565b151561076e57600092505050611467565b6107fb85600081518110151561078057fe5b906020019060200201516107dd87600581518110151561079c57fe5b906020019060200201518560008151811015156107b557fe5b906020019060200201518960018151811015156107ce57fe5b90602001906020020151611602565b8760018151811015156107ec57fe5b90602001906020020151611772565b82600281518110151561080a57fe5b906020019060200201819052506108a461086d86600281518110151561082c57fe5b9060200190602002015184600181518110151561084557fe5b9060200190602002015188600181518110151561085e57fe5b90602001906020020151611602565b86600481518110151561087c57fe5b9060200190602002015187600181518110151561089557fe5b90602001906020020151611772565b8260038151811015156108b357fe5b906020019060200201819052506109138560008151811015156108d257fe5b906020019060200201518660048151811015156108eb57fe5b9060200190602002015187600181518110151561090457fe5b90602001906020020151611790565b151561092457600092505050611467565b61097785600281518110151561093657fe5b9060200190602002015186600581518110151561094f57fe5b9060200190602002015187600181518110151561096857fe5b90602001906020020151611790565b151561098857600092505050611467565b6109db85600381518110151561099a57fe5b906020019060200201518660068151811015156109b357fe5b906020019060200201518760018151811015156109cc57fe5b90602001906020020151611790565b15156109ec57600092505050611467565b610a3f8460008151811015156109fe57fe5b90602001906020020151856012815181101515610a1757fe5b90602001906020020151876001815181101515610a3057fe5b90602001906020020151611790565b1515610a5057600092505050611467565b610aa3846001815181101515610a6257fe5b90602001906020020151856013815181101515610a7b57fe5b90602001906020020151876001815181101515610a9457fe5b90602001906020020151611790565b1515610ab457600092505050611467565b610b07846002815181101515610ac657fe5b90602001906020020151856014815181101515610adf57fe5b90602001906020020151876001815181101515610af857fe5b90602001906020020151611790565b1515610b1857600092505050611467565b610b6b846007815181101515610b2a57fe5b90602001906020020151856015815181101515610b4357fe5b90602001906020020151876001815181101515610b5c57fe5b90602001906020020151611790565b1515610b7c57600092505050611467565b610bcf826002815181101515610b8e57fe5b90602001906020020151856012815181101515610ba757fe5b90602001906020020151876001815181101515610bc057fe5b90602001906020020151611772565b826002815181101515610bde57fe5b90602001906020020181905250610c3e826003815181101515610bfd57fe5b90602001906020020151856013815181101515610c1657fe5b90602001906020020151876001815181101515610c2f57fe5b90602001906020020151611772565b826003815181101515610c4d57fe5b90602001906020020181905250610cad826002815181101515610c6c57fe5b90602001906020020151856016815181101515610c8557fe5b90602001906020020151876001815181101515610c9e57fe5b90602001906020020151611790565b1515610cbe57600092505050611467565b610d11826003815181101515610cd057fe5b90602001906020020151856017815181101515610ce957fe5b90602001906020020151876001815181101515610d0257fe5b90602001906020020151611790565b1515610d2257600092505050611467565b6000610d4f856018815181101515610d3657fe5b90602001906020020151610d4a60016114b8565b6117ba565b14610d7257846003815181101515610d6357fe5b90602001906020020151610d8c565b846006815181101515610d8157fe5b906020019060200201515b826005815181101515610d9b57fe5b906020019060200201819052506000610dd5856019815181101515610dbc57fe5b90602001906020020151610dd060016114b8565b6117ba565b14610df857846003815181101515610de957fe5b90602001906020020151610e12565b846006815181101515610e0757fe5b906020019060200201515b826006815181101515610e2157fe5b906020019060200201819052506000610e5b85601a815181101515610e4257fe5b90602001906020020151610e5660016114b8565b6117ba565b14610e7e57846003815181101515610e6f57fe5b90602001906020020151610e98565b846006815181101515610e8d57fe5b906020019060200201515b826007815181101515610ea757fe5b906020019060200201819052506000610ee185601b815181101515610ec857fe5b90602001906020020151610edc60016114b8565b6117ba565b14610f0457846003815181101515610ef557fe5b90602001906020020151610f1e565b846006815181101515610f1357fe5b906020019060200201515b826008815181101515610f2d57fe5b906020019060200201819052506000610f6785601c815181101515610f4e57fe5b90602001906020020151610f6260016114b8565b6117ba565b14610f8a57846003815181101515610f7b57fe5b90602001906020020151610fa4565b846006815181101515610f9957fe5b906020019060200201515b826009815181101515610fb357fe5b906020019060200201819052506000610fed85601d815181101515610fd457fe5b90602001906020020151610fe860016114b8565b6117ba565b146110105784600381518110151561100157fe5b9060200190602002015161102a565b84600681518110151561101f57fe5b906020019060200201515b82600a81518110151561103957fe5b9060200190602002018190525061116185600181518110151561105857fe5b9060200190602002015186600281518110151561107157fe5b9060200190602002015184600581518110151561108a57fe5b906020019060200201518560068151811015156110a357fe5b906020019060200201518860028151811015156110bc57fe5b906020019060200201518960038151811015156110d557fe5b906020019060200201518a60048151811015156110ee57fe5b906020019060200201518b600581518110151561110757fe5b906020019060200201518c600681518110151561112057fe5b906020019060200201518d601281518110151561113957fe5b906020019060200201518e601481518110151561115257fe5b906020019060200201516117d4565b151561117257600092505050611467565b61128d85600181518110151561118457fe5b9060200190602002015186600281518110151561119d57fe5b906020019060200201518460078151811015156111b657fe5b906020019060200201518560088151811015156111cf57fe5b906020019060200201518860078151811015156111e857fe5b9060200190602002015189600881518110151561120157fe5b906020019060200201518a600981518110151561121a57fe5b906020019060200201518b600a81518110151561123357fe5b906020019060200201518c600b81518110151561124c57fe5b906020019060200201518d601381518110151561126557fe5b906020019060200201518e601581518110151561127e57fe5b906020019060200201516117d4565b151561129e57600092505050611467565b61136e84601e8151811015156112b057fe5b906020019060200201518660018151811015156112c957fe5b906020019060200201518760028151811015156112e257fe5b906020019060200201518560098151811015156112fb57fe5b9060200190602002015188601681518110151561131457fe5b9060200190602002015189600c81518110151561132d57fe5b906020019060200201518a600d81518110151561134657fe5b906020019060200201518b600e81518110151561135f57fe5b906020019060200201516117fa565b151561137f57600092505050611467565b61144f84601e81518110151561139157fe5b906020019060200201518660018151811015156113aa57fe5b906020019060200201518760028151811015156113c357fe5b9060200190602002015185600a8151811015156113dc57fe5b906020019060200201518860178151811015156113f557fe5b9060200190602002015189600f81518110151561140e57fe5b906020019060200201518a601081518110151561142757fe5b906020019060200201518b601181518110151561144057fe5b906020019060200201516117fa565b151561146057600092505050611467565b6001925050505b949350505050565b6000806001905060008090505b6101008110156114ab57818410156114985780925050506114b3565b600282029150808060010191505061147c565b506101009150505b919050565b606060206040519080825280601f01601f1916602001820160405280156114ee5781602001600182028038833980820191505090505b509050816020820152919050565b606060006101008060088651028560ff010181151561151757fe5b050290506000811315156115625760006040519080825280601f01601f1916602001820160405280156115595781602001600182028038833980820191505090505b509150506115fc565b60088181151561156e57fe5b046040519080825280601f01601f1916602001820160405280156115a15781602001600182028038833980820191505090505b509150600082518551106115b65782516115b9565b84515b90506000806020870191506020850190506115d58183856104d6565b600086600889510286030390506115f46115ef87836118a6565b611999565b955050505050505b92915050565b60606000845190506000845190506000845190506060816040519080825280601f01601f19166020018201604052801561164b5781602001600182028038833980820191505090505b5090506000828486606001010190506060816040519080825280601f01601f19166020018201604052801561168f5781602001600182028038833980820191505090505b5090506020810186815285602082015284604082015286606082018860208e01600060046101c2f1868860600183018860208e01600060046101c2f190508586850383018760208d01600060046101c2f1905085602086018584600060056105465a03f1905050508385876060010101815114151561170d57600080fd5b8296505050505050509392505050565b600060606117348461172f60016114b8565b611a0c565b9050600061174a61174486611a25565b856117ba565b131580156117695750600061176761176183611a25565b856117ba565b135b91505092915050565b60606117876117818585611a54565b83611af6565b90509392505050565b6000806117b06117a1868686611772565b6117ab60016114b8565b6117ba565b1490509392505050565b60006117c883836001611b14565b90508091505092915050565b60006117e98c8c8a8d8d87898e8e8e8e611d42565b90509b9a5050505050505050505050565b6000606061181b8561181661180f60016114b8565b60806114fc565b611af6565b905060606118366118318b8b8b89898d89611e6a565b611999565b9050600061184d86611848858f611a54565b6117ba565b121580156118725750600061186f8661186a8e60286080016114fc565b6117ba565b13155b80156118965750600061189461188e8380519060200120611eac565b886117ba565b145b9250505098975050505050505050565b606060008214156118b957829050611993565b60ff82111515156118c957600080fd5b6000602084518115156118d857fe5b061415156118e557600080fd5b82516040519080825280601f01601f1916602001820160405280156119195781602001600182028038833980820191505090505b509050600060018360019060020a020390506000836101000360020a905060008460020a905060008090505b865181101561198e5760008083602084018a01518719160491506000831415156119765784838a0151871602820191505b60208301870190508181525050602081019050611945565b505050505b92915050565b60606000602083518115156119aa57fe5b061415156119b757600080fd5b600060019050600080600090505b84518110156119f9576020810185015115925082156119e9576020820191506119ee565b6119f9565b6020810190506119c5565b5080840192508084510383525050919050565b6060611a1a83836000611b14565b508091505092915050565b606080611a368360088551026114fc565b9050611a4c83611a4660026114b8565b83611602565b915050919050565b606080611a6160026114b8565b90506060611a6f8585611a0c565b90506060611a7d8686611ef0565b90506060611a8f8360088551026114fc565b90506060611a9e848684611602565b90506060611aad848785611602565b90506060611abb8383611ef0565b9050611ae7817ffffffffffffffffffffffffffffffffffffffffffffffffffffffffffffffffe6114fc565b97505050505050505092915050565b6060611b0c83611b0660016114b8565b84611602565b905092915050565b606060008351855111611b28578351611b2b565b84515b6040519080825280601f01601f191660200182016040528015611b5d5781602001600182028038833980820191505090505b509150600080600060208801925060208701915060208501905060006020895103840190506000602089510384019050600080905060006020895186010390505b8481101515611c5e57600080905060008090508886101515611bbf57855191505b8785101515611bcd57845190505b8b15611c075783818303038352818183031180611bef57508082038482840303115b611bfa576000611bfd565b60015b60ff169350611c37565b83818301018352818183011080611c2357508082018482840101105b611c2e576000611c31565b60015b60ff1693505b8082141515611c4557600199505b6020860395506020850394505050602081039050611b9e565b506001811415611d2d578815611cbc57611c89611c7a89611f09565b611c8460016114b8565b611a0c565b7fffffffffffffffffffffffffffffffffffffffffffffffffffffffffffffffff80905097509750505050505050611d3a565b606060208951016040519080825280601f01601f191660200182016040528015611cf55781602001600182028038833980820191505090505b509050602089019350604081019250611d1083858b516104d6565b600160208201528060018090509850985050505050505050611d3a565b8787975097505050505050505b935093915050565b60006060611d5d611d588e8e8d89898e8d611e6a565b611999565b90506060611d78611d738f8e8d8a898e8e611e6a565b611999565b90506000611e56611e5084846040516020018083805190602001908083835b602083101515611dbc5780518252602082019150602081019050602083039250611d97565b6001836020036101000a03801982511681845116808217855250505050505090500182805190602001908083835b602083101515611e0f5780518252602082019150602081019050602083039250611dea565b6001836020036101000a0380198251168184511680821785525050505050509050019250505060405160208183030381529060405280519060200120611eac565b896117ba565b14925050509b9a5050505050505050505050565b6060611e9f611e8e611e7d89888c611602565b611e8889888d611602565b8b611772565b611e9985858c611602565b8a611772565b9050979650505050505050565b606060206040519080825280601f01601f191660200182016040528015611ee25781602001600182028038833980820191505090505b509050816020820152919050565b6060611efe83836001611b14565b508091505092915050565b60606000806020840191508351820190505b80821015611f33578151198252602082019150611f1b565b839250505091905056fea165627a7a72305820e97c92d647d04be724b0bcebf113c0e9e213776b3fa9b7744f392a95e4d7b4970029",
  "source": "pragma solidity >=0.4.21 <0.6.0;\n\n//import \"chainlink/contracts/ChainlinkClient.sol\";\nimport \"./RangeProofValidator.sol\";\n\ncontract ZkSensors is RangeProofValidator{\n  mapping(uint => bytes32) idToSensorReport;\n  mapping(uint => bytes) idToZkProof;\n  mapping(uint => bool) isVerified;\n  address owner;\n\n\n\n  constructor() public {\n    owner = msg.sender;\n  }\n\n  modifier restricted() {\n    if (msg.sender == owner) _;\n  }\n\n  function senssorReport(uint _id, bytes32 _hash) public {\n    idToSensorReport[_id] = _hash;\n  }\n\n  // function submitProof(bytes memory _zkproof) public{\n\n\n\n  // }\n\n  // function verifyProof(uint _id) public returns(bool){\n\n  // }\n\n\n}\n",
  "sourcePath": "C:/Nick/ethnyc/zksupply/contracts/ZkSensors.sol",
  "compiler": {
    "name": "solc",
    "version": "0.5.0+commit.1d4f565a.Emscripten.clang"
  },
  "schemaVersion": "3.0.1",
  "updatedAt": "2019-05-18T14:38:32.596Z",
  "devdoc": {
    "methods": {}
  },
  "userdoc": {
    "methods": {}
  }
}