{
  "contractName": "ZkSensors",
  "abi": [
    {
      "anonymous": false,
      "inputs": [
        {
          "indexed": false,
          "name": "_id",
          "type": "bytes32"
        },
        {
          "indexed": false,
          "name": "_tc1",
          "type": "uint256"
        },
        {
          "indexed": false,
          "name": "_tc2",
          "type": "uint256"
        },
        {
          "indexed": false,
          "name": "_oc1",
          "type": "uint256"
        },
        {
          "indexed": false,
          "name": "_oc2",
          "type": "uint256"
        }
      ],
      "name": "SensorReport",
      "type": "event"
    },
    {
      "anonymous": false,
      "inputs": [
        {
          "indexed": false,
          "name": "_id",
          "type": "bytes32"
        },
        {
          "indexed": false,
          "name": "_proof",
          "type": "bytes"
        }
      ],
      "name": "ProofStored",
      "type": "event"
    },
    {
      "anonymous": false,
      "inputs": [
        {
          "indexed": false,
          "name": "_id",
          "type": "bytes32"
        },
        {
          "indexed": false,
          "name": "_proof",
          "type": "bytes"
        }
      ],
      "name": "FailedProof",
      "type": "event"
    },
    {
      "constant": false,
      "inputs": [
        {
          "name": "_id",
          "type": "bytes32"
        },
        {
          "name": "_tc1",
          "type": "uint256"
        },
        {
          "name": "_tc2",
          "type": "uint256"
        },
        {
          "name": "_oc1",
          "type": "uint256"
        },
        {
          "name": "_oc2",
          "type": "uint256"
        }
      ],
      "name": "sensorReport",
      "outputs": [],
      "payable": false,
      "stateMutability": "nonpayable",
      "type": "function"
    },
    {
      "constant": false,
      "inputs": [
        {
          "name": "_id",
          "type": "bytes32"
        },
        {
          "name": "_proof",
          "type": "bytes"
        }
      ],
      "name": "storeProof",
      "outputs": [
        {
          "name": "res",
          "type": "bool"
        }
      ],
      "payable": false,
      "stateMutability": "nonpayable",
      "type": "function"
    },
    {
      "constant": true,
      "inputs": [],
      "name": "getAllIds",
      "outputs": [
        {
          "name": "",
          "type": "bytes32[]"
        }
      ],
      "payable": false,
      "stateMutability": "view",
      "type": "function"
    },
    {
      "constant": true,
      "inputs": [],
      "name": "getSensorIdsLength",
      "outputs": [
        {
          "name": "",
          "type": "uint256"
        }
      ],
      "payable": false,
      "stateMutability": "view",
      "type": "function"
    },
    {
      "constant": true,
      "inputs": [
        {
          "name": "_id",
          "type": "bytes32"
        },
        {
          "name": "_index",
          "type": "uint256"
        }
      ],
      "name": "getDetailsByIdAndIndex",
      "outputs": [
        {
          "name": "",
          "type": "uint256"
        },
        {
          "name": "",
          "type": "uint256"
        },
        {
          "name": "",
          "type": "uint256"
        },
        {
          "name": "",
          "type": "uint256"
        }
      ],
      "payable": false,
      "stateMutability": "view",
      "type": "function"
    },
    {
      "constant": true,
      "inputs": [
        {
          "name": "_id",
          "type": "bytes32"
        }
      ],
      "name": "getNumberOfReportsById",
      "outputs": [
        {
          "name": "",
          "type": "uint256"
        }
      ],
      "payable": false,
      "stateMutability": "view",
      "type": "function"
    },
    {
      "constant": true,
      "inputs": [
        {
          "name": "_id",
          "type": "bytes32"
        }
      ],
      "name": "getZkProof",
      "outputs": [
        {
          "name": "",
          "type": "bytes"
        }
      ],
      "payable": false,
      "stateMutability": "view",
      "type": "function"
    }
  ],
  "bytecode": "0x608060405234801561001057600080fd5b50610abb806100206000396000f3fe608060405260043610610083576000357c0100000000000000000000000000000000000000000000000000000000900463ffffffff1680633e4129cd1461008857806376297485146100c5578063a77992f4146100ee578063aaa44e5c1461012e578063b2b1228714610159578063c743d10c14610196578063e8143cfe146101d3575b600080fd5b34801561009457600080fd5b506100af60048036036100aa919081019061066a565b6101fe565b6040516100bc9190610851565b60405180910390f35b3480156100d157600080fd5b506100ec60048036036100e791908101906106fa565b610267565b005b3480156100fa57600080fd5b50610115600480360361011091908101906106be565b610388565b604051610125949392919061092c565b60405180910390f35b34801561013a57600080fd5b506101436103e5565b604051610150919061082f565b60405180910390f35b34801561016557600080fd5b50610180600480360361017b9190810190610641565b61043d565b60405161018d91906108ef565b60405180910390f35b3480156101a257600080fd5b506101bd60048036036101b89190810190610641565b6104f2565b6040516101ca9190610911565b60405180910390f35b3480156101df57600080fd5b506101e8610511565b6040516101f59190610911565b60405180910390f35b60008160016000858152602001908152602001600020908051906020019061022792919061051e565b507f9318e276a703f49128b07bbab294affa01a4eb684acf24e9bc2b4c0dab9da62c838360405161025992919061086c565b60405180910390a192915050565b600080600087815260200190815260200160002080549050905060008087815260200190815260200160002060806040519081016040528087815260200186815260200185815260200184815250908060018154018082558091505090600182039060005260206000209060040201600090919290919091506000820151816000015560208201518160010155604082015181600201556060820151816003015550505060008114156103415760028690806001815401808255809150509060018203906000526020600020016000909192909190915055505b7f0c323b5d94b5ad94b8fc54e94b398c0dda4a91f357df740844bb83a99365481a868686868660405161037895949392919061089c565b60405180910390a1505050505050565b6000806000806000806000888152602001908152602001600020868154811015156103af57fe5b90600052602060002090600402019050806000015481600101548260020154836003015494509450945094505092959194509250565b6060600280548060200260200160405190810160405280929190818152602001828054801561043357602002820191906000526020600020905b81548152602001906001019080831161041f575b5050505050905090565b6060600160008381526020019081526020016000208054600181600116156101000203166002900480601f0160208091040260200160405190810160405280929190818152602001828054600181600116156101000203166002900480156104e65780601f106104bb576101008083540402835291602001916104e6565b820191906000526020600020905b8154815290600101906020018083116104c957829003601f168201915b50505050509050919050565b6000806000838152602001908152602001600020805490509050919050565b6000600280549050905090565b828054600181600116156101000203166002900490600052602060002090601f016020900481019282601f1061055f57805160ff191683800117855561058d565b8280016001018555821561058d579182015b8281111561058c578251825591602001919060010190610571565b5b50905061059a919061059e565b5090565b6105c091905b808211156105bc5760008160009055506001016105a4565b5090565b90565b60006105cf8235610a1a565b905092915050565b600082601f83011215156105ea57600080fd5b81356105fd6105f88261099e565b610971565b9150808252602083016020830185838301111561061957600080fd5b610624838284610a2e565b50505092915050565b60006106398235610a24565b905092915050565b60006020828403121561065357600080fd5b6000610661848285016105c3565b91505092915050565b6000806040838503121561067d57600080fd5b600061068b858286016105c3565b925050602083013567ffffffffffffffff8111156106a857600080fd5b6106b4858286016105d7565b9150509250929050565b600080604083850312156106d157600080fd5b60006106df858286016105c3565b92505060206106f08582860161062d565b9150509250929050565b600080600080600060a0868803121561071257600080fd5b6000610720888289016105c3565b95505060206107318882890161062d565b94505060406107428882890161062d565b93505060606107538882890161062d565b92505060806107648882890161062d565b9150509295509295909350565b600061077c826109d7565b80845260208401935061078e836109ca565b60005b828110156107c0576107a48683516107db565b6107ad826109ed565b9150602086019550600181019050610791565b50849250505092915050565b6107d5816109fa565b82525050565b6107e481610a06565b82525050565b60006107f5826109e2565b808452610809816020860160208601610a3d565b61081281610a70565b602085010191505092915050565b61082981610a10565b82525050565b600060208201905081810360008301526108498184610771565b905092915050565b600060208201905061086660008301846107cc565b92915050565b600060408201905061088160008301856107db565b818103602083015261089381846107ea565b90509392505050565b600060a0820190506108b160008301886107db565b6108be6020830187610820565b6108cb6040830186610820565b6108d86060830185610820565b6108e56080830184610820565b9695505050505050565b6000602082019050818103600083015261090981846107ea565b905092915050565b60006020820190506109266000830184610820565b92915050565b60006080820190506109416000830187610820565b61094e6020830186610820565b61095b6040830185610820565b6109686060830184610820565b95945050505050565b6000604051905081810181811067ffffffffffffffff8211171561099457600080fd5b8060405250919050565b600067ffffffffffffffff8211156109b557600080fd5b601f19601f8301169050602081019050919050565b6000602082019050919050565b600081519050919050565b600081519050919050565b6000602082019050919050565b60008115159050919050565b6000819050919050565b6000819050919050565b6000819050919050565b6000819050919050565b82818337600083830152505050565b60005b83811015610a5b578082015181840152602081019050610a40565b83811115610a6a576000848401525b50505050565b6000601f19601f830116905091905056fea265627a7a723058203d8269f69640f31ae9972b26b4bf6e5f69d4f30fcde72218b75a99dd443c20b26c6578706572696d656e74616cf50037",
  "source": "pragma solidity >=0.4.21 <0.6.0;\npragma experimental ABIEncoderV2; // solium-disable-line no-experimental \n//import \"chainlink/contracts/ChainlinkClient.sol\";\n//import \"./RangeProofValidator.sol\";\n\ncontract ZkSensors{\n\n  struct Details {\n        uint timestamp_c1;\n        uint timestamp_c2;\n        uint orientation_c1;\n        uint orientation_c2;\n  }\n\n\n  mapping(bytes32 => Details[]) idToSensorReport;\n  mapping(bytes32 => bytes) idToZkProof;\n  bytes32[] sensorIds;\n\n  event SensorReport(bytes32 _id,uint _tc1, uint _tc2, uint _oc1, uint _oc2);\n  event ProofStored(bytes32 _id, bytes _proof);\n  event FailedProof(bytes32 _id, bytes _proof);\n\n  function sensorReport(bytes32 _id, uint _tc1, uint _tc2, uint _oc1, uint _oc2) public {\n    uint len = idToSensorReport[_id].length;\n    idToSensorReport[_id].push(Details({\n      timestamp_c1: _tc1,\n      timestamp_c2: _tc2,\n      orientation_c1: _oc1,\n      orientation_c2: _oc2\n    }));\n    if(len == 0){\n         sensorIds.push(_id); \n    }\n    emit SensorReport(_id, _tc1,_tc2,_oc1,_oc2);\n  }\n\n\n  function storeProof(bytes32 _id,bytes memory _proof) public returns(bool res){\n    idToZkProof[_id] = _proof;\n    emit ProofStored(_id,_proof);\n  }\n\n  function getAllIds() public view returns(bytes32[] memory){\n    return sensorIds;\n  }\n\n    function getSensorIdsLength() public view returns(uint){\n    return sensorIds.length;\n  }\n\n  function getDetailsByIdAndIndex(bytes32 _id, uint _index) public view returns(uint,uint,uint,uint){\n    Details storage _d =  idToSensorReport[_id][_index];\n    return (_d.timestamp_c1,_d.timestamp_c2,_d.orientation_c1,_d.orientation_c2);\n  }\n\n  function getNumberOfReportsById(bytes32 _id) public view returns(uint){\n    return idToSensorReport[_id].length;\n  }\n  function getZkProof(bytes32 _id) public view returns(bytes memory){\n    return idToZkProof[_id];\n  }\n}\n",
  "sourcePath": "C:/Nick/ethnyc/zksupply/contracts/ZkSensors.sol",
  "compiler": {
    "name": "solc",
    "version": "0.5.0+commit.1d4f565a.Emscripten.clang"
  },
  "schemaVersion": "3.0.1",
  "updatedAt": "2019-05-19T01:32:56.839Z",
  "devdoc": {
    "methods": {}
  },
  "userdoc": {
    "methods": {}
  }
}