{
  "contractName": "ZkSensors",
  "abi": [
    {
      "constant": false,
      "inputs": [
        {
          "name": "_x",
          "type": "bytes"
        },
        {
          "name": "_mod",
          "type": "bytes"
        }
      ],
      "name": "bmod",
      "outputs": [
        {
          "name": "ret",
          "type": "bytes"
        }
      ],
      "payable": false,
      "stateMutability": "nonpayable",
      "type": "function"
    },
    {
      "constant": false,
      "inputs": [
        {
          "name": "x",
          "type": "bytes"
        }
      ],
      "name": "square",
      "outputs": [
        {
          "name": "ret",
          "type": "bytes"
        }
      ],
      "payable": false,
      "stateMutability": "nonpayable",
      "type": "function"
    },
    {
      "constant": false,
      "inputs": [
        {
          "name": "a",
          "type": "bytes"
        },
        {
          "name": "b",
          "type": "bytes"
        }
      ],
      "name": "bigadd",
      "outputs": [
        {
          "name": "ret",
          "type": "bytes"
        }
      ],
      "payable": false,
      "stateMutability": "nonpayable",
      "type": "function"
    },
    {
      "constant": true,
      "inputs": [
        {
          "name": "x",
          "type": "bytes"
        },
        {
          "name": "n",
          "type": "int256"
        }
      ],
      "name": "shiftLeft",
      "outputs": [
        {
          "name": "ret",
          "type": "bytes"
        }
      ],
      "payable": false,
      "stateMutability": "pure",
      "type": "function"
    },
    {
      "constant": false,
      "inputs": [
        {
          "name": "_base",
          "type": "bytes"
        },
        {
          "name": "_exp",
          "type": "bytes"
        },
        {
          "name": "_mod",
          "type": "bytes"
        }
      ],
      "name": "modexp",
      "outputs": [
        {
          "name": "",
          "type": "bytes"
        }
      ],
      "payable": true,
      "stateMutability": "payable",
      "type": "function"
    },
    {
      "constant": false,
      "inputs": [
        {
          "name": "a",
          "type": "bytes"
        },
        {
          "name": "b",
          "type": "bytes"
        }
      ],
      "name": "multiply",
      "outputs": [
        {
          "name": "ret",
          "type": "bytes"
        }
      ],
      "payable": false,
      "stateMutability": "nonpayable",
      "type": "function"
    },
    {
      "constant": false,
      "inputs": [
        {
          "name": "a",
          "type": "bytes"
        },
        {
          "name": "b",
          "type": "bytes"
        }
      ],
      "name": "bigsub",
      "outputs": [
        {
          "name": "ret",
          "type": "bytes"
        }
      ],
      "payable": false,
      "stateMutability": "nonpayable",
      "type": "function"
    },
    {
      "constant": false,
      "inputs": [
        {
          "name": "lower",
          "type": "uint256"
        },
        {
          "name": "upper",
          "type": "uint256"
        },
        {
          "name": "commitment",
          "type": "bytes"
        },
        {
          "name": "proof",
          "type": "bytes"
        }
      ],
      "name": "validate",
      "outputs": [
        {
          "name": "",
          "type": "bool"
        }
      ],
      "payable": false,
      "stateMutability": "nonpayable",
      "type": "function"
    },
    {
      "constant": true,
      "inputs": [
        {
          "name": "x",
          "type": "uint256"
        }
      ],
      "name": "toBigInt",
      "outputs": [
        {
          "name": "ret",
          "type": "bytes"
        }
      ],
      "payable": false,
      "stateMutability": "pure",
      "type": "function"
    },
    {
      "constant": true,
      "inputs": [
        {
          "name": "x",
          "type": "bytes"
        },
        {
          "name": "bitShift",
          "type": "uint256"
        }
      ],
      "name": "shiftBitsRight",
      "outputs": [
        {
          "name": "y",
          "type": "bytes"
        }
      ],
      "payable": false,
      "stateMutability": "pure",
      "type": "function"
    },
    {
      "anonymous": false,
      "inputs": [
        {
          "indexed": false,
          "name": "_id",
          "type": "bytes32"
        },
        {
          "indexed": false,
          "name": "_tc1",
          "type": "uint256"
        },
        {
          "indexed": false,
          "name": "_tc2",
          "type": "uint256"
        },
        {
          "indexed": false,
          "name": "_oc1",
          "type": "uint256"
        },
        {
          "indexed": false,
          "name": "_oc2",
          "type": "uint256"
        }
      ],
      "name": "SensorReport",
      "type": "event"
    },
    {
      "anonymous": false,
      "inputs": [
        {
          "indexed": false,
          "name": "_id",
          "type": "bytes32"
        },
        {
          "indexed": false,
          "name": "_proof",
          "type": "bytes"
        }
      ],
      "name": "ProofVerified",
      "type": "event"
    },
    {
      "anonymous": false,
      "inputs": [
        {
          "indexed": false,
          "name": "_id",
          "type": "bytes32"
        },
        {
          "indexed": false,
          "name": "_proof",
          "type": "bytes"
        }
      ],
      "name": "FailedProof",
      "type": "event"
    },
    {
      "anonymous": false,
      "inputs": [
        {
          "indexed": false,
          "name": "_s",
          "type": "string"
        },
        {
          "indexed": false,
          "name": "_u",
          "type": "uint256"
        }
      ],
      "name": "Print",
      "type": "event"
    },
    {
      "constant": false,
      "inputs": [
        {
          "name": "_id",
          "type": "bytes32"
        },
        {
          "name": "_tc1",
          "type": "uint256"
        },
        {
          "name": "_tc2",
          "type": "uint256"
        },
        {
          "name": "_oc1",
          "type": "uint256"
        },
        {
          "name": "_oc2",
          "type": "uint256"
        }
      ],
      "name": "sensorReport",
      "outputs": [],
      "payable": false,
      "stateMutability": "nonpayable",
      "type": "function"
    },
    {
      "constant": false,
      "inputs": [
        {
          "name": "_id",
          "type": "bytes32"
        },
        {
          "name": "_proof",
          "type": "bytes"
        }
      ],
      "name": "verifyProof",
      "outputs": [
        {
          "name": "res",
          "type": "bool"
        }
      ],
      "payable": false,
      "stateMutability": "nonpayable",
      "type": "function"
    },
    {
      "constant": false,
      "inputs": [
        {
          "name": "_tc1",
          "type": "uint256"
        },
        {
          "name": "_tc2",
          "type": "uint256"
        },
        {
          "name": "_oc1",
          "type": "uint256"
        },
        {
          "name": "_oc2",
          "type": "uint256"
        }
      ],
      "name": "generateCommitment",
      "outputs": [
        {
          "name": "res",
          "type": "bytes"
        }
      ],
      "payable": false,
      "stateMutability": "nonpayable",
      "type": "function"
    },
    {
      "constant": true,
      "inputs": [],
      "name": "getAllIds",
      "outputs": [
        {
          "name": "",
          "type": "bytes32[]"
        }
      ],
      "payable": false,
      "stateMutability": "view",
      "type": "function"
    },
    {
      "constant": true,
      "inputs": [],
      "name": "getSensorIdsLength",
      "outputs": [
        {
          "name": "",
          "type": "uint256"
        }
      ],
      "payable": false,
      "stateMutability": "view",
      "type": "function"
    },
    {
      "constant": true,
      "inputs": [
        {
          "name": "_id",
          "type": "bytes32"
        },
        {
          "name": "_index",
          "type": "uint256"
        }
      ],
      "name": "getDetailsByIdAndIndex",
      "outputs": [
        {
          "components": [
            {
              "name": "timestamp_c1",
              "type": "uint256"
            },
            {
              "name": "timestamp_c2",
              "type": "uint256"
            },
            {
              "name": "orientation_c1",
              "type": "uint256"
            },
            {
              "name": "orientation_c2",
              "type": "uint256"
            }
          ],
          "name": "",
          "type": "tuple"
        }
      ],
      "payable": false,
      "stateMutability": "view",
      "type": "function"
    },
    {
      "constant": true,
      "inputs": [
        {
          "name": "_id",
          "type": "bytes32"
        }
      ],
      "name": "getNumberOfReportsById",
      "outputs": [
        {
          "name": "",
          "type": "uint256"
        }
      ],
      "payable": false,
      "stateMutability": "view",
      "type": "function"
    }
  ],
  "bytecode": "0x608060405234801561001057600080fd5b5061316a806100206000396000f3fe6080604052600436106100f1576000357c0100000000000000000000000000000000000000000000000000000000900463ffffffff16806344f94bda146100f657806348203b071461013357806368b54a3a146101705780636d8e8182146101ad57806376297485146101ea578063830058ab146102135780638b4c9e8314610250578063a4d662d814610280578063a59bc5e8146102bd578063a61d7e3e146102fa578063a6203b4114610337578063a77992f414610374578063aaa44e5c146103b1578063c743d10c146103dc578063dd15012314610419578063e8143cfe14610456578063ff27c47614610481575b600080fd5b34801561010257600080fd5b5061011d60048036036101189190810190612abc565b6104be565b60405161012a9190612f90565b60405180910390f35b34801561013f57600080fd5b5061015a60048036036101559190810190612974565b6104dc565b6040516101679190612ef2565b60405180910390f35b34801561017c57600080fd5b5061019760048036036101929190810190612a7b565b61072f565b6040516101a49190612f90565b60405180910390f35b3480156101b957600080fd5b506101d460048036036101cf9190810190612abc565b61075e565b6040516101e19190612f90565b60405180910390f35b3480156101f657600080fd5b50610211600480360361020c9190810190612a04565b610777565b005b34801561021f57600080fd5b5061023a60048036036102359190810190612bbf565b610847565b6040516102479190612f90565b60405180910390f35b61026a60048036036102659190810190612b28565b61094d565b6040516102779190612f90565b60405180910390f35b34801561028c57600080fd5b506102a760048036036102a29190810190612abc565b610a68565b6040516102b49190612f90565b60405180910390f35b3480156102c957600080fd5b506102e460048036036102df9190810190612abc565b610b0a565b6040516102f19190612f90565b60405180910390f35b34801561030657600080fd5b50610321600480360361031c9190810190612c90565b610b23565b60405161032e9190612ef2565b60405180910390f35b34801561034357600080fd5b5061035e60048036036103599190810190612c67565b610df5565b60405161036b9190612f90565b60405180910390f35b34801561038057600080fd5b5061039b600480360361039691908101906129c8565b610e39565b6040516103a89190612fe0565b60405180910390f35b3480156103bd57600080fd5b506103c6610eaa565b6040516103d39190612ed0565b60405180910390f35b3480156103e857600080fd5b5061040360048036036103fe919081019061294b565b610f02565b6040516104109190612ffb565b60405180910390f35b34801561042557600080fd5b50610440600480360361043b9190810190612d23565b610f21565b60405161044d9190612f90565b60405180910390f35b34801561046257600080fd5b5061046b6110b9565b6040516104789190612ffb565b60405180910390f35b34801561048d57600080fd5b506104a860048036036104a39190810190612c13565b6110c6565b6040516104b59190612f90565b60405180910390f35b60606104d4836104ce6001610df5565b8461094d565b905092915050565b600080600090506000600390506000806000878152602001908152602001600020905060608060008090505b838054905081101561066f5761059c848281548110151561052557fe5b906000526020600020906004020160000154858381548110151561054557fe5b906000526020600020906004020160010154868481548110151561056557fe5b906000526020600020906004020160020154878581548110151561058557fe5b906000526020600020906004020160030154610f21565b925081836040516020018083805190602001908083835b6020831015156105d857805182526020820191506020810190506020830392506105b3565b6001836020036101000a03801982511681845116808217855250505050505090500182805190602001908083835b60208310151561062b5780518252602082019150602081019050602083039250610606565b6001836020036101000a0380198251168184511680821785525050505050509050019250505060405160208183030381529060405291508080600101915050610508565b5061067c8585838a610b23565b955085156106ea5786600160008a815260200190815260200160002090805190602001906106ab9291906127eb565b507f7cbc91a98bfbad119be72975afdebcccc83ff290a0b8f57ac4a833dbb2dabf7388886040516106dd929190612f0d565b60405180910390a1610724565b7ff5a2065c0b13597568e0518d8144fd6639c4f06e130a6cc8fb89b596103e6460888860405161071b929190612f0d565b60405180910390a15b505050505092915050565b606080610740836008855102610847565b9050610756836107506002610df5565b8361094d565b915050919050565b606061076c838360006111b9565b508091505092915050565b6000808681526020019081526020016000206080604051908101604052808681526020018581526020018481526020018381525090806001815401808255809150509060018203906000526020600020906004020160009091929091909150600082015181600001556020820151816001015560408201518160020155606082015181600301555050507f0c323b5d94b5ad94b8fc54e94b398c0dda4a91f357df740844bb83a99365481a8585858585604051610838959493929190612f3d565b60405180910390a15050505050565b606060006101008060088651028560ff010181151561086257fe5b050290506000811315156108ad5760006040519080825280601f01601f1916602001820160405280156108a45781602001600182028038833980820191505090505b50915050610947565b6008818115156108b957fe5b046040519080825280601f01601f1916602001820160405280156108ec5781602001600182028038833980820191505090505b50915060008251855110610901578251610904565b84515b90506000806020870191506020850190506109208183856113e7565b6000866008895102860303905061093f61093a87836110c6565b611412565b955050505050505b92915050565b60606000845190506000845190506000845190506060816040519080825280601f01601f1916602001820160405280156109965781602001600182028038833980820191505090505b5090506000828486606001010190506060816040519080825280601f01601f1916602001820160405280156109da5781602001600182028038833980820191505090505b5090506020810186815285602082015284604082015286606082018860208e01600060046101c2f1868860600183018860208e01600060046101c2f190508586850383018760208d01600060046101c2f1905085602086018584600060056105465a03f19050505083858760600101018151141515610a5857600080fd5b8296505050505050509392505050565b606080610a756002610df5565b90506060610a83858561075e565b90506060610a918686610b0a565b90506060610aa3836008855102610847565b90506060610ab284868461094d565b90506060610ac184878561094d565b90506060610acf8383610b0a565b9050610afb817ffffffffffffffffffffffffffffffffffffffffffffffffffffffffffffffffe610847565b97505050505050505092915050565b6060610b18838360016111b9565b508091505092915050565b600060606007604051908082528060200260200182016040528015610b5c57816020015b6060815260200190600190039081610b475790505b5090506060601f604051908082528060200260200182016040528015610b9657816020015b6060815260200190600190039081610b815790505b509050606060008060606000808a955060008090505b8851811015610ca0578681815181101515610bc357fe5b9060200190602002015191508681815181101515610bdd57fe5b9060200190602002015160018a51038214610c12578760018301815181101515610c0357fe5b90602001906020020151610c15565b8c515b039250826040519080825280601f01601f191660200182016040528015610c4b5781602001600182028038833980820191505090505b5093506020840195508160208d0101945061080083101515610c6c57600080fd5b610c778686856113e7565b838982815181101515610c8657fe5b906020019060200201819052508080600101915050610bac565b508995507f5ecf36f705605fd144b15d76100246c2b9af70ede5b61b9f6b4f2a53c577ee148a51604051610cd49190612fb2565b60405180910390a160008090505b8751811015610dd6578681815181101515610cf957fe5b9060200190602002015191508681815181101515610d1357fe5b9060200190602002015160018951038214610d48578760018301815181101515610d3957fe5b90602001906020020151610d4b565b8b515b039250826040519080825280601f01601f191660200182016040528015610d815781602001600182028038833980820191505090505b5093506020840195508160208c0101945061200083101515610da257600080fd5b610dad8686856113e7565b838882815181101515610dbc57fe5b906020019060200201819052508080600101915050610ce2565b50610de38d8d8a8a611485565b98505050505050505050949350505050565b606060206040519080825280601f01601f191660200182016040528015610e2b5781602001600182028038833980820191505090505b509050816020820152919050565b610e4161286b565b60008084815260200190815260200160002082815481101515610e6057fe5b906000526020600020906004020160806040519081016040529081600082015481526020016001820154815260200160028201548152602001600382015481525050905092915050565b60606002805480602002602001604051908101604052809291908181526020018280548015610ef857602002820191906000526020600020905b815481526020019060010190808311610ee4575b5050505050905090565b6000806000838152602001908152602001600020805490509050919050565b6060610f2c856123f3565b610f35856123f3565b610f3e856123f3565b610f47856123f3565b6040516020018085805190602001908083835b602083101515610f7f5780518252602082019150602081019050602083039250610f5a565b6001836020036101000a03801982511681845116808217855250505050505090500184805190602001908083835b602083101515610fd25780518252602082019150602081019050602083039250610fad565b6001836020036101000a03801982511681845116808217855250505050505090500183805190602001908083835b6020831015156110255780518252602082019150602081019050602083039250611000565b6001836020036101000a03801982511681845116808217855250505050505090500182805190602001908083835b6020831015156110785780518252602082019150602081019050602083039250611053565b6001836020036101000a0380198251168184511680821785525050505050509050019450505050506040516020818303038152906040529050949350505050565b6000600280549050905090565b606060008214156110d9578290506111b3565b60ff82111515156110e957600080fd5b6000602084518115156110f857fe5b0614151561110557600080fd5b82516040519080825280601f01601f1916602001820160405280156111395781602001600182028038833980820191505090505b509050600060018360019060020a020390506000836101000360020a905060008460020a905060008090505b86518110156111ae5760008083602084018a01518719160491506000831415156111965784838a0151871602820191505b60208301870190508181525050602081019050611165565b505050505b92915050565b6060600083518551116111cd5783516111d0565b84515b6040519080825280601f01601f1916602001820160405280156112025781602001600182028038833980820191505090505b509150600080600060208801925060208701915060208501905060006020895103840190506000602089510384019050600080905060006020895186010390505b84811015156113035760008090506000809050888610151561126457855191505b878510151561127257845190505b8b156112ac578381830303835281818303118061129457508082038482840303115b61129f5760006112a2565b60015b60ff1693506112dc565b838183010183528181830110806112c857508082018482840101105b6112d35760006112d6565b60015b60ff1693505b80821415156112ea57600199505b6020860395506020850394505050602081039050611243565b5060018114156113d25788156113615761132e61131f89612437565b6113296001610df5565b61075e565b7fffffffffffffffffffffffffffffffffffffffffffffffffffffffffffffffff809050975097505050505050506113df565b606060208951016040519080825280601f01601f19166020018201604052801561139a5781602001600182028038833980820191505090505b5090506020890193506040810192506113b583858b516113e7565b6001602082015280600180905098509850505050505050506113df565b8787975097505050505050505b935093915050565b5b60208110151561140d57815183526020830192506020820191506020810390506113e8565b505050565b606060006020835181151561142357fe5b0614151561143057600080fd5b600060019050600080600090505b84518110156114725760208101850151159250821561146257602082019150611467565b611472565b60208101905061143e565b5080840192508084510383525050919050565b60006060600b6040519080825280602002602001820160405280156114be57816020015b60608152602001906001900390816114a95790505b50905060006114ce87870361246b565b60016028608001016002020190506114e587610df5565b8260008151811015156114f457fe5b9060200190602002018190525061150a86610df5565b82600181518110151561151957fe5b9060200190602002018190525061157385600081518110151561153857fe5b9060200190602002015161155561154f6001610df5565b84610847565b87600181518110151561156457fe5b9060200190602002015161094d565b85600081518110151561158257fe5b906020019060200201819052506115dc8560048151811015156115a157fe5b906020019060200201516115be6115b86001610df5565b84610847565b8760018151811015156115cd57fe5b9060200190602002015161094d565b8560048151811015156115eb57fe5b9060200190602002018190525061161a82600081518110151561160a57fe5b9060200190602002015182610847565b82600081518110151561162957fe5b9060200190602002018190525061165882600181518110151561164857fe5b9060200190602002015182610847565b82600181518110151561166757fe5b9060200190602002018190525061168b611682888803610df5565b60028301610847565b82600481518110151561169a57fe5b906020019060200201819052506116e184601e8151811015156116b957fe5b906020019060200201518360048151811015156116d257fe5b906020019060200201516124b4565b15156116f2576000925050506123eb565b61177f85600081518110151561170457fe5b9060200190602002015161176187600581518110151561172057fe5b9060200190602002015185600081518110151561173957fe5b9060200190602002015189600181518110151561175257fe5b9060200190602002015161094d565b87600181518110151561177057fe5b90602001906020020151612509565b82600281518110151561178e57fe5b906020019060200201819052506118286117f18660028151811015156117b057fe5b906020019060200201518460018151811015156117c957fe5b906020019060200201518860018151811015156117e257fe5b9060200190602002015161094d565b86600481518110151561180057fe5b9060200190602002015187600181518110151561181957fe5b90602001906020020151612509565b82600381518110151561183757fe5b9060200190602002018190525061189785600081518110151561185657fe5b9060200190602002015186600481518110151561186f57fe5b9060200190602002015187600181518110151561188857fe5b90602001906020020151612527565b15156118a8576000925050506123eb565b6118fb8560028151811015156118ba57fe5b906020019060200201518660058151811015156118d357fe5b906020019060200201518760018151811015156118ec57fe5b90602001906020020151612527565b151561190c576000925050506123eb565b61195f85600381518110151561191e57fe5b9060200190602002015186600681518110151561193757fe5b9060200190602002015187600181518110151561195057fe5b90602001906020020151612527565b1515611970576000925050506123eb565b6119c384600081518110151561198257fe5b9060200190602002015185601281518110151561199b57fe5b906020019060200201518760018151811015156119b457fe5b90602001906020020151612527565b15156119d4576000925050506123eb565b611a278460018151811015156119e657fe5b906020019060200201518560138151811015156119ff57fe5b90602001906020020151876001815181101515611a1857fe5b90602001906020020151612527565b1515611a38576000925050506123eb565b611a8b846002815181101515611a4a57fe5b90602001906020020151856014815181101515611a6357fe5b90602001906020020151876001815181101515611a7c57fe5b90602001906020020151612527565b1515611a9c576000925050506123eb565b611aef846007815181101515611aae57fe5b90602001906020020151856015815181101515611ac757fe5b90602001906020020151876001815181101515611ae057fe5b90602001906020020151612527565b1515611b00576000925050506123eb565b611b53826002815181101515611b1257fe5b90602001906020020151856012815181101515611b2b57fe5b90602001906020020151876001815181101515611b4457fe5b90602001906020020151612509565b826002815181101515611b6257fe5b90602001906020020181905250611bc2826003815181101515611b8157fe5b90602001906020020151856013815181101515611b9a57fe5b90602001906020020151876001815181101515611bb357fe5b90602001906020020151612509565b826003815181101515611bd157fe5b90602001906020020181905250611c31826002815181101515611bf057fe5b90602001906020020151856016815181101515611c0957fe5b90602001906020020151876001815181101515611c2257fe5b90602001906020020151612527565b1515611c42576000925050506123eb565b611c95826003815181101515611c5457fe5b90602001906020020151856017815181101515611c6d57fe5b90602001906020020151876001815181101515611c8657fe5b90602001906020020151612527565b1515611ca6576000925050506123eb565b6000611cd3856018815181101515611cba57fe5b90602001906020020151611cce6001610df5565b612551565b14611cf657846003815181101515611ce757fe5b90602001906020020151611d10565b846006815181101515611d0557fe5b906020019060200201515b826005815181101515611d1f57fe5b906020019060200201819052506000611d59856019815181101515611d4057fe5b90602001906020020151611d546001610df5565b612551565b14611d7c57846003815181101515611d6d57fe5b90602001906020020151611d96565b846006815181101515611d8b57fe5b906020019060200201515b826006815181101515611da557fe5b906020019060200201819052506000611ddf85601a815181101515611dc657fe5b90602001906020020151611dda6001610df5565b612551565b14611e0257846003815181101515611df357fe5b90602001906020020151611e1c565b846006815181101515611e1157fe5b906020019060200201515b826007815181101515611e2b57fe5b906020019060200201819052506000611e6585601b815181101515611e4c57fe5b90602001906020020151611e606001610df5565b612551565b14611e8857846003815181101515611e7957fe5b90602001906020020151611ea2565b846006815181101515611e9757fe5b906020019060200201515b826008815181101515611eb157fe5b906020019060200201819052506000611eeb85601c815181101515611ed257fe5b90602001906020020151611ee66001610df5565b612551565b14611f0e57846003815181101515611eff57fe5b90602001906020020151611f28565b846006815181101515611f1d57fe5b906020019060200201515b826009815181101515611f3757fe5b906020019060200201819052506000611f7185601d815181101515611f5857fe5b90602001906020020151611f6c6001610df5565b612551565b14611f9457846003815181101515611f8557fe5b90602001906020020151611fae565b846006815181101515611fa357fe5b906020019060200201515b82600a815181101515611fbd57fe5b906020019060200201819052506120e5856001815181101515611fdc57fe5b90602001906020020151866002815181101515611ff557fe5b9060200190602002015184600581518110151561200e57fe5b9060200190602002015185600681518110151561202757fe5b9060200190602002015188600281518110151561204057fe5b9060200190602002015189600381518110151561205957fe5b906020019060200201518a600481518110151561207257fe5b906020019060200201518b600581518110151561208b57fe5b906020019060200201518c60068151811015156120a457fe5b906020019060200201518d60128151811015156120bd57fe5b906020019060200201518e60148151811015156120d657fe5b9060200190602002015161256b565b15156120f6576000925050506123eb565b61221185600181518110151561210857fe5b9060200190602002015186600281518110151561212157fe5b9060200190602002015184600781518110151561213a57fe5b9060200190602002015185600881518110151561215357fe5b9060200190602002015188600781518110151561216c57fe5b9060200190602002015189600881518110151561218557fe5b906020019060200201518a600981518110151561219e57fe5b906020019060200201518b600a8151811015156121b757fe5b906020019060200201518c600b8151811015156121d057fe5b906020019060200201518d60138151811015156121e957fe5b906020019060200201518e601581518110151561220257fe5b9060200190602002015161256b565b1515612222576000925050506123eb565b6122f284601e81518110151561223457fe5b9060200190602002015186600181518110151561224d57fe5b9060200190602002015187600281518110151561226657fe5b9060200190602002015185600981518110151561227f57fe5b9060200190602002015188601681518110151561229857fe5b9060200190602002015189600c8151811015156122b157fe5b906020019060200201518a600d8151811015156122ca57fe5b906020019060200201518b600e8151811015156122e357fe5b90602001906020020151612591565b1515612303576000925050506123eb565b6123d384601e81518110151561231557fe5b9060200190602002015186600181518110151561232e57fe5b9060200190602002015187600281518110151561234757fe5b9060200190602002015185600a81518110151561236057fe5b9060200190602002015188601781518110151561237957fe5b9060200190602002015189600f81518110151561239257fe5b906020019060200201518a60108151811015156123ab57fe5b906020019060200201518b60118151811015156123c457fe5b90602001906020020151612591565b15156123e4576000925050506123eb565b6001925050505b949350505050565b606060206040519080825280601f01601f1916602001820160405280156124295781602001600182028038833980820191505090505b509050816020820152919050565b60606000806020840191508351820190505b80821015612461578151198252602082019150612449565b8392505050919050565b6000806001905060008090505b6101008110156124a757818410156124945780925050506124af565b6002820291508080600101915050612478565b506101009150505b919050565b600060606124cb846124c66001610df5565b61075e565b905060006124e16124db8661072f565b85612551565b13158015612500575060006124fe6124f88361072f565b85612551565b135b91505092915050565b606061251e6125188585610a68565b836104be565b90509392505050565b600080612547612538868686612509565b6125426001610df5565b612551565b1490509392505050565b600061255f838360016111b9565b90508091505092915050565b60006125808c8c8a8d8d87898e8e8e8e61263d565b90509b9a5050505050505050505050565b600060606125b2856125ad6125a66001610df5565b6080610847565b6104be565b905060606125cd6125c88b8b8b89898d89612765565b611412565b905060006125e4866125df858f610a68565b612551565b1215801561260957506000612606866126018e6028608001610847565b612551565b13155b801561262d5750600061262b61262583805190602001206127a7565b88612551565b145b9250505098975050505050505050565b600060606126586126538e8e8d89898e8d612765565b611412565b9050606061267361266e8f8e8d8a898e8e612765565b611412565b9050600061275161274b84846040516020018083805190602001908083835b6020831015156126b75780518252602082019150602081019050602083039250612692565b6001836020036101000a03801982511681845116808217855250505050505090500182805190602001908083835b60208310151561270a57805182526020820191506020810190506020830392506126e5565b6001836020036101000a03801982511681845116808217855250505050505090500192505050604051602081830303815290604052805190602001206127a7565b89612551565b14925050509b9a5050505050505050505050565b606061279a61278961277889888c61094d565b61278389888d61094d565b8b612509565b61279485858c61094d565b8a612509565b9050979650505050505050565b606060206040519080825280601f01601f1916602001820160405280156127dd5781602001600182028038833980820191505090505b509050816020820152919050565b828054600181600116156101000203166002900490600052602060002090601f016020900481019282601f1061282c57805160ff191683800117855561285a565b8280016001018555821561285a579182015b8281111561285957825182559160200191906001019061283e565b5b5090506128679190612894565b5090565b608060405190810160405280600081526020016000815260200160008152602001600081525090565b6128b691905b808211156128b257600081600090555060010161289a565b5090565b90565b60006128c582356130bf565b905092915050565b600082601f83011215156128e057600080fd5b81356128f36128ee82613043565b613016565b9150808252602083016020830185838301111561290f57600080fd5b61291a8382846130dd565b50505092915050565b600061292f82356130c9565b905092915050565b600061294382356130d3565b905092915050565b60006020828403121561295d57600080fd5b600061296b848285016128b9565b91505092915050565b6000806040838503121561298757600080fd5b6000612995858286016128b9565b925050602083013567ffffffffffffffff8111156129b257600080fd5b6129be858286016128cd565b9150509250929050565b600080604083850312156129db57600080fd5b60006129e9858286016128b9565b92505060206129fa85828601612937565b9150509250929050565b600080600080600060a08688031215612a1c57600080fd5b6000612a2a888289016128b9565b9550506020612a3b88828901612937565b9450506040612a4c88828901612937565b9350506060612a5d88828901612937565b9250506080612a6e88828901612937565b9150509295509295909350565b600060208284031215612a8d57600080fd5b600082013567ffffffffffffffff811115612aa757600080fd5b612ab3848285016128cd565b91505092915050565b60008060408385031215612acf57600080fd5b600083013567ffffffffffffffff811115612ae957600080fd5b612af5858286016128cd565b925050602083013567ffffffffffffffff811115612b1257600080fd5b612b1e858286016128cd565b9150509250929050565b600080600060608486031215612b3d57600080fd5b600084013567ffffffffffffffff811115612b5757600080fd5b612b63868287016128cd565b935050602084013567ffffffffffffffff811115612b8057600080fd5b612b8c868287016128cd565b925050604084013567ffffffffffffffff811115612ba957600080fd5b612bb5868287016128cd565b9150509250925092565b60008060408385031215612bd257600080fd5b600083013567ffffffffffffffff811115612bec57600080fd5b612bf8858286016128cd565b9250506020612c0985828601612923565b9150509250929050565b60008060408385031215612c2657600080fd5b600083013567ffffffffffffffff811115612c4057600080fd5b612c4c858286016128cd565b9250506020612c5d85828601612937565b9150509250929050565b600060208284031215612c7957600080fd5b6000612c8784828501612937565b91505092915050565b60008060008060808587031215612ca657600080fd5b6000612cb487828801612937565b9450506020612cc587828801612937565b935050604085013567ffffffffffffffff811115612ce257600080fd5b612cee878288016128cd565b925050606085013567ffffffffffffffff811115612d0b57600080fd5b612d17878288016128cd565b91505092959194509250565b60008060008060808587031215612d3957600080fd5b6000612d4787828801612937565b9450506020612d5887828801612937565b9350506040612d6987828801612937565b9250506060612d7a87828801612937565b91505092959194509250565b6000612d918261307c565b808452602084019350612da38361306f565b60005b82811015612dd557612db9868351612df0565b612dc282613092565b9150602086019550600181019050612da6565b50849250505092915050565b612dea8161309f565b82525050565b612df9816130ab565b82525050565b6000612e0a82613087565b808452612e1e8160208601602086016130ec565b612e278161311f565b602085010191505092915050565b6000600c82527f70726f6f66206c656e67746800000000000000000000000000000000000000006020830152604082019050919050565b608082016000820151612e826000850182612ec1565b506020820151612e956020850182612ec1565b506040820151612ea86040850182612ec1565b506060820151612ebb6060850182612ec1565b50505050565b612eca816130b5565b82525050565b60006020820190508181036000830152612eea8184612d86565b905092915050565b6000602082019050612f076000830184612de1565b92915050565b6000604082019050612f226000830185612df0565b8181036020830152612f348184612dff565b90509392505050565b600060a082019050612f526000830188612df0565b612f5f6020830187612ec1565b612f6c6040830186612ec1565b612f796060830185612ec1565b612f866080830184612ec1565b9695505050505050565b60006020820190508181036000830152612faa8184612dff565b905092915050565b60006040820190508181036000830152612fcb81612e35565b9050612fda6020830184612ec1565b92915050565b6000608082019050612ff56000830184612e6c565b92915050565b60006020820190506130106000830184612ec1565b92915050565b6000604051905081810181811067ffffffffffffffff8211171561303957600080fd5b8060405250919050565b600067ffffffffffffffff82111561305a57600080fd5b601f19601f8301169050602081019050919050565b6000602082019050919050565b600081519050919050565b600081519050919050565b6000602082019050919050565b60008115159050919050565b6000819050919050565b6000819050919050565b6000819050919050565b6000819050919050565b6000819050919050565b82818337600083830152505050565b60005b8381101561310a5780820151818401526020810190506130ef565b83811115613119576000848401525b50505050565b6000601f19601f830116905091905056fea265627a7a72305820b74087b269985924ac87fdf9537616e655ec541349878c0c5a9ebb924b35520a6c6578706572696d656e74616cf50037",
  "source": "pragma solidity >=0.4.21 <0.6.0;\npragma experimental ABIEncoderV2; // solium-disable-line no-experimental \n//import \"chainlink/contracts/ChainlinkClient.sol\";\nimport \"./RangeProofValidator.sol\";\n\ncontract ZkSensors is RangeProofValidator{\n\n  struct Details {\n        uint timestamp_c1;\n        uint timestamp_c2;\n        uint orientation_c1;\n        uint orientation_c2;\n  }\n\n\n  mapping(bytes32 => Details[]) idToSensorReport;\n  mapping(bytes32 => bytes) idToZkProof;\n  bytes32[] sensorIds;\n\n  event SensorReport(bytes32 _id,uint _tc1, uint _tc2, uint _oc1, uint _oc2);\n  event ProofVerified(bytes32 _id, bytes _proof);\n  event FailedProof(bytes32 _id, bytes _proof);\n\n  function sensorReport(bytes32 _id, uint _tc1, uint _tc2, uint _oc1, uint _oc2) public {\n    idToSensorReport[_id].push(Details({\n      timestamp_c1: _tc1,\n      timestamp_c2: _tc2,\n      orientation_c1: _oc1,\n      orientation_c2: _oc2\n    }));\n    emit SensorReport(_id, _tc1,_tc2,_oc1,_oc2);\n  }\n\n\n  function verifyProof(bytes32 _id,bytes memory _proof) public returns(bool res){\n    uint _lower = 0;\n    uint _upper = 3;\n    Details[] storage _d = idToSensorReport[_id];\n    bytes memory _data;\n    bytes memory _comm;\n    for(uint i =0;i<_d.length;i++){\n      _data = generateCommitment(_d[i].timestamp_c1,_d[i].timestamp_c2,_d[i].orientation_c1,_d[i].orientation_c2);\n      _comm = abi.encodePacked(_comm,_data);\n    }\n    res = validate(_lower,_upper,_comm,_proof);\n    if(res){\n      idToZkProof[_id] = _proof;\n      emit ProofVerified(_id,_proof);\n    }\n    else{\n      emit FailedProof(_id,_proof);\n    }\n  }\n\n  function generateCommitment(uint _tc1,uint _tc2, uint _oc1, uint _oc2) public returns(bytes memory res){\n    res = abi.encodePacked(toBytes(_tc1),toBytes(_tc2),toBytes(_oc1),toBytes(_oc2));\n  }\n\n  function toBytes(uint256 x) internal returns (bytes memory b) {\n      b = new bytes(32);\n      assembly { mstore(add(b, 32), x) }\n  }\n\n  function getAllIds() public view returns(bytes32[] memory){\n    return sensorIds;\n  }\n\n    function getSensorIdsLength() public view returns(uint){\n    return sensorIds.length;\n  }\n\n  function getDetailsByIdAndIndex(bytes32 _id, uint _index) public view returns(Details memory){\n    return idToSensorReport[_id][_index];\n  }\n\n  function getNumberOfReportsById(bytes32 _id) public view returns(uint){\n    return idToSensorReport[_id].length;\n  }\n}\n",
  "sourcePath": "C:/Nick/ethnyc/zksupply/contracts/ZkSensors.sol",
  "compiler": {
    "name": "solc",
    "version": "0.5.0+commit.1d4f565a.Emscripten.clang"
  },
  "schemaVersion": "3.0.1",
  "updatedAt": "2019-05-18T20:48:20.497Z",
  "devdoc": {
    "methods": {}
  },
  "userdoc": {
    "methods": {}
  }
}