{
  "contractName": "ZkSensors",
  "abi": [
    {
      "constant": false,
      "inputs": [
        {
          "name": "b",
          "type": "bytes"
        }
      ],
      "name": "bytesToUint",
      "outputs": [
        {
          "name": "",
          "type": "uint256"
        }
      ],
      "payable": false,
      "stateMutability": "nonpayable",
      "type": "function"
    },
    {
      "constant": false,
      "inputs": [
        {
          "name": "a",
          "type": "uint256"
        },
        {
          "name": "p",
          "type": "uint256"
        }
      ],
      "name": "modInverse",
      "outputs": [
        {
          "name": "",
          "type": "uint256"
        }
      ],
      "payable": false,
      "stateMutability": "nonpayable",
      "type": "function"
    },
    {
      "constant": false,
      "inputs": [
        {
          "name": "_x",
          "type": "bytes"
        },
        {
          "name": "_mod",
          "type": "bytes"
        }
      ],
      "name": "bmod",
      "outputs": [
        {
          "name": "ret",
          "type": "bytes"
        }
      ],
      "payable": false,
      "stateMutability": "nonpayable",
      "type": "function"
    },
    {
      "constant": false,
      "inputs": [
        {
          "name": "x",
          "type": "bytes"
        }
      ],
      "name": "square",
      "outputs": [
        {
          "name": "ret",
          "type": "bytes"
        }
      ],
      "payable": false,
      "stateMutability": "nonpayable",
      "type": "function"
    },
    {
      "constant": false,
      "inputs": [
        {
          "name": "a",
          "type": "bytes"
        },
        {
          "name": "b",
          "type": "bytes"
        }
      ],
      "name": "bigadd",
      "outputs": [
        {
          "name": "ret",
          "type": "bytes"
        }
      ],
      "payable": false,
      "stateMutability": "nonpayable",
      "type": "function"
    },
    {
      "constant": true,
      "inputs": [
        {
          "name": "x",
          "type": "bytes"
        },
        {
          "name": "n",
          "type": "int256"
        }
      ],
      "name": "shiftLeft",
      "outputs": [
        {
          "name": "ret",
          "type": "bytes"
        }
      ],
      "payable": false,
      "stateMutability": "pure",
      "type": "function"
    },
    {
      "constant": false,
      "inputs": [
        {
          "name": "_base",
          "type": "bytes"
        },
        {
          "name": "_exp",
          "type": "bytes"
        },
        {
          "name": "_mod",
          "type": "bytes"
        }
      ],
      "name": "modexp",
      "outputs": [
        {
          "name": "",
          "type": "bytes"
        }
      ],
      "payable": true,
      "stateMutability": "payable",
      "type": "function"
    },
    {
      "constant": false,
      "inputs": [
        {
          "name": "p",
          "type": "uint256"
        },
        {
          "name": "A",
          "type": "uint256"
        },
        {
          "name": "validPlainTexts",
          "type": "uint256[]"
        },
        {
          "name": "c2",
          "type": "uint256"
        },
        {
          "name": "commitments",
          "type": "bytes[]"
        },
        {
          "name": "challenges",
          "type": "bytes[]"
        },
        {
          "name": "responses",
          "type": "bytes[]"
        }
      ],
      "name": "verifyNonInteractiveDisjunctiveZKProofOfEncryptionOfPlaintextElGamal",
      "outputs": [
        {
          "name": "result1",
          "type": "bool"
        },
        {
          "name": "result2",
          "type": "bool"
        }
      ],
      "payable": false,
      "stateMutability": "nonpayable",
      "type": "function"
    },
    {
      "constant": false,
      "inputs": [
        {
          "name": "a",
          "type": "bytes"
        },
        {
          "name": "b",
          "type": "bytes"
        }
      ],
      "name": "multiply",
      "outputs": [
        {
          "name": "ret",
          "type": "bytes"
        }
      ],
      "payable": false,
      "stateMutability": "nonpayable",
      "type": "function"
    },
    {
      "constant": false,
      "inputs": [
        {
          "name": "a",
          "type": "bytes"
        },
        {
          "name": "b",
          "type": "bytes"
        }
      ],
      "name": "bigsub",
      "outputs": [
        {
          "name": "ret",
          "type": "bytes"
        }
      ],
      "payable": false,
      "stateMutability": "nonpayable",
      "type": "function"
    },
    {
      "constant": false,
      "inputs": [
        {
          "name": "lower",
          "type": "uint256"
        },
        {
          "name": "upper",
          "type": "uint256"
        },
        {
          "name": "commitment",
          "type": "bytes"
        },
        {
          "name": "proof",
          "type": "bytes"
        }
      ],
      "name": "validate",
      "outputs": [
        {
          "name": "",
          "type": "bool"
        }
      ],
      "payable": false,
      "stateMutability": "nonpayable",
      "type": "function"
    },
    {
      "constant": true,
      "inputs": [
        {
          "name": "x",
          "type": "uint256"
        }
      ],
      "name": "toBigInt",
      "outputs": [
        {
          "name": "ret",
          "type": "bytes"
        }
      ],
      "payable": false,
      "stateMutability": "pure",
      "type": "function"
    },
    {
      "constant": true,
      "inputs": [
        {
          "name": "x",
          "type": "bytes"
        },
        {
          "name": "bitShift",
          "type": "uint256"
        }
      ],
      "name": "shiftBitsRight",
      "outputs": [
        {
          "name": "y",
          "type": "bytes"
        }
      ],
      "payable": false,
      "stateMutability": "pure",
      "type": "function"
    },
    {
      "anonymous": false,
      "inputs": [
        {
          "indexed": false,
          "name": "_id",
          "type": "bytes32"
        },
        {
          "indexed": false,
          "name": "_tc1",
          "type": "uint256"
        },
        {
          "indexed": false,
          "name": "_tc2",
          "type": "uint256"
        },
        {
          "indexed": false,
          "name": "_oc1",
          "type": "uint256"
        },
        {
          "indexed": false,
          "name": "_oc2",
          "type": "uint256"
        }
      ],
      "name": "SensorReport",
      "type": "event"
    },
    {
      "anonymous": false,
      "inputs": [
        {
          "indexed": false,
          "name": "_id",
          "type": "bytes32"
        },
        {
          "indexed": false,
          "name": "_proof",
          "type": "bytes"
        }
      ],
      "name": "ProofStored",
      "type": "event"
    },
    {
      "anonymous": false,
      "inputs": [
        {
          "indexed": false,
          "name": "_id",
          "type": "bytes32"
        },
        {
          "indexed": false,
          "name": "_proof",
          "type": "bytes"
        }
      ],
      "name": "FailedProof",
      "type": "event"
    },
    {
      "anonymous": false,
      "inputs": [
        {
          "indexed": false,
          "name": "_s",
          "type": "string"
        },
        {
          "indexed": false,
          "name": "_u",
          "type": "uint256"
        }
      ],
      "name": "Print",
      "type": "event"
    },
    {
      "constant": false,
      "inputs": [
        {
          "name": "_id",
          "type": "bytes32"
        },
        {
          "name": "_tc1",
          "type": "uint256"
        },
        {
          "name": "_tc2",
          "type": "uint256"
        },
        {
          "name": "_oc1",
          "type": "uint256"
        },
        {
          "name": "_oc2",
          "type": "uint256"
        }
      ],
      "name": "sensorReport",
      "outputs": [],
      "payable": false,
      "stateMutability": "nonpayable",
      "type": "function"
    },
    {
      "constant": false,
      "inputs": [
        {
          "name": "_id",
          "type": "bytes32"
        },
        {
          "name": "_proof",
          "type": "bytes"
        }
      ],
      "name": "storeProof",
      "outputs": [
        {
          "name": "res",
          "type": "bool"
        }
      ],
      "payable": false,
      "stateMutability": "nonpayable",
      "type": "function"
    },
    {
      "constant": false,
      "inputs": [
        {
          "name": "_tc1",
          "type": "uint256"
        },
        {
          "name": "_tc2",
          "type": "uint256"
        },
        {
          "name": "_oc1",
          "type": "uint256"
        },
        {
          "name": "_oc2",
          "type": "uint256"
        }
      ],
      "name": "generateCommitment",
      "outputs": [
        {
          "name": "res",
          "type": "bytes"
        }
      ],
      "payable": false,
      "stateMutability": "nonpayable",
      "type": "function"
    },
    {
      "constant": true,
      "inputs": [],
      "name": "getAllIds",
      "outputs": [
        {
          "name": "",
          "type": "bytes32[]"
        }
      ],
      "payable": false,
      "stateMutability": "view",
      "type": "function"
    },
    {
      "constant": true,
      "inputs": [],
      "name": "getSensorIdsLength",
      "outputs": [
        {
          "name": "",
          "type": "uint256"
        }
      ],
      "payable": false,
      "stateMutability": "view",
      "type": "function"
    },
    {
      "constant": true,
      "inputs": [
        {
          "name": "_id",
          "type": "bytes32"
        },
        {
          "name": "_index",
          "type": "uint256"
        }
      ],
      "name": "getDetailsByIdAndIndex",
      "outputs": [
        {
          "name": "",
          "type": "uint256"
        },
        {
          "name": "",
          "type": "uint256"
        },
        {
          "name": "",
          "type": "uint256"
        },
        {
          "name": "",
          "type": "uint256"
        }
      ],
      "payable": false,
      "stateMutability": "view",
      "type": "function"
    },
    {
      "constant": true,
      "inputs": [
        {
          "name": "_id",
          "type": "bytes32"
        }
      ],
      "name": "getNumberOfReportsById",
      "outputs": [
        {
          "name": "",
          "type": "uint256"
        }
      ],
      "payable": false,
      "stateMutability": "view",
      "type": "function"
    },
    {
      "constant": true,
      "inputs": [
        {
          "name": "_id",
          "type": "bytes32"
        }
      ],
      "name": "getZkProof",
      "outputs": [
        {
          "name": "",
          "type": "bytes"
        }
      ],
      "payable": false,
      "stateMutability": "view",
      "type": "function"
    }
  ],
  "bytecode": "0x608060405234801561001057600080fd5b50613cd5806100206000396000f3fe60806040526004361061011d576000357c0100000000000000000000000000000000000000000000000000000000900463ffffffff16806302d06d05146101225780633adfed281461015f5780633e4129cd1461019c57806344f94bda146101d957806368b54a3a146102165780636d8e8182146102535780637629748514610290578063830058ab146102b95780638b4c9e83146102f657806398edc97f14610326578063a4d662d814610364578063a59bc5e8146103a1578063a61d7e3e146103de578063a6203b411461041b578063a77992f414610458578063aaa44e5c14610498578063b2b12287146104c3578063c743d10c14610500578063dd1501231461053d578063e8143cfe1461057a578063ff27c476146105a5575b600080fd5b34801561012e57600080fd5b5061014960048036036101449190810190613432565b6105e2565b6040516101569190613aa5565b60405180910390f35b34801561016b57600080fd5b5061018660048036036101819190810190613647565b61069c565b6040516101939190613aa5565b60405180910390f35b3480156101a857600080fd5b506101c360048036036101be919081019061332b565b610754565b6040516101d0919061398e565b60405180910390f35b3480156101e557600080fd5b5061020060048036036101fb9190810190613473565b6107bd565b60405161020d9190613a55565b60405180910390f35b34801561022257600080fd5b5061023d60048036036102389190810190613432565b6107db565b60405161024a9190613a55565b60405180910390f35b34801561025f57600080fd5b5061027a60048036036102759190810190613473565b61080a565b6040516102879190613a55565b60405180910390f35b34801561029c57600080fd5b506102b760048036036102b291908101906133bb565b610823565b005b3480156102c557600080fd5b506102e060048036036102db9190810190613576565b61093c565b6040516102ed9190613a55565b60405180910390f35b610310600480360361030b91908101906134df565b610a42565b60405161031d9190613a55565b60405180910390f35b34801561033257600080fd5b5061034d60048036036103489190810190613683565b610b5d565b60405161035b9291906139a9565b60405180910390f35b34801561037057600080fd5b5061038b60048036036103869190810190613473565b611254565b6040516103989190613a55565b60405180910390f35b3480156103ad57600080fd5b506103c860048036036103c39190810190613473565b6112f6565b6040516103d59190613a55565b60405180910390f35b3480156103ea57600080fd5b5061040560048036036104009190810190613781565b61130f565b604051610412919061398e565b60405180910390f35b34801561042757600080fd5b50610442600480360361043d919081019061361e565b6115e1565b60405161044f9190613a55565b60405180910390f35b34801561046457600080fd5b5061047f600480360361047a919081019061337f565b611625565b60405161048f9493929190613ac0565b60405180910390f35b3480156104a457600080fd5b506104ad611683565b6040516104ba919061396c565b60405180910390f35b3480156104cf57600080fd5b506104ea60048036036104e59190810190613302565b6116db565b6040516104f79190613a55565b60405180910390f35b34801561050c57600080fd5b5061052760048036036105229190810190613302565b611790565b6040516105349190613aa5565b60405180910390f35b34801561054957600080fd5b50610564600480360361055f9190810190613814565b6117b0565b6040516105719190613a55565b60405180910390f35b34801561058657600080fd5b5061058f611948565b60405161059c9190613aa5565b60405180910390f35b3480156105b157600080fd5b506105cc60048036036105c791908101906135ca565b611955565b6040516105d99190613a55565b60405180910390f35b60008060008090505b8351811015610692576001810184510360080260020a848281518110151561060f57fe5b9060200101517f010000000000000000000000000000000000000000000000000000000000000090047f0100000000000000000000000000000000000000000000000000000000000000027f0100000000000000000000000000000000000000000000000000000000000000900460ff16028201915080806001019150506105eb565b5080915050919050565b60008083141580156106ae5750818314155b80156106bb575060008214155b15156106c657600080fd5b818311156106dd5781838115156106d957fe5b0692505b600080600190506000849050600086905060005b60008214151561072a57818381151561070657fe5b049050838482028603838484028603809550819650829750839850505050506106f1565b6000851215610745578460000387039550505050505061074e565b84955050505050505b92915050565b60008160046000858152602001908152602001600020908051906020019061077d92919061307a565b507f9318e276a703f49128b07bbab294affa01a4eb684acf24e9bc2b4c0dab9da62c83836040516107af9291906139d2565b60405180910390a192915050565b60606107d3836107cd60016115e1565b84610a42565b905092915050565b6060806107ec83600885510261093c565b9050610802836107fc60026115e1565b83610a42565b915050919050565b606061081883836000611a48565b508091505092915050565b6000600360008781526020019081526020016000208054905090506003600087815260200190815260200160002060806040519081016040528087815260200186815260200185815260200184815250908060018154018082558091505090600182039060005260206000209060040201600090919290919091506000820151816000015560208201518160010155604082015181600201556060820151816003015550505060058690806001815401808255809150509060018203906000526020600020016000909192909190915055507f0c323b5d94b5ad94b8fc54e94b398c0dda4a91f357df740844bb83a99365481a868686868660405161092c959493929190613a02565b60405180910390a1505050505050565b606060006101008060088651028560ff010181151561095757fe5b050290506000811315156109a25760006040519080825280601f01601f1916602001820160405280156109995781602001600182028038833980820191505090505b50915050610a3c565b6008818115156109ae57fe5b046040519080825280601f01601f1916602001820160405280156109e15781602001600182028038833980820191505090505b509150600082518551106109f65782516109f9565b84515b9050600080602087019150602085019050610a15818385611c76565b60008660088951028603039050610a34610a2f8783611955565b611ca1565b955050505050505b92915050565b60606000845190506000845190506000845190506060816040519080825280601f01601f191660200182016040528015610a8b5781602001600182028038833980820191505090505b5090506000828486606001010190506060816040519080825280601f01601f191660200182016040528015610acf5781602001600182028038833980820191505090505b5090506020810186815285602082015284604082015286606082018860208e01600060046101c2f1868860600183018860208e01600060046101c2f190508586850383018760208d01600060046101c2f1905085602086018584600060056105465a03f19050505083858760600101018151141515610b4d57600080fd5b8296505050505050509392505050565b600080606080610b6c8b6115e1565b90506060600080819055505b89516000541015610bd857610ba58a600054815181101515610b9657fe5b906020019060200201516115e1565b81600054815181101515610bb557fe5b906020019060200201819052506000808154809291906001019190505550610b78565b600080819055505b87516000541015610cfa57610c15610c1089600054815181101515610c0157fe5b906020019060200201516105e2565b6115e1565b83600054815181101515610c2557fe5b90602001906020020181905250610c5c610c5788600054815181101515610c4857fe5b906020019060200201516105e2565b6115e1565b6001600054815481101515610c6d57fe5b906000526020600020019080519060200190610c8a92919061307a565b50610cb5610cb087600054815181101515610ca157fe5b906020019060200201516105e2565b6115e1565b6002600054815481101515610cc657fe5b906000526020600020019080519060200190610ce392919061307a565b506000808154809291906001019190505550610be0565b600080819055505b80516000541015610f35576060610dd5610d1b8d6115e1565b6002600054815481101515610d2c57fe5b906000526020600020018054600181600116156101000203166002900480601f016020809104026020016040519081016040528092919081815260200182805460018160011615610100020316600290048015610dca5780601f10610d9f57610100808354040283529160200191610dca565b820191906000526020600020905b815481529060010190602001808311610dad57829003601f168201915b505050505085610a42565b90506060610f04610e4a86600054815181101515610def57fe5b90602001906020020151610e45610e058f6115e1565b610e40610e3b610e2d8a600054815181101515610e1e57fe5b906020019060200201516105e2565b610e368c6105e2565b61069c565b611d14565b611254565b611254565b6001600054815481101515610e5b57fe5b906000526020600020018054600181600116156101000203166002900480601f016020809104026020016040519081016040528092919081815260200182805460018160011615610100020316600290048015610ef95780601f10610ece57610100808354040283529160200191610ef9565b820191906000526020600020905b815481529060010190602001808311610edc57829003601f168201915b505050505086610a42565b90506000610f128383611d58565b1415610f1d57600196505b50506000808154809291906001019190505550610d02565b60206040519081016040528060008152509150600080819055505b8251600054101561104e578183600054815181101515610f6c57fe5b906020019060200201516040516020018083805190602001908083835b602083101515610fae5780518252602082019150602081019050602083039250610f89565b6001836020036101000a03801982511681845116808217855250505050505090500182805190602001908083835b6020831015156110015780518252602082019150602081019050602083039250610fdc565b6001836020036101000a0380198251168184511680821785525050505050509050019250505060405160208183030381529060405291506000808154809291906001019190505550610f50565b6110628280519060200120600190046115e1565b915060606001600081548110151561107657fe5b906000526020600020018054600181600116156101000203166002900480601f0160208091040260200160405190810160405280929190818152602001828054600181600116156101000203166002900480156111145780601f106110e957610100808354040283529160200191611114565b820191906000526020600020905b8154815290600101906020018083116110f757829003601f168201915b5050505050905060016000819055505b600180549050600054101561122d5780600160005481548110151561114557fe5b906000526020600020016040516020018083805190602001908083835b6020831015156111875780518252602082019150602081019050602083039250611162565b6001836020036101000a038019825116818451168082178552505050505050905001828054600181600116156101000203166002900480156112005780601f106111de576101008083540402835291820191611200565b820191906000526020600020905b8154815290600101906020018083116111ec575b50509250505060405160208183030381529060405290506000808154809291906001019190505550611124565b60006112398483611d58565b141561124457600194505b5050505097509795505050505050565b60608061126160026115e1565b9050606061126f858561080a565b9050606061127d86866112f6565b9050606061128f83600885510261093c565b9050606061129e848684610a42565b905060606112ad848785610a42565b905060606112bb83836112f6565b90506112e7817ffffffffffffffffffffffffffffffffffffffffffffffffffffffffffffffffe61093c565b97505050505050505092915050565b606061130483836001611a48565b508091505092915050565b60006060600760405190808252806020026020018201604052801561134857816020015b60608152602001906001900390816113335790505b5090506060601f60405190808252806020026020018201604052801561138257816020015b606081526020019060019003908161136d5790505b509050606060008060606000808a955060008090505b885181101561148c5786818151811015156113af57fe5b90602001906020020151915086818151811015156113c957fe5b9060200190602002015160018a510382146113fe5787600183018151811015156113ef57fe5b90602001906020020151611401565b8c515b039250826040519080825280601f01601f1916602001820160405280156114375781602001600182028038833980820191505090505b5093506020840195508160208d010194506108008310151561145857600080fd5b611463868685611c76565b83898281518110151561147257fe5b906020019060200201819052508080600101915050611398565b508995507f5ecf36f705605fd144b15d76100246c2b9af70ede5b61b9f6b4f2a53c577ee148a516040516114c09190613a77565b60405180910390a160008090505b87518110156115c25786818151811015156114e557fe5b90602001906020020151915086818151811015156114ff57fe5b906020019060200201516001895103821461153457876001830181518110151561152557fe5b90602001906020020151611537565b8b515b039250826040519080825280601f01601f19166020018201604052801561156d5781602001600182028038833980820191505090505b5093506020840195508160208c010194506120008310151561158e57600080fd5b611599868685611c76565b8388828151811015156115a857fe5b9060200190602002018190525080806001019150506114ce565b506115cf8d8d8a8a611d72565b98505050505050505050949350505050565b606060206040519080825280601f01601f1916602001820160405280156116175781602001600182028038833980820191505090505b509050816020820152919050565b6000806000806000600360008881526020019081526020016000208681548110151561164d57fe5b90600052602060002090600402019050806000015481600101548260020154836003015494509450945094505092959194509250565b606060058054806020026020016040519081016040528092919081815260200182805480156116d157602002820191906000526020600020905b8154815260200190600101908083116116bd575b5050505050905090565b6060600460008381526020019081526020016000208054600181600116156101000203166002900480601f0160208091040260200160405190810160405280929190818152602001828054600181600116156101000203166002900480156117845780601f1061175957610100808354040283529160200191611784565b820191906000526020600020905b81548152906001019060200180831161176757829003601f168201915b50505050509050919050565b600060036000838152602001908152602001600020805490509050919050565b60606117bb85611d14565b6117c485611d14565b6117cd85611d14565b6117d685611d14565b6040516020018085805190602001908083835b60208310151561180e57805182526020820191506020810190506020830392506117e9565b6001836020036101000a03801982511681845116808217855250505050505090500184805190602001908083835b602083101515611861578051825260208201915060208101905060208303925061183c565b6001836020036101000a03801982511681845116808217855250505050505090500183805190602001908083835b6020831015156118b4578051825260208201915060208101905060208303925061188f565b6001836020036101000a03801982511681845116808217855250505050505090500182805190602001908083835b60208310151561190757805182526020820191506020810190506020830392506118e2565b6001836020036101000a0380198251168184511680821785525050505050509050019450505050506040516020818303038152906040529050949350505050565b6000600580549050905090565b6060600082141561196857829050611a42565b60ff821115151561197857600080fd5b60006020845181151561198757fe5b0614151561199457600080fd5b82516040519080825280601f01601f1916602001820160405280156119c85781602001600182028038833980820191505090505b509050600060018360019060020a020390506000836101000360020a905060008460020a905060008090505b8651811015611a3d5760008083602084018a0151871916049150600083141515611a255784838a0151871602820191505b602083018701905081815250506020810190506119f4565b505050505b92915050565b606060008351855111611a5c578351611a5f565b84515b6040519080825280601f01601f191660200182016040528015611a915781602001600182028038833980820191505090505b509150600080600060208801925060208701915060208501905060006020895103840190506000602089510384019050600080905060006020895186010390505b8481101515611b9257600080905060008090508886101515611af357855191505b8785101515611b0157845190505b8b15611b3b5783818303038352818183031180611b2357508082038482840303115b611b2e576000611b31565b60015b60ff169350611b6b565b83818301018352818183011080611b5757508082018482840101105b611b62576000611b65565b60015b60ff1693505b8082141515611b7957600199505b6020860395506020850394505050602081039050611ad2565b506001811415611c61578815611bf057611bbd611bae89612ce0565b611bb860016115e1565b61080a565b7fffffffffffffffffffffffffffffffffffffffffffffffffffffffffffffffff80905097509750505050505050611c6e565b606060208951016040519080825280601f01601f191660200182016040528015611c295781602001600182028038833980820191505090505b509050602089019350604081019250611c4483858b51611c76565b600160208201528060018090509850985050505050505050611c6e565b8787975097505050505050505b935093915050565b5b602081101515611c9c5781518352602083019250602082019150602081039050611c77565b505050565b6060600060208351811515611cb257fe5b06141515611cbf57600080fd5b600060019050600080600090505b8451811015611d0157602081018501511592508215611cf157602082019150611cf6565b611d01565b602081019050611ccd565b5080840192508084510383525050919050565b606060206040519080825280601f01601f191660200182016040528015611d4a5781602001600182028038833980820191505090505b509050816020820152919050565b6000611d6683836001611a48565b90508091505092915050565b60006060600b604051908082528060200260200182016040528015611dab57816020015b6060815260200190600190039081611d965790505b5090506000611dbb878703612d14565b6001602860800101600202019050611dd2876115e1565b826000815181101515611de157fe5b90602001906020020181905250611df7866115e1565b826001815181101515611e0657fe5b90602001906020020181905250611e60856000815181101515611e2557fe5b90602001906020020151611e42611e3c60016115e1565b8461093c565b876001815181101515611e5157fe5b90602001906020020151610a42565b856000815181101515611e6f57fe5b90602001906020020181905250611ec9856004815181101515611e8e57fe5b90602001906020020151611eab611ea560016115e1565b8461093c565b876001815181101515611eba57fe5b90602001906020020151610a42565b856004815181101515611ed857fe5b90602001906020020181905250611f07826000815181101515611ef757fe5b906020019060200201518261093c565b826000815181101515611f1657fe5b90602001906020020181905250611f45826001815181101515611f3557fe5b906020019060200201518261093c565b826001815181101515611f5457fe5b90602001906020020181905250611f78611f6f8888036115e1565b6002830161093c565b826004815181101515611f8757fe5b90602001906020020181905250611fce84601e815181101515611fa657fe5b90602001906020020151836004815181101515611fbf57fe5b90602001906020020151612d5d565b1515611fdf57600092505050612cd8565b61206c856000815181101515611ff157fe5b9060200190602002015161204e87600581518110151561200d57fe5b9060200190602002015185600081518110151561202657fe5b9060200190602002015189600181518110151561203f57fe5b90602001906020020151610a42565b87600181518110151561205d57fe5b90602001906020020151612db2565b82600281518110151561207b57fe5b906020019060200201819052506121156120de86600281518110151561209d57fe5b906020019060200201518460018151811015156120b657fe5b906020019060200201518860018151811015156120cf57fe5b90602001906020020151610a42565b8660048151811015156120ed57fe5b9060200190602002015187600181518110151561210657fe5b90602001906020020151612db2565b82600381518110151561212457fe5b9060200190602002018190525061218485600081518110151561214357fe5b9060200190602002015186600481518110151561215c57fe5b9060200190602002015187600181518110151561217557fe5b90602001906020020151612dd0565b151561219557600092505050612cd8565b6121e88560028151811015156121a757fe5b906020019060200201518660058151811015156121c057fe5b906020019060200201518760018151811015156121d957fe5b90602001906020020151612dd0565b15156121f957600092505050612cd8565b61224c85600381518110151561220b57fe5b9060200190602002015186600681518110151561222457fe5b9060200190602002015187600181518110151561223d57fe5b90602001906020020151612dd0565b151561225d57600092505050612cd8565b6122b084600081518110151561226f57fe5b9060200190602002015185601281518110151561228857fe5b906020019060200201518760018151811015156122a157fe5b90602001906020020151612dd0565b15156122c157600092505050612cd8565b6123148460018151811015156122d357fe5b906020019060200201518560138151811015156122ec57fe5b9060200190602002015187600181518110151561230557fe5b90602001906020020151612dd0565b151561232557600092505050612cd8565b61237884600281518110151561233757fe5b9060200190602002015185601481518110151561235057fe5b9060200190602002015187600181518110151561236957fe5b90602001906020020151612dd0565b151561238957600092505050612cd8565b6123dc84600781518110151561239b57fe5b906020019060200201518560158151811015156123b457fe5b906020019060200201518760018151811015156123cd57fe5b90602001906020020151612dd0565b15156123ed57600092505050612cd8565b6124408260028151811015156123ff57fe5b9060200190602002015185601281518110151561241857fe5b9060200190602002015187600181518110151561243157fe5b90602001906020020151612db2565b82600281518110151561244f57fe5b906020019060200201819052506124af82600381518110151561246e57fe5b9060200190602002015185601381518110151561248757fe5b906020019060200201518760018151811015156124a057fe5b90602001906020020151612db2565b8260038151811015156124be57fe5b9060200190602002018190525061251e8260028151811015156124dd57fe5b906020019060200201518560168151811015156124f657fe5b9060200190602002015187600181518110151561250f57fe5b90602001906020020151612dd0565b151561252f57600092505050612cd8565b61258282600381518110151561254157fe5b9060200190602002015185601781518110151561255a57fe5b9060200190602002015187600181518110151561257357fe5b90602001906020020151612dd0565b151561259357600092505050612cd8565b60006125c08560188151811015156125a757fe5b906020019060200201516125bb60016115e1565b611d58565b146125e3578460038151811015156125d457fe5b906020019060200201516125fd565b8460068151811015156125f257fe5b906020019060200201515b82600581518110151561260c57fe5b90602001906020020181905250600061264685601981518110151561262d57fe5b9060200190602002015161264160016115e1565b611d58565b146126695784600381518110151561265a57fe5b90602001906020020151612683565b84600681518110151561267857fe5b906020019060200201515b82600681518110151561269257fe5b9060200190602002018190525060006126cc85601a8151811015156126b357fe5b906020019060200201516126c760016115e1565b611d58565b146126ef578460038151811015156126e057fe5b90602001906020020151612709565b8460068151811015156126fe57fe5b906020019060200201515b82600781518110151561271857fe5b90602001906020020181905250600061275285601b81518110151561273957fe5b9060200190602002015161274d60016115e1565b611d58565b146127755784600381518110151561276657fe5b9060200190602002015161278f565b84600681518110151561278457fe5b906020019060200201515b82600881518110151561279e57fe5b9060200190602002018190525060006127d885601c8151811015156127bf57fe5b906020019060200201516127d360016115e1565b611d58565b146127fb578460038151811015156127ec57fe5b90602001906020020151612815565b84600681518110151561280a57fe5b906020019060200201515b82600981518110151561282457fe5b90602001906020020181905250600061285e85601d81518110151561284557fe5b9060200190602002015161285960016115e1565b611d58565b146128815784600381518110151561287257fe5b9060200190602002015161289b565b84600681518110151561289057fe5b906020019060200201515b82600a8151811015156128aa57fe5b906020019060200201819052506129d28560018151811015156128c957fe5b906020019060200201518660028151811015156128e257fe5b906020019060200201518460058151811015156128fb57fe5b9060200190602002015185600681518110151561291457fe5b9060200190602002015188600281518110151561292d57fe5b9060200190602002015189600381518110151561294657fe5b906020019060200201518a600481518110151561295f57fe5b906020019060200201518b600581518110151561297857fe5b906020019060200201518c600681518110151561299157fe5b906020019060200201518d60128151811015156129aa57fe5b906020019060200201518e60148151811015156129c357fe5b90602001906020020151612dfa565b15156129e357600092505050612cd8565b612afe8560018151811015156129f557fe5b90602001906020020151866002815181101515612a0e57fe5b90602001906020020151846007815181101515612a2757fe5b90602001906020020151856008815181101515612a4057fe5b90602001906020020151886007815181101515612a5957fe5b90602001906020020151896008815181101515612a7257fe5b906020019060200201518a6009815181101515612a8b57fe5b906020019060200201518b600a815181101515612aa457fe5b906020019060200201518c600b815181101515612abd57fe5b906020019060200201518d6013815181101515612ad657fe5b906020019060200201518e6015815181101515612aef57fe5b90602001906020020151612dfa565b1515612b0f57600092505050612cd8565b612bdf84601e815181101515612b2157fe5b90602001906020020151866001815181101515612b3a57fe5b90602001906020020151876002815181101515612b5357fe5b90602001906020020151856009815181101515612b6c57fe5b90602001906020020151886016815181101515612b8557fe5b9060200190602002015189600c815181101515612b9e57fe5b906020019060200201518a600d815181101515612bb757fe5b906020019060200201518b600e815181101515612bd057fe5b90602001906020020151612e20565b1515612bf057600092505050612cd8565b612cc084601e815181101515612c0257fe5b90602001906020020151866001815181101515612c1b57fe5b90602001906020020151876002815181101515612c3457fe5b9060200190602002015185600a815181101515612c4d57fe5b90602001906020020151886017815181101515612c6657fe5b9060200190602002015189600f815181101515612c7f57fe5b906020019060200201518a6010815181101515612c9857fe5b906020019060200201518b6011815181101515612cb157fe5b90602001906020020151612e20565b1515612cd157600092505050612cd8565b6001925050505b949350505050565b60606000806020840191508351820190505b80821015612d0a578151198252602082019150612cf2565b8392505050919050565b6000806001905060008090505b610100811015612d505781841015612d3d578092505050612d58565b6002820291508080600101915050612d21565b506101009150505b919050565b60006060612d7484612d6f60016115e1565b61080a565b90506000612d8a612d84866107db565b85611d58565b13158015612da957506000612da7612da1836107db565b85611d58565b135b91505092915050565b6060612dc7612dc18585611254565b836107bd565b90509392505050565b600080612df0612de1868686612db2565b612deb60016115e1565b611d58565b1490509392505050565b6000612e0f8c8c8a8d8d87898e8e8e8e612ecc565b90509b9a5050505050505050505050565b60006060612e4185612e3c612e3560016115e1565b608061093c565b6107bd565b90506060612e5c612e578b8b8b89898d89612ff4565b611ca1565b90506000612e7386612e6e858f611254565b611d58565b12158015612e9857506000612e9586612e908e602860800161093c565b611d58565b13155b8015612ebc57506000612eba612eb48380519060200120613036565b88611d58565b145b9250505098975050505050505050565b60006060612ee7612ee28e8e8d89898e8d612ff4565b611ca1565b90506060612f02612efd8f8e8d8a898e8e612ff4565b611ca1565b90506000612fe0612fda84846040516020018083805190602001908083835b602083101515612f465780518252602082019150602081019050602083039250612f21565b6001836020036101000a03801982511681845116808217855250505050505090500182805190602001908083835b602083101515612f995780518252602082019150602081019050602083039250612f74565b6001836020036101000a0380198251168184511680821785525050505050509050019250505060405160208183030381529060405280519060200120613036565b89611d58565b14925050509b9a5050505050505050505050565b606061302961301861300789888c610a42565b61301289888d610a42565b8b612db2565b61302385858c610a42565b8a612db2565b9050979650505050505050565b606060206040519080825280601f01601f19166020018201604052801561306c5781602001600182028038833980820191505090505b509050816020820152919050565b828054600181600116156101000203166002900490600052602060002090601f016020900481019282601f106130bb57805160ff19168380011785556130e9565b828001600101855582156130e9579182015b828111156130e85782518255916020019190600101906130cd565b5b5090506130f691906130fa565b5090565b61311c91905b80821115613118576000816000905550600101613100565b5090565b90565b600082601f830112151561313257600080fd5b813561314561314082613b32565b613b05565b9150818183526020840193506020810190508360005b8381101561318b5781358601613171888261322e565b84526020840193506020830192505060018101905061315b565b5050505092915050565b600082601f83011215156131a857600080fd5b81356131bb6131b682613b5a565b613b05565b915081818352602084019350602081019050838560208402820111156131e057600080fd5b60005b8381101561321057816131f688826132ee565b8452602084019350602083019250506001810190506131e3565b5050505092915050565b60006132268235613c2a565b905092915050565b600082601f830112151561324157600080fd5b813561325461324f82613b82565b613b05565b9150808252602083016020830185838301111561327057600080fd5b61327b838284613c48565b50505092915050565b600082601f830112151561329757600080fd5b81356132aa6132a582613bae565b613b05565b915080825260208301602083018583830111156132c657600080fd5b6132d1838284613c48565b50505092915050565b60006132e68235613c34565b905092915050565b60006132fa8235613c3e565b905092915050565b60006020828403121561331457600080fd5b60006133228482850161321a565b91505092915050565b6000806040838503121561333e57600080fd5b600061334c8582860161321a565b925050602083013567ffffffffffffffff81111561336957600080fd5b61337585828601613284565b9150509250929050565b6000806040838503121561339257600080fd5b60006133a08582860161321a565b92505060206133b1858286016132ee565b9150509250929050565b600080600080600060a086880312156133d357600080fd5b60006133e18882890161321a565b95505060206133f2888289016132ee565b9450506040613403888289016132ee565b9350506060613414888289016132ee565b9250506080613425888289016132ee565b9150509295509295909350565b60006020828403121561344457600080fd5b600082013567ffffffffffffffff81111561345e57600080fd5b61346a84828501613284565b91505092915050565b6000806040838503121561348657600080fd5b600083013567ffffffffffffffff8111156134a057600080fd5b6134ac85828601613284565b925050602083013567ffffffffffffffff8111156134c957600080fd5b6134d585828601613284565b9150509250929050565b6000806000606084860312156134f457600080fd5b600084013567ffffffffffffffff81111561350e57600080fd5b61351a86828701613284565b935050602084013567ffffffffffffffff81111561353757600080fd5b61354386828701613284565b925050604084013567ffffffffffffffff81111561356057600080fd5b61356c86828701613284565b9150509250925092565b6000806040838503121561358957600080fd5b600083013567ffffffffffffffff8111156135a357600080fd5b6135af85828601613284565b92505060206135c0858286016132da565b9150509250929050565b600080604083850312156135dd57600080fd5b600083013567ffffffffffffffff8111156135f757600080fd5b61360385828601613284565b9250506020613614858286016132ee565b9150509250929050565b60006020828403121561363057600080fd5b600061363e848285016132ee565b91505092915050565b6000806040838503121561365a57600080fd5b6000613668858286016132ee565b9250506020613679858286016132ee565b9150509250929050565b600080600080600080600060e0888a03121561369e57600080fd5b60006136ac8a828b016132ee565b97505060206136bd8a828b016132ee565b965050604088013567ffffffffffffffff8111156136da57600080fd5b6136e68a828b01613195565b95505060606136f78a828b016132ee565b945050608088013567ffffffffffffffff81111561371457600080fd5b6137208a828b0161311f565b93505060a088013567ffffffffffffffff81111561373d57600080fd5b6137498a828b0161311f565b92505060c088013567ffffffffffffffff81111561376657600080fd5b6137728a828b0161311f565b91505092959891949750929550565b6000806000806080858703121561379757600080fd5b60006137a5878288016132ee565b94505060206137b6878288016132ee565b935050604085013567ffffffffffffffff8111156137d357600080fd5b6137df87828801613284565b925050606085013567ffffffffffffffff8111156137fc57600080fd5b61380887828801613284565b91505092959194509250565b6000806000806080858703121561382a57600080fd5b6000613838878288016132ee565b9450506020613849878288016132ee565b935050604061385a878288016132ee565b925050606061386b878288016132ee565b91505092959194509250565b600061388282613be7565b80845260208401935061389483613bda565b60005b828110156138c6576138aa8683516138e1565b6138b382613bfd565b9150602086019550600181019050613897565b50849250505092915050565b6138db81613c0a565b82525050565b6138ea81613c16565b82525050565b60006138fb82613bf2565b80845261390f816020860160208601613c57565b61391881613c8a565b602085010191505092915050565b6000600c82527f70726f6f66206c656e67746800000000000000000000000000000000000000006020830152604082019050919050565b61396681613c20565b82525050565b600060208201905081810360008301526139868184613877565b905092915050565b60006020820190506139a360008301846138d2565b92915050565b60006040820190506139be60008301856138d2565b6139cb60208301846138d2565b9392505050565b60006040820190506139e760008301856138e1565b81810360208301526139f981846138f0565b90509392505050565b600060a082019050613a1760008301886138e1565b613a24602083018761395d565b613a31604083018661395d565b613a3e606083018561395d565b613a4b608083018461395d565b9695505050505050565b60006020820190508181036000830152613a6f81846138f0565b905092915050565b60006040820190508181036000830152613a9081613926565b9050613a9f602083018461395d565b92915050565b6000602082019050613aba600083018461395d565b92915050565b6000608082019050613ad5600083018761395d565b613ae2602083018661395d565b613aef604083018561395d565b613afc606083018461395d565b95945050505050565b6000604051905081810181811067ffffffffffffffff82111715613b2857600080fd5b8060405250919050565b600067ffffffffffffffff821115613b4957600080fd5b602082029050602081019050919050565b600067ffffffffffffffff821115613b7157600080fd5b602082029050602081019050919050565b600067ffffffffffffffff821115613b9957600080fd5b601f19601f8301169050602081019050919050565b600067ffffffffffffffff821115613bc557600080fd5b601f19601f8301169050602081019050919050565b6000602082019050919050565b600081519050919050565b600081519050919050565b6000602082019050919050565b60008115159050919050565b6000819050919050565b6000819050919050565b6000819050919050565b6000819050919050565b6000819050919050565b82818337600083830152505050565b60005b83811015613c75578082015181840152602081019050613c5a565b83811115613c84576000848401525b50505050565b6000601f19601f830116905091905056fea265627a7a723058200dfbeb417de802fefaca8ce5f05dea663a5668b32f25ea110c65b1bf1a9c73496c6578706572696d656e74616cf50037",
  "source": "pragma solidity >=0.4.21 <0.6.0;\npragma experimental ABIEncoderV2; // solium-disable-line no-experimental \n//import \"chainlink/contracts/ChainlinkClient.sol\";\nimport \"./RangeProofValidator.sol\";\n\ncontract ZkSensors is RangeProofValidator{\n\n  struct Details {\n        uint timestamp_c1;\n        uint timestamp_c2;\n        uint orientation_c1;\n        uint orientation_c2;\n  }\n\n\n  mapping(bytes32 => Details[]) idToSensorReport;\n  mapping(bytes32 => bytes) idToZkProof;\n  bytes32[] sensorIds;\n\n  event SensorReport(bytes32 _id,uint _tc1, uint _tc2, uint _oc1, uint _oc2);\n  event ProofStored(bytes32 _id, bytes _proof);\n  event FailedProof(bytes32 _id, bytes _proof);\n\n  function sensorReport(bytes32 _id, uint _tc1, uint _tc2, uint _oc1, uint _oc2) public {\n    uint len = idToSensorReport[_id].length;\n    idToSensorReport[_id].push(Details({\n      timestamp_c1: _tc1,\n      timestamp_c2: _tc2,\n      orientation_c1: _oc1,\n      orientation_c2: _oc2\n    }));\n    sensorIds.push(_id);\n    emit SensorReport(_id, _tc1,_tc2,_oc1,_oc2);\n  }\n\n\n  function storeProof(bytes32 _id,bytes memory _proof) public returns(bool res){\n    idToZkProof[_id] = _proof;\n    emit ProofStored(_id,_proof);\n  }\n\n  function generateCommitment(uint _tc1,uint _tc2, uint _oc1, uint _oc2) public returns(bytes memory res){\n    res = abi.encodePacked(toBytes(_tc1),toBytes(_tc2),toBytes(_oc1),toBytes(_oc2));\n  }\n\n\n  function getAllIds() public view returns(bytes32[] memory){\n    return sensorIds;\n  }\n\n    function getSensorIdsLength() public view returns(uint){\n    return sensorIds.length;\n  }\n\n  function getDetailsByIdAndIndex(bytes32 _id, uint _index) public view returns(uint,uint,uint,uint){\n    Details storage _d =  idToSensorReport[_id][_index];\n    return (_d.timestamp_c1,_d.timestamp_c2,_d.orientation_c1,_d.orientation_c2);\n  }\n\n  function getNumberOfReportsById(bytes32 _id) public view returns(uint){\n    return idToSensorReport[_id].length;\n  }\n  function getZkProof(bytes32 _id) public view returns(bytes memory){\n    return idToZkProof[_id];\n  }\n}\n",
  "sourcePath": "C:/Nick/ethnyc/zksupply/contracts/ZkSensors.sol",
  "compiler": {
    "name": "solc",
    "version": "0.5.0+commit.1d4f565a.Emscripten.clang"
  },
  "schemaVersion": "3.0.1",
  "updatedAt": "2019-05-19T01:06:07.887Z",
  "devdoc": {
    "methods": {}
  },
  "userdoc": {
    "methods": {}
  }
}