{
  "contractName": "ZkSensors",
  "abi": [
    {
      "constant": false,
      "inputs": [
        {
          "name": "_x",
          "type": "bytes"
        },
        {
          "name": "_mod",
          "type": "bytes"
        }
      ],
      "name": "bmod",
      "outputs": [
        {
          "name": "ret",
          "type": "bytes"
        }
      ],
      "payable": false,
      "stateMutability": "nonpayable",
      "type": "function"
    },
    {
      "constant": false,
      "inputs": [
        {
          "name": "x",
          "type": "bytes"
        }
      ],
      "name": "square",
      "outputs": [
        {
          "name": "ret",
          "type": "bytes"
        }
      ],
      "payable": false,
      "stateMutability": "nonpayable",
      "type": "function"
    },
    {
      "constant": false,
      "inputs": [
        {
          "name": "a",
          "type": "bytes"
        },
        {
          "name": "b",
          "type": "bytes"
        }
      ],
      "name": "bigadd",
      "outputs": [
        {
          "name": "ret",
          "type": "bytes"
        }
      ],
      "payable": false,
      "stateMutability": "nonpayable",
      "type": "function"
    },
    {
      "constant": true,
      "inputs": [
        {
          "name": "x",
          "type": "bytes"
        },
        {
          "name": "n",
          "type": "int256"
        }
      ],
      "name": "shiftLeft",
      "outputs": [
        {
          "name": "ret",
          "type": "bytes"
        }
      ],
      "payable": false,
      "stateMutability": "pure",
      "type": "function"
    },
    {
      "constant": false,
      "inputs": [
        {
          "name": "_base",
          "type": "bytes"
        },
        {
          "name": "_exp",
          "type": "bytes"
        },
        {
          "name": "_mod",
          "type": "bytes"
        }
      ],
      "name": "modexp",
      "outputs": [
        {
          "name": "",
          "type": "bytes"
        }
      ],
      "payable": true,
      "stateMutability": "payable",
      "type": "function"
    },
    {
      "constant": false,
      "inputs": [
        {
          "name": "a",
          "type": "bytes"
        },
        {
          "name": "b",
          "type": "bytes"
        }
      ],
      "name": "multiply",
      "outputs": [
        {
          "name": "ret",
          "type": "bytes"
        }
      ],
      "payable": false,
      "stateMutability": "nonpayable",
      "type": "function"
    },
    {
      "constant": false,
      "inputs": [
        {
          "name": "a",
          "type": "bytes"
        },
        {
          "name": "b",
          "type": "bytes"
        }
      ],
      "name": "bigsub",
      "outputs": [
        {
          "name": "ret",
          "type": "bytes"
        }
      ],
      "payable": false,
      "stateMutability": "nonpayable",
      "type": "function"
    },
    {
      "constant": false,
      "inputs": [
        {
          "name": "lower",
          "type": "uint256"
        },
        {
          "name": "upper",
          "type": "uint256"
        },
        {
          "name": "commitment",
          "type": "bytes"
        },
        {
          "name": "proof",
          "type": "bytes"
        }
      ],
      "name": "validate",
      "outputs": [
        {
          "name": "",
          "type": "bool"
        }
      ],
      "payable": false,
      "stateMutability": "nonpayable",
      "type": "function"
    },
    {
      "constant": true,
      "inputs": [
        {
          "name": "x",
          "type": "uint256"
        }
      ],
      "name": "toBigInt",
      "outputs": [
        {
          "name": "ret",
          "type": "bytes"
        }
      ],
      "payable": false,
      "stateMutability": "pure",
      "type": "function"
    },
    {
      "constant": true,
      "inputs": [
        {
          "name": "x",
          "type": "bytes"
        },
        {
          "name": "bitShift",
          "type": "uint256"
        }
      ],
      "name": "shiftBitsRight",
      "outputs": [
        {
          "name": "y",
          "type": "bytes"
        }
      ],
      "payable": false,
      "stateMutability": "pure",
      "type": "function"
    },
    {
      "inputs": [],
      "payable": false,
      "stateMutability": "nonpayable",
      "type": "constructor"
    },
    {
      "anonymous": false,
      "inputs": [
        {
          "indexed": false,
          "name": "_s",
          "type": "string"
        },
        {
          "indexed": false,
          "name": "_u",
          "type": "uint256"
        }
      ],
      "name": "Print",
      "type": "event"
    },
    {
      "constant": false,
      "inputs": [
        {
          "name": "_id",
          "type": "uint256"
        },
        {
          "name": "_hash",
          "type": "bytes32"
        }
      ],
      "name": "senssorReport",
      "outputs": [],
      "payable": false,
      "stateMutability": "nonpayable",
      "type": "function"
    }
  ],
  "bytecode": "0x608060405234801561001057600080fd5b5033600360006101000a81548173ffffffffffffffffffffffffffffffffffffffff021916908373ffffffffffffffffffffffffffffffffffffffff160217905550611b92806100616000396000f3fe6080604052600436106100af576000357c0100000000000000000000000000000000000000000000000000000000900463ffffffff16806344f94bda146100b457806368b54a3a1461028c5780636d8e8182146103cd5780637366fe4e146105a5578063830058ab146105ea5780638b4c9e8314610735578063a4d662d814610997578063a59bc5e814610b6f578063a61d7e3e14610d47578063a6203b4114610ed2578063ff27c47614610f86575b600080fd5b3480156100c057600080fd5b50610211600480360360408110156100d757600080fd5b81019080803590602001906401000000008111156100f457600080fd5b82018360208201111561010657600080fd5b8035906020019184600183028401116401000000008311171561012857600080fd5b91908080601f016020809104026020016040519081016040528093929190818152602001838380828437600081840152601f19601f8201169050808301925050505050505091929192908035906020019064010000000081111561018b57600080fd5b82018360208201111561019d57600080fd5b803590602001918460018302840111640100000000831117156101bf57600080fd5b91908080601f016020809104026020016040519081016040528093929190818152602001838380828437600081840152601f19601f8201169050808301925050505050505091929192905050506110d1565b6040518080602001828103825283818151815260200191508051906020019080838360005b83811015610251578082015181840152602081019050610236565b50505050905090810190601f16801561027e5780820380516001836020036101000a031916815260200191505b509250505060405180910390f35b34801561029857600080fd5b50610352600480360360208110156102af57600080fd5b81019080803590602001906401000000008111156102cc57600080fd5b8201836020820111156102de57600080fd5b8035906020019184600183028401116401000000008311171561030057600080fd5b91908080601f016020809104026020016040519081016040528093929190818152602001838380828437600081840152601f19601f8201169050808301925050505050505091929192905050506110ef565b6040518080602001828103825283818151815260200191508051906020019080838360005b83811015610392578082015181840152602081019050610377565b50505050905090810190601f1680156103bf5780820380516001836020036101000a031916815260200191505b509250505060405180910390f35b3480156103d957600080fd5b5061052a600480360360408110156103f057600080fd5b810190808035906020019064010000000081111561040d57600080fd5b82018360208201111561041f57600080fd5b8035906020019184600183028401116401000000008311171561044157600080fd5b91908080601f016020809104026020016040519081016040528093929190818152602001838380828437600081840152601f19601f820116905080830192505050505050509192919290803590602001906401000000008111156104a457600080fd5b8201836020820111156104b657600080fd5b803590602001918460018302840111640100000000831117156104d857600080fd5b91908080601f016020809104026020016040519081016040528093929190818152602001838380828437600081840152601f19601f82011690508083019250505050505050919291929050505061111e565b6040518080602001828103825283818151815260200191508051906020019080838360005b8381101561056a57808201518184015260208101905061054f565b50505050905090810190601f1680156105975780820380516001836020036101000a031916815260200191505b509250505060405180910390f35b3480156105b157600080fd5b506105e8600480360360408110156105c857600080fd5b810190808035906020019092919080359060200190929190505050611137565b005b3480156105f657600080fd5b506106ba6004803603604081101561060d57600080fd5b810190808035906020019064010000000081111561062a57600080fd5b82018360208201111561063c57600080fd5b8035906020019184600183028401116401000000008311171561065e57600080fd5b91908080601f016020809104026020016040519081016040528093929190818152602001838380828437600081840152601f19601f82011690508083019250505050505050919291929080359060200190929190505050611152565b6040518080602001828103825283818151815260200191508051906020019080838360005b838110156106fa5780820151818401526020810190506106df565b50505050905090810190601f1680156107275780820380516001836020036101000a031916815260200191505b509250505060405180910390f35b61091c6004803603606081101561074b57600080fd5b810190808035906020019064010000000081111561076857600080fd5b82018360208201111561077a57600080fd5b8035906020019184600183028401116401000000008311171561079c57600080fd5b91908080601f016020809104026020016040519081016040528093929190818152602001838380828437600081840152601f19601f820116905080830192505050505050509192919290803590602001906401000000008111156107ff57600080fd5b82018360208201111561081157600080fd5b8035906020019184600183028401116401000000008311171561083357600080fd5b91908080601f016020809104026020016040519081016040528093929190818152602001838380828437600081840152601f19601f8201169050808301925050505050505091929192908035906020019064010000000081111561089657600080fd5b8201836020820111156108a857600080fd5b803590602001918460018302840111640100000000831117156108ca57600080fd5b91908080601f016020809104026020016040519081016040528093929190818152602001838380828437600081840152601f19601f820116905080830192505050505050509192919290505050611258565b6040518080602001828103825283818151815260200191508051906020019080838360005b8381101561095c578082015181840152602081019050610941565b50505050905090810190601f1680156109895780820380516001836020036101000a031916815260200191505b509250505060405180910390f35b3480156109a357600080fd5b50610af4600480360360408110156109ba57600080fd5b81019080803590602001906401000000008111156109d757600080fd5b8201836020820111156109e957600080fd5b80359060200191846001830284011164010000000083111715610a0b57600080fd5b91908080601f016020809104026020016040519081016040528093929190818152602001838380828437600081840152601f19601f82011690508083019250505050505050919291929080359060200190640100000000811115610a6e57600080fd5b820183602082011115610a8057600080fd5b80359060200191846001830284011164010000000083111715610aa257600080fd5b91908080601f016020809104026020016040519081016040528093929190818152602001838380828437600081840152601f19601f820116905080830192505050505050509192919290505050611373565b6040518080602001828103825283818151815260200191508051906020019080838360005b83811015610b34578082015181840152602081019050610b19565b50505050905090810190601f168015610b615780820380516001836020036101000a031916815260200191505b509250505060405180910390f35b348015610b7b57600080fd5b50610ccc60048036036040811015610b9257600080fd5b8101908080359060200190640100000000811115610baf57600080fd5b820183602082011115610bc157600080fd5b80359060200191846001830284011164010000000083111715610be357600080fd5b91908080601f016020809104026020016040519081016040528093929190818152602001838380828437600081840152601f19601f82011690508083019250505050505050919291929080359060200190640100000000811115610c4657600080fd5b820183602082011115610c5857600080fd5b80359060200191846001830284011164010000000083111715610c7a57600080fd5b91908080601f016020809104026020016040519081016040528093929190818152602001838380828437600081840152601f19601f820116905080830192505050505050509192919290505050611415565b6040518080602001828103825283818151815260200191508051906020019080838360005b83811015610d0c578082015181840152602081019050610cf1565b50505050905090810190601f168015610d395780820380516001836020036101000a031916815260200191505b509250505060405180910390f35b348015610d5357600080fd5b50610eb860048036036080811015610d6a57600080fd5b81019080803590602001909291908035906020019092919080359060200190640100000000811115610d9b57600080fd5b820183602082011115610dad57600080fd5b80359060200191846001830284011164010000000083111715610dcf57600080fd5b91908080601f016020809104026020016040519081016040528093929190818152602001838380828437600081840152601f19601f82011690508083019250505050505050919291929080359060200190640100000000811115610e3257600080fd5b820183602082011115610e4457600080fd5b80359060200191846001830284011164010000000083111715610e6657600080fd5b91908080601f016020809104026020016040519081016040528093929190818152602001838380828437600081840152601f19601f82011690508083019250505050505050919291929050505061142e565b604051808215151515815260200191505060405180910390f35b348015610ede57600080fd5b50610f0b60048036036020811015610ef557600080fd5b810190808035906020019092919050505061172f565b6040518080602001828103825283818151815260200191508051906020019080838360005b83811015610f4b578082015181840152602081019050610f30565b50505050905090810190601f168015610f785780820380516001836020036101000a031916815260200191505b509250505060405180910390f35b348015610f9257600080fd5b5061105660048036036040811015610fa957600080fd5b8101908080359060200190640100000000811115610fc657600080fd5b820183602082011115610fd857600080fd5b80359060200191846001830284011164010000000083111715610ffa57600080fd5b91908080601f016020809104026020016040519081016040528093929190818152602001838380828437600081840152601f19601f82011690508083019250505050505050919291929080359060200190929190505050611773565b6040518080602001828103825283818151815260200191508051906020019080838360005b8381101561109657808201518184015260208101905061107b565b50505050905090810190601f1680156110c35780820380516001836020036101000a031916815260200191505b509250505060405180910390f35b60606110e7836110e1600161172f565b84611258565b905092915050565b606080611100836008855102611152565b905061111683611110600261172f565b83611258565b915050919050565b606061112c83836000611866565b508091505092915050565b80600080848152602001908152602001600020819055505050565b606060006101008060088651028560ff010181151561116d57fe5b050290506000811315156111b85760006040519080825280601f01601f1916602001820160405280156111af5781602001600182028038833980820191505090505b50915050611252565b6008818115156111c457fe5b046040519080825280601f01601f1916602001820160405280156111f75781602001600182028038833980820191505090505b5091506000825185511061120c57825161120f565b84515b905060008060208701915060208501905061122b818385611a94565b6000866008895102860303905061124a6112458783611773565b611abf565b955050505050505b92915050565b60606000845190506000845190506000845190506060816040519080825280601f01601f1916602001820160405280156112a15781602001600182028038833980820191505090505b5090506000828486606001010190506060816040519080825280601f01601f1916602001820160405280156112e55781602001600182028038833980820191505090505b5090506020810186815285602082015284604082015286606082018860208e01600060046101c2f1868860600183018860208e01600060046101c2f190508586850383018760208d01600060046101c2f1905085602086018584600060056105465a03f1905050508385876060010101815114151561136357600080fd5b8296505050505050509392505050565b606080611380600261172f565b9050606061138e858561111e565b9050606061139c8686611415565b905060606113ae836008855102611152565b905060606113bd848684611258565b905060606113cc848785611258565b905060606113da8383611415565b9050611406817ffffffffffffffffffffffffffffffffffffffffffffffffffffffffffffffffe611152565b97505050505050505092915050565b606061142383836001611866565b508091505092915050565b60006060600760405190808252806020026020018201604052801561146757816020015b60608152602001906001900390816114525790505b5090506060601f6040519080825280602002602001820160405280156114a157816020015b606081526020019060019003908161148c5790505b509050606060008060606000808a955060008090505b88518110156115ab5786818151811015156114ce57fe5b90602001906020020151915086818151811015156114e857fe5b9060200190602002015160018a5103821461151d57876001830181518110151561150e57fe5b90602001906020020151611520565b8c515b039250826040519080825280601f01601f1916602001820160405280156115565781602001600182028038833980820191505090505b5093506020840195508160208d010194506108008310151561157757600080fd5b611582868685611a94565b83898281518110151561159157fe5b9060200190602002018190525080806001019150506114b7565b508995507f5ecf36f705605fd144b15d76100246c2b9af70ede5b61b9f6b4f2a53c577ee148a5160405180806020018381526020018281038252600c8152602001807f70726f6f66206c656e67746800000000000000000000000000000000000000008152506020019250505060405180910390a160008090505b875181101561171a57868181518110151561163d57fe5b906020019060200201519150868181518110151561165757fe5b906020019060200201516001895103821461168c57876001830181518110151561167d57fe5b9060200190602002015161168f565b8b515b039250826040519080825280601f01601f1916602001820160405280156116c55781602001600182028038833980820191505090505b5093506020840195508160208c01019450612000831015156116e657600080fd5b6116f1868685611a94565b83888281518110151561170057fe5b906020019060200201819052508080600101915050611626565b50600198505050505050505050949350505050565b606060206040519080825280601f01601f1916602001820160405280156117655781602001600182028038833980820191505090505b509050816020820152919050565b6060600082141561178657829050611860565b60ff821115151561179657600080fd5b6000602084518115156117a557fe5b061415156117b257600080fd5b82516040519080825280601f01601f1916602001820160405280156117e65781602001600182028038833980820191505090505b509050600060018360019060020a020390506000836101000360020a905060008460020a905060008090505b865181101561185b5760008083602084018a01518719160491506000831415156118435784838a0151871602820191505b60208301870190508181525050602081019050611812565b505050505b92915050565b60606000835185511161187a57835161187d565b84515b6040519080825280601f01601f1916602001820160405280156118af5781602001600182028038833980820191505090505b509150600080600060208801925060208701915060208501905060006020895103840190506000602089510384019050600080905060006020895186010390505b84811015156119b05760008090506000809050888610151561191157855191505b878510151561191f57845190505b8b15611959578381830303835281818303118061194157508082038482840303115b61194c57600061194f565b60015b60ff169350611989565b8381830101835281818301108061197557508082018482840101105b611980576000611983565b60015b60ff1693505b808214151561199757600199505b60208603955060208503945050506020810390506118f0565b506001811415611a7f578815611a0e576119db6119cc89611b32565b6119d6600161172f565b61111e565b7fffffffffffffffffffffffffffffffffffffffffffffffffffffffffffffffff80905097509750505050505050611a8c565b606060208951016040519080825280601f01601f191660200182016040528015611a475781602001600182028038833980820191505090505b509050602089019350604081019250611a6283858b51611a94565b600160208201528060018090509850985050505050505050611a8c565b8787975097505050505050505b935093915050565b5b602081101515611aba5781518352602083019250602082019150602081039050611a95565b505050565b6060600060208351811515611ad057fe5b06141515611add57600080fd5b600060019050600080600090505b8451811015611b1f57602081018501511592508215611b0f57602082019150611b14565b611b1f565b602081019050611aeb565b5080840192508084510383525050919050565b60606000806020840191508351820190505b80821015611b5c578151198252602082019150611b44565b839250505091905056fea165627a7a723058202cb6a4d68b0b308636380344433cd23aa4d199274f6708e611388f1d5d2cd6e80029",
  "source": "pragma solidity >=0.4.21 <0.6.0;\n\n//import \"chainlink/contracts/ChainlinkClient.sol\";\nimport \"./RangeProofValidator.sol\";\n\ncontract ZkSensors is RangeProofValidator{\n  mapping(uint => bytes32) idToSensorReport;\n  mapping(uint => bytes) idToZkProof;\n  mapping(uint => bool) isVerified;\n  address owner;\n\n\n\n  constructor() public {\n    owner = msg.sender;\n  }\n\n  modifier restricted() {\n    if (msg.sender == owner) _;\n  }\n\n  function senssorReport(uint _id, bytes32 _hash) public {\n    idToSensorReport[_id] = _hash;\n  }\n\n  // function submitProof(bytes memory _zkproof) public{\n\n\n\n  // }\n\n  // function verifyProof(uint _id) public returns(bool){\n\n  // }\n\n\n}\n",
  "sourcePath": "C:/Nick/ethnyc/zksupply/contracts/ZkSensors.sol",
  "compiler": {
    "name": "solc",
    "version": "0.5.0+commit.1d4f565a.Emscripten.clang"
  },
  "schemaVersion": "3.0.1",
  "updatedAt": "2019-05-18T17:11:06.006Z",
  "devdoc": {
    "methods": {}
  },
  "userdoc": {
    "methods": {}
  }
}