{
  "contractName": "ZkSensors",
  "abi": [
    {
      "anonymous": false,
      "inputs": [
        {
          "indexed": false,
          "name": "_id",
          "type": "bytes32"
        },
        {
          "indexed": false,
          "name": "_tc1",
          "type": "uint256"
        },
        {
          "indexed": false,
          "name": "_tc2",
          "type": "uint256"
        },
        {
          "indexed": false,
          "name": "_oc1",
          "type": "uint256"
        },
        {
          "indexed": false,
          "name": "_oc2",
          "type": "uint256"
        },
        {
          "indexed": false,
          "name": "_ec1",
          "type": "uint256"
        },
        {
          "indexed": false,
          "name": "_ec2",
          "type": "uint256"
        }
      ],
      "name": "SensorReport",
      "type": "event"
    },
    {
      "anonymous": false,
      "inputs": [
        {
          "indexed": false,
          "name": "_id",
          "type": "bytes32"
        },
        {
          "indexed": false,
          "name": "_proof",
          "type": "bytes"
        }
      ],
      "name": "ProofStored",
      "type": "event"
    },
    {
      "anonymous": false,
      "inputs": [
        {
          "indexed": false,
          "name": "_id",
          "type": "bytes32"
        },
        {
          "indexed": false,
          "name": "_proof",
          "type": "bytes"
        }
      ],
      "name": "FailedProof",
      "type": "event"
    },
    {
      "constant": false,
      "inputs": [
        {
          "name": "_id",
          "type": "bytes32"
        },
        {
          "name": "_tc1",
          "type": "uint256"
        },
        {
          "name": "_tc2",
          "type": "uint256"
        },
        {
          "name": "_oc1",
          "type": "uint256"
        },
        {
          "name": "_oc2",
          "type": "uint256"
        },
        {
          "name": "_ec1",
          "type": "uint256"
        },
        {
          "name": "_ec2",
          "type": "uint256"
        }
      ],
      "name": "sensorReport",
      "outputs": [],
      "payable": false,
      "stateMutability": "nonpayable",
      "type": "function"
    },
    {
      "constant": false,
      "inputs": [
        {
          "name": "_id",
          "type": "bytes32"
        },
        {
          "name": "_proof",
          "type": "bytes"
        }
      ],
      "name": "storeProof",
      "outputs": [
        {
          "name": "res",
          "type": "bool"
        }
      ],
      "payable": false,
      "stateMutability": "nonpayable",
      "type": "function"
    },
    {
      "constant": true,
      "inputs": [],
      "name": "getAllIds",
      "outputs": [
        {
          "name": "",
          "type": "bytes32[]"
        }
      ],
      "payable": false,
      "stateMutability": "view",
      "type": "function"
    },
    {
      "constant": true,
      "inputs": [],
      "name": "getSensorIdsLength",
      "outputs": [
        {
          "name": "",
          "type": "uint256"
        }
      ],
      "payable": false,
      "stateMutability": "view",
      "type": "function"
    },
    {
      "constant": true,
      "inputs": [
        {
          "name": "_id",
          "type": "bytes32"
        },
        {
          "name": "_index",
          "type": "uint256"
        }
      ],
      "name": "getDetailsByIdAndIndex",
      "outputs": [
        {
          "name": "",
          "type": "uint256"
        },
        {
          "name": "",
          "type": "uint256"
        },
        {
          "name": "",
          "type": "uint256"
        },
        {
          "name": "",
          "type": "uint256"
        },
        {
          "name": "",
          "type": "uint256"
        },
        {
          "name": "",
          "type": "uint256"
        }
      ],
      "payable": false,
      "stateMutability": "view",
      "type": "function"
    },
    {
      "constant": true,
      "inputs": [
        {
          "name": "_id",
          "type": "bytes32"
        }
      ],
      "name": "getNumberOfReportsById",
      "outputs": [
        {
          "name": "",
          "type": "uint256"
        }
      ],
      "payable": false,
      "stateMutability": "view",
      "type": "function"
    },
    {
      "constant": true,
      "inputs": [
        {
          "name": "_id",
          "type": "bytes32"
        }
      ],
      "name": "getZkProof",
      "outputs": [
        {
          "name": "",
          "type": "bytes"
        }
      ],
      "payable": false,
      "stateMutability": "view",
      "type": "function"
    }
  ],
  "bytecode": "0x608060405234801561001057600080fd5b50610b54806100206000396000f3fe608060405260043610610083576000357c0100000000000000000000000000000000000000000000000000000000900463ffffffff1680633e4129cd146100885780637ffa7d4d146100c5578063a77992f4146100ee578063aaa44e5c14610130578063b2b122871461015b578063c743d10c14610198578063e8143cfe146101d5575b600080fd5b34801561009457600080fd5b506100af60048036036100aa91908101906106a4565b610200565b6040516100bc91906108b2565b60405180910390f35b3480156100d157600080fd5b506100ec60048036036100e79190810190610734565b610269565b005b3480156100fa57600080fd5b50610115600480360361011091908101906106f8565b6103b0565b604051610127969594939291906109a9565b60405180910390f35b34801561013c57600080fd5b5061014561041f565b6040516101529190610890565b60405180910390f35b34801561016757600080fd5b50610182600480360361017d919081019061067b565b610477565b60405161018f919061096c565b60405180910390f35b3480156101a457600080fd5b506101bf60048036036101ba919081019061067b565b61052c565b6040516101cc919061098e565b60405180910390f35b3480156101e157600080fd5b506101ea61054b565b6040516101f7919061098e565b60405180910390f35b600081600160008581526020019081526020016000209080519060200190610229929190610558565b507f9318e276a703f49128b07bbab294affa01a4eb684acf24e9bc2b4c0dab9da62c838360405161025b9291906108cd565b60405180910390a192915050565b600080600089815260200190815260200160002080549050905060008089815260200190815260200160002060c0604051908101604052808981526020018881526020018781526020018681526020018581526020018481525090806001815401808255809150509060018203906000526020600020906006020160009091929091909150600082015181600001556020820151816001015560408201518160020155606082015181600301556080820151816004015560a0820151816005015550505060008114156103635760028890806001815401808255809150509060018203906000526020600020016000909192909190915055505b7f340c601dc6fca484328e0d880f4baa0ecb3d314d77f136dbbc194d10ef43c7df8888888888888860405161039e97969594939291906108fd565b60405180910390a15050505050505050565b60008060008060008060008060008a8152602001908152602001600020888154811015156103da57fe5b90600052602060002090600602019050806000015481600101548260020154836003015484600401548560050154965096509650965096509650509295509295509295565b6060600280548060200260200160405190810160405280929190818152602001828054801561046d57602002820191906000526020600020905b815481526020019060010190808311610459575b5050505050905090565b6060600160008381526020019081526020016000208054600181600116156101000203166002900480601f0160208091040260200160405190810160405280929190818152602001828054600181600116156101000203166002900480156105205780601f106104f557610100808354040283529160200191610520565b820191906000526020600020905b81548152906001019060200180831161050357829003601f168201915b50505050509050919050565b6000806000838152602001908152602001600020805490509050919050565b6000600280549050905090565b828054600181600116156101000203166002900490600052602060002090601f016020900481019282601f1061059957805160ff19168380011785556105c7565b828001600101855582156105c7579182015b828111156105c65782518255916020019190600101906105ab565b5b5090506105d491906105d8565b5090565b6105fa91905b808211156105f65760008160009055506001016105de565b5090565b90565b60006106098235610ab3565b905092915050565b600082601f830112151561062457600080fd5b813561063761063282610a37565b610a0a565b9150808252602083016020830185838301111561065357600080fd5b61065e838284610ac7565b50505092915050565b60006106738235610abd565b905092915050565b60006020828403121561068d57600080fd5b600061069b848285016105fd565b91505092915050565b600080604083850312156106b757600080fd5b60006106c5858286016105fd565b925050602083013567ffffffffffffffff8111156106e257600080fd5b6106ee85828601610611565b9150509250929050565b6000806040838503121561070b57600080fd5b6000610719858286016105fd565b925050602061072a85828601610667565b9150509250929050565b600080600080600080600060e0888a03121561074f57600080fd5b600061075d8a828b016105fd565b975050602061076e8a828b01610667565b965050604061077f8a828b01610667565b95505060606107908a828b01610667565b94505060806107a18a828b01610667565b93505060a06107b28a828b01610667565b92505060c06107c38a828b01610667565b91505092959891949750929550565b60006107dd82610a70565b8084526020840193506107ef83610a63565b60005b828110156108215761080586835161083c565b61080e82610a86565b91506020860195506001810190506107f2565b50849250505092915050565b61083681610a93565b82525050565b61084581610a9f565b82525050565b600061085682610a7b565b80845261086a816020860160208601610ad6565b61087381610b09565b602085010191505092915050565b61088a81610aa9565b82525050565b600060208201905081810360008301526108aa81846107d2565b905092915050565b60006020820190506108c7600083018461082d565b92915050565b60006040820190506108e2600083018561083c565b81810360208301526108f4818461084b565b90509392505050565b600060e082019050610912600083018a61083c565b61091f6020830189610881565b61092c6040830188610881565b6109396060830187610881565b6109466080830186610881565b61095360a0830185610881565b61096060c0830184610881565b98975050505050505050565b60006020820190508181036000830152610986818461084b565b905092915050565b60006020820190506109a36000830184610881565b92915050565b600060c0820190506109be6000830189610881565b6109cb6020830188610881565b6109d86040830187610881565b6109e56060830186610881565b6109f26080830185610881565b6109ff60a0830184610881565b979650505050505050565b6000604051905081810181811067ffffffffffffffff82111715610a2d57600080fd5b8060405250919050565b600067ffffffffffffffff821115610a4e57600080fd5b601f19601f8301169050602081019050919050565b6000602082019050919050565b600081519050919050565b600081519050919050565b6000602082019050919050565b60008115159050919050565b6000819050919050565b6000819050919050565b6000819050919050565b6000819050919050565b82818337600083830152505050565b60005b83811015610af4578082015181840152602081019050610ad9565b83811115610b03576000848401525b50505050565b6000601f19601f830116905091905056fea265627a7a7230582092ecadd2efab044a2200eef5c24e5308226aa9ed7db55736355badfbd3a890286c6578706572696d656e74616cf50037",
  "source": "pragma solidity >=0.4.21 <0.6.0;\npragma experimental ABIEncoderV2; // solium-disable-line no-experimental \n//import \"chainlink/contracts/ChainlinkClient.sol\";\n//import \"./RangeProofValidator.sol\";\n\ncontract ZkSensors{\n\n  struct Details {\n        uint timestamp_c1;\n        uint timestamp_c2;\n        uint orientation_c1;\n        uint orientation_c2;\n        uint ephemeralkey_c1;\n        uint ephemeralkey_c2;\n  }\n\n\n  mapping(bytes32 => Details[]) idToSensorReport;\n  mapping(bytes32 => bytes) idToZkProof;\n  bytes32[] sensorIds;\n\n  event SensorReport(bytes32 _id,uint _tc1, uint _tc2, uint _oc1, uint _oc2, uint _ec1, uint _ec2);\n  event ProofStored(bytes32 _id, bytes _proof);\n  event FailedProof(bytes32 _id, bytes _proof);\n\n  function sensorReport(bytes32 _id, uint _tc1, uint _tc2, uint _oc1, uint _oc2, uint _ec1, uint _ec2) public {\n    uint len = idToSensorReport[_id].length;\n    idToSensorReport[_id].push(Details({\n      timestamp_c1: _tc1,\n      timestamp_c2: _tc2,\n      orientation_c1: _oc1,\n      orientation_c2: _oc2,\n      ephemeralkey_c1: _ec1,\n      ephemeralkey_c2: _ec2\n    }));\n    if(len == 0){\n         sensorIds.push(_id); \n    }\n    emit SensorReport(_id, _tc1,_tc2,_oc1,_oc2,_ec1,_ec2);\n  }\n\n\n  function storeProof(bytes32 _id,bytes memory _proof) public returns(bool res){\n    idToZkProof[_id] = _proof;\n    emit ProofStored(_id,_proof);\n  }\n\n  function getAllIds() public view returns(bytes32[] memory){\n    return sensorIds;\n  }\n\n    function getSensorIdsLength() public view returns(uint){\n    return sensorIds.length;\n  }\n\n  function getDetailsByIdAndIndex(bytes32 _id, uint _index) public view returns(uint,uint,uint,uint,uint,uint){\n    Details storage _d =  idToSensorReport[_id][_index];\n    return (_d.timestamp_c1,_d.timestamp_c2,_d.orientation_c1,_d.orientation_c2,_d.ephemeralkey_c1,_d.ephemeralkey_c2);\n  }\n\n  function getNumberOfReportsById(bytes32 _id) public view returns(uint){\n    return idToSensorReport[_id].length;\n  }\n  function getZkProof(bytes32 _id) public view returns(bytes memory){\n    return idToZkProof[_id];\n  }\n}\n",
  "sourcePath": "C:/Nick/ethnyc/zksupply/contracts/ZkSensors.sol",
  "compiler": {
    "name": "solc",
    "version": "0.5.0+commit.1d4f565a.Emscripten.clang"
  },
  "schemaVersion": "3.0.1",
  "updatedAt": "2019-05-19T02:02:07.907Z",
  "devdoc": {
    "methods": {}
  },
  "userdoc": {
    "methods": {}
  }
}