{
  "contractName": "ZkSensors",
  "abi": [
    {
      "constant": false,
      "inputs": [
        {
          "name": "_x",
          "type": "bytes"
        },
        {
          "name": "_mod",
          "type": "bytes"
        }
      ],
      "name": "bmod",
      "outputs": [
        {
          "name": "ret",
          "type": "bytes"
        }
      ],
      "payable": false,
      "stateMutability": "nonpayable",
      "type": "function"
    },
    {
      "constant": false,
      "inputs": [
        {
          "name": "x",
          "type": "bytes"
        }
      ],
      "name": "square",
      "outputs": [
        {
          "name": "ret",
          "type": "bytes"
        }
      ],
      "payable": false,
      "stateMutability": "nonpayable",
      "type": "function"
    },
    {
      "constant": false,
      "inputs": [
        {
          "name": "a",
          "type": "bytes"
        },
        {
          "name": "b",
          "type": "bytes"
        }
      ],
      "name": "bigadd",
      "outputs": [
        {
          "name": "ret",
          "type": "bytes"
        }
      ],
      "payable": false,
      "stateMutability": "nonpayable",
      "type": "function"
    },
    {
      "constant": true,
      "inputs": [
        {
          "name": "x",
          "type": "bytes"
        },
        {
          "name": "n",
          "type": "int256"
        }
      ],
      "name": "shiftLeft",
      "outputs": [
        {
          "name": "ret",
          "type": "bytes"
        }
      ],
      "payable": false,
      "stateMutability": "pure",
      "type": "function"
    },
    {
      "constant": false,
      "inputs": [
        {
          "name": "_base",
          "type": "bytes"
        },
        {
          "name": "_exp",
          "type": "bytes"
        },
        {
          "name": "_mod",
          "type": "bytes"
        }
      ],
      "name": "modexp",
      "outputs": [
        {
          "name": "",
          "type": "bytes"
        }
      ],
      "payable": true,
      "stateMutability": "payable",
      "type": "function"
    },
    {
      "constant": false,
      "inputs": [
        {
          "name": "a",
          "type": "bytes"
        },
        {
          "name": "b",
          "type": "bytes"
        }
      ],
      "name": "multiply",
      "outputs": [
        {
          "name": "ret",
          "type": "bytes"
        }
      ],
      "payable": false,
      "stateMutability": "nonpayable",
      "type": "function"
    },
    {
      "constant": false,
      "inputs": [
        {
          "name": "a",
          "type": "bytes"
        },
        {
          "name": "b",
          "type": "bytes"
        }
      ],
      "name": "bigsub",
      "outputs": [
        {
          "name": "ret",
          "type": "bytes"
        }
      ],
      "payable": false,
      "stateMutability": "nonpayable",
      "type": "function"
    },
    {
      "constant": false,
      "inputs": [
        {
          "name": "lower",
          "type": "uint256"
        },
        {
          "name": "upper",
          "type": "uint256"
        },
        {
          "name": "commitment",
          "type": "bytes"
        },
        {
          "name": "proof",
          "type": "bytes"
        }
      ],
      "name": "validate",
      "outputs": [
        {
          "name": "",
          "type": "bool"
        }
      ],
      "payable": false,
      "stateMutability": "nonpayable",
      "type": "function"
    },
    {
      "constant": true,
      "inputs": [
        {
          "name": "x",
          "type": "uint256"
        }
      ],
      "name": "toBigInt",
      "outputs": [
        {
          "name": "ret",
          "type": "bytes"
        }
      ],
      "payable": false,
      "stateMutability": "pure",
      "type": "function"
    },
    {
      "constant": true,
      "inputs": [
        {
          "name": "x",
          "type": "bytes"
        },
        {
          "name": "bitShift",
          "type": "uint256"
        }
      ],
      "name": "shiftBitsRight",
      "outputs": [
        {
          "name": "y",
          "type": "bytes"
        }
      ],
      "payable": false,
      "stateMutability": "pure",
      "type": "function"
    },
    {
      "anonymous": false,
      "inputs": [
        {
          "indexed": false,
          "name": "_id",
          "type": "bytes32"
        },
        {
          "indexed": false,
          "name": "_tc1",
          "type": "uint256"
        },
        {
          "indexed": false,
          "name": "_tc2",
          "type": "uint256"
        },
        {
          "indexed": false,
          "name": "_oc1",
          "type": "uint256"
        },
        {
          "indexed": false,
          "name": "_oc2",
          "type": "uint256"
        }
      ],
      "name": "SensorReport",
      "type": "event"
    },
    {
      "anonymous": false,
      "inputs": [
        {
          "indexed": false,
          "name": "_id",
          "type": "bytes32"
        },
        {
          "indexed": false,
          "name": "_proof",
          "type": "bytes"
        }
      ],
      "name": "ProofVerified",
      "type": "event"
    },
    {
      "anonymous": false,
      "inputs": [
        {
          "indexed": false,
          "name": "_id",
          "type": "bytes32"
        },
        {
          "indexed": false,
          "name": "_proof",
          "type": "bytes"
        }
      ],
      "name": "FailedProof",
      "type": "event"
    },
    {
      "anonymous": false,
      "inputs": [
        {
          "indexed": false,
          "name": "_s",
          "type": "string"
        },
        {
          "indexed": false,
          "name": "_u",
          "type": "uint256"
        }
      ],
      "name": "Print",
      "type": "event"
    },
    {
      "constant": false,
      "inputs": [
        {
          "name": "_id",
          "type": "bytes32"
        },
        {
          "name": "_tc1",
          "type": "uint256"
        },
        {
          "name": "_tc2",
          "type": "uint256"
        },
        {
          "name": "_oc1",
          "type": "uint256"
        },
        {
          "name": "_oc2",
          "type": "uint256"
        }
      ],
      "name": "sensorReport",
      "outputs": [],
      "payable": false,
      "stateMutability": "nonpayable",
      "type": "function"
    },
    {
      "constant": false,
      "inputs": [
        {
          "name": "_id",
          "type": "bytes32"
        },
        {
          "name": "_proof",
          "type": "bytes"
        }
      ],
      "name": "verifyProof",
      "outputs": [
        {
          "name": "res",
          "type": "bool"
        }
      ],
      "payable": false,
      "stateMutability": "nonpayable",
      "type": "function"
    },
    {
      "constant": false,
      "inputs": [
        {
          "name": "_tc1",
          "type": "uint256"
        },
        {
          "name": "_tc2",
          "type": "uint256"
        },
        {
          "name": "_oc1",
          "type": "uint256"
        },
        {
          "name": "_oc2",
          "type": "uint256"
        }
      ],
      "name": "generateCommitment",
      "outputs": [
        {
          "name": "res",
          "type": "bytes"
        }
      ],
      "payable": false,
      "stateMutability": "nonpayable",
      "type": "function"
    },
    {
      "constant": true,
      "inputs": [],
      "name": "getAllIds",
      "outputs": [
        {
          "name": "",
          "type": "bytes32[]"
        }
      ],
      "payable": false,
      "stateMutability": "view",
      "type": "function"
    },
    {
      "constant": true,
      "inputs": [],
      "name": "getSensorIdsLength",
      "outputs": [
        {
          "name": "",
          "type": "uint256"
        }
      ],
      "payable": false,
      "stateMutability": "view",
      "type": "function"
    },
    {
      "constant": true,
      "inputs": [
        {
          "name": "_id",
          "type": "bytes32"
        },
        {
          "name": "_index",
          "type": "uint256"
        }
      ],
      "name": "getDetailsByIdAndIndex",
      "outputs": [
        {
          "components": [
            {
              "name": "timestamp_c1",
              "type": "uint256"
            },
            {
              "name": "timestamp_c2",
              "type": "uint256"
            },
            {
              "name": "orientation_c1",
              "type": "uint256"
            },
            {
              "name": "orientation_c2",
              "type": "uint256"
            }
          ],
          "name": "",
          "type": "tuple"
        }
      ],
      "payable": false,
      "stateMutability": "view",
      "type": "function"
    },
    {
      "constant": true,
      "inputs": [
        {
          "name": "_id",
          "type": "bytes32"
        }
      ],
      "name": "getNumberOfReportsById",
      "outputs": [
        {
          "name": "",
          "type": "uint256"
        }
      ],
      "payable": false,
      "stateMutability": "view",
      "type": "function"
    }
  ],
  "bytecode": "0x608060405234801561001057600080fd5b50611e72806100206000396000f3fe6080604052600436106100f1576000357c0100000000000000000000000000000000000000000000000000000000900463ffffffff16806344f94bda146100f657806348203b071461013357806368b54a3a146101705780636d8e8182146101ad57806376297485146101ea578063830058ab146102135780638b4c9e8314610250578063a4d662d814610280578063a59bc5e8146102bd578063a61d7e3e146102fa578063a6203b4114610337578063a77992f414610374578063aaa44e5c146103b1578063c743d10c146103dc578063dd15012314610419578063e8143cfe14610456578063ff27c47614610481575b600080fd5b34801561010257600080fd5b5061011d600480360361011891908101906117c4565b6104be565b60405161012a9190611c98565b60405180910390f35b34801561013f57600080fd5b5061015a6004803603610155919081019061167c565b6104dc565b6040516101679190611bfa565b60405180910390f35b34801561017c57600080fd5b5061019760048036036101929190810190611783565b61072f565b6040516101a49190611c98565b60405180910390f35b3480156101b957600080fd5b506101d460048036036101cf91908101906117c4565b61075e565b6040516101e19190611c98565b60405180910390f35b3480156101f657600080fd5b50610211600480360361020c919081019061170c565b610777565b005b34801561021f57600080fd5b5061023a600480360361023591908101906118c7565b610847565b6040516102479190611c98565b60405180910390f35b61026a60048036036102659190810190611830565b61094d565b6040516102779190611c98565b60405180910390f35b34801561028c57600080fd5b506102a760048036036102a291908101906117c4565b610a68565b6040516102b49190611c98565b60405180910390f35b3480156102c957600080fd5b506102e460048036036102df91908101906117c4565b610b0a565b6040516102f19190611c98565b60405180910390f35b34801561030657600080fd5b50610321600480360361031c9190810190611998565b610b23565b60405161032e9190611bfa565b60405180910390f35b34801561034357600080fd5b5061035e6004803603610359919081019061196f565b610deb565b60405161036b9190611c98565b60405180910390f35b34801561038057600080fd5b5061039b600480360361039691908101906116d0565b610e2f565b6040516103a89190611ce8565b60405180910390f35b3480156103bd57600080fd5b506103c6610ea0565b6040516103d39190611bd8565b60405180910390f35b3480156103e857600080fd5b5061040360048036036103fe9190810190611653565b610ef8565b6040516104109190611d03565b60405180910390f35b34801561042557600080fd5b50610440600480360361043b9190810190611a2b565b610f17565b60405161044d9190611c98565b60405180910390f35b34801561046257600080fd5b5061046b6110af565b6040516104789190611d03565b60405180910390f35b34801561048d57600080fd5b506104a860048036036104a3919081019061191b565b6110bc565b6040516104b59190611c98565b60405180910390f35b60606104d4836104ce6001610deb565b8461094d565b905092915050565b600080600090506000600390506000806000878152602001908152602001600020905060608060008090505b838054905081101561066f5761059c848281548110151561052557fe5b906000526020600020906004020160000154858381548110151561054557fe5b906000526020600020906004020160010154868481548110151561056557fe5b906000526020600020906004020160020154878581548110151561058557fe5b906000526020600020906004020160030154610f17565b925081836040516020018083805190602001908083835b6020831015156105d857805182526020820191506020810190506020830392506105b3565b6001836020036101000a03801982511681845116808217855250505050505090500182805190602001908083835b60208310151561062b5780518252602082019150602081019050602083039250610606565b6001836020036101000a0380198251168184511680821785525050505050509050019250505060405160208183030381529060405291508080600101915050610508565b5061067c8585838a610b23565b955085156106ea5786600160008a815260200190815260200160002090805190602001906106ab9291906114f3565b507f7cbc91a98bfbad119be72975afdebcccc83ff290a0b8f57ac4a833dbb2dabf7388886040516106dd929190611c15565b60405180910390a1610724565b7ff5a2065c0b13597568e0518d8144fd6639c4f06e130a6cc8fb89b596103e6460888860405161071b929190611c15565b60405180910390a15b505050505092915050565b606080610740836008855102610847565b9050610756836107506002610deb565b8361094d565b915050919050565b606061076c838360006111af565b508091505092915050565b6000808681526020019081526020016000206080604051908101604052808681526020018581526020018481526020018381525090806001815401808255809150509060018203906000526020600020906004020160009091929091909150600082015181600001556020820151816001015560408201518160020155606082015181600301555050507f0c323b5d94b5ad94b8fc54e94b398c0dda4a91f357df740844bb83a99365481a8585858585604051610838959493929190611c45565b60405180910390a15050505050565b606060006101008060088651028560ff010181151561086257fe5b050290506000811315156108ad5760006040519080825280601f01601f1916602001820160405280156108a45781602001600182028038833980820191505090505b50915050610947565b6008818115156108b957fe5b046040519080825280601f01601f1916602001820160405280156108ec5781602001600182028038833980820191505090505b50915060008251855110610901578251610904565b84515b90506000806020870191506020850190506109208183856113dd565b6000866008895102860303905061093f61093a87836110bc565b611408565b955050505050505b92915050565b60606000845190506000845190506000845190506060816040519080825280601f01601f1916602001820160405280156109965781602001600182028038833980820191505090505b5090506000828486606001010190506060816040519080825280601f01601f1916602001820160405280156109da5781602001600182028038833980820191505090505b5090506020810186815285602082015284604082015286606082018860208e01600060046101c2f1868860600183018860208e01600060046101c2f190508586850383018760208d01600060046101c2f1905085602086018584600060056105465a03f19050505083858760600101018151141515610a5857600080fd5b8296505050505050509392505050565b606080610a756002610deb565b90506060610a83858561075e565b90506060610a918686610b0a565b90506060610aa3836008855102610847565b90506060610ab284868461094d565b90506060610ac184878561094d565b90506060610acf8383610b0a565b9050610afb817ffffffffffffffffffffffffffffffffffffffffffffffffffffffffffffffffe610847565b97505050505050505092915050565b6060610b18838360016111af565b508091505092915050565b600060606007604051908082528060200260200182016040528015610b5c57816020015b6060815260200190600190039081610b475790505b5090506060601f604051908082528060200260200182016040528015610b9657816020015b6060815260200190600190039081610b815790505b509050606060008060606000808a955060008090505b8851811015610ca0578681815181101515610bc357fe5b9060200190602002015191508681815181101515610bdd57fe5b9060200190602002015160018a51038214610c12578760018301815181101515610c0357fe5b90602001906020020151610c15565b8c515b039250826040519080825280601f01601f191660200182016040528015610c4b5781602001600182028038833980820191505090505b5093506020840195508160208d0101945061080083101515610c6c57600080fd5b610c778686856113dd565b838982815181101515610c8657fe5b906020019060200201819052508080600101915050610bac565b508995507f5ecf36f705605fd144b15d76100246c2b9af70ede5b61b9f6b4f2a53c577ee148a51604051610cd49190611cba565b60405180910390a160008090505b8751811015610dd6578681815181101515610cf957fe5b9060200190602002015191508681815181101515610d1357fe5b9060200190602002015160018951038214610d48578760018301815181101515610d3957fe5b90602001906020020151610d4b565b8b515b039250826040519080825280601f01601f191660200182016040528015610d815781602001600182028038833980820191505090505b5093506020840195508160208c0101945061200083101515610da257600080fd5b610dad8686856113dd565b838882815181101515610dbc57fe5b906020019060200201819052508080600101915050610ce2565b50600198505050505050505050949350505050565b606060206040519080825280601f01601f191660200182016040528015610e215781602001600182028038833980820191505090505b509050816020820152919050565b610e37611573565b60008084815260200190815260200160002082815481101515610e5657fe5b906000526020600020906004020160806040519081016040529081600082015481526020016001820154815260200160028201548152602001600382015481525050905092915050565b60606002805480602002602001604051908101604052809291908181526020018280548015610eee57602002820191906000526020600020905b815481526020019060010190808311610eda575b5050505050905090565b6000806000838152602001908152602001600020805490509050919050565b6060610f228561147b565b610f2b8561147b565b610f348561147b565b610f3d8561147b565b6040516020018085805190602001908083835b602083101515610f755780518252602082019150602081019050602083039250610f50565b6001836020036101000a03801982511681845116808217855250505050505090500184805190602001908083835b602083101515610fc85780518252602082019150602081019050602083039250610fa3565b6001836020036101000a03801982511681845116808217855250505050505090500183805190602001908083835b60208310151561101b5780518252602082019150602081019050602083039250610ff6565b6001836020036101000a03801982511681845116808217855250505050505090500182805190602001908083835b60208310151561106e5780518252602082019150602081019050602083039250611049565b6001836020036101000a0380198251168184511680821785525050505050509050019450505050506040516020818303038152906040529050949350505050565b6000600280549050905090565b606060008214156110cf578290506111a9565b60ff82111515156110df57600080fd5b6000602084518115156110ee57fe5b061415156110fb57600080fd5b82516040519080825280601f01601f19166020018201604052801561112f5781602001600182028038833980820191505090505b509050600060018360019060020a020390506000836101000360020a905060008460020a905060008090505b86518110156111a45760008083602084018a015187191604915060008314151561118c5784838a0151871602820191505b6020830187019050818152505060208101905061115b565b505050505b92915050565b6060600083518551116111c35783516111c6565b84515b6040519080825280601f01601f1916602001820160405280156111f85781602001600182028038833980820191505090505b509150600080600060208801925060208701915060208501905060006020895103840190506000602089510384019050600080905060006020895186010390505b84811015156112f95760008090506000809050888610151561125a57855191505b878510151561126857845190505b8b156112a2578381830303835281818303118061128a57508082038482840303115b611295576000611298565b60015b60ff1693506112d2565b838183010183528181830110806112be57508082018482840101105b6112c95760006112cc565b60015b60ff1693505b80821415156112e057600199505b6020860395506020850394505050602081039050611239565b5060018114156113c857881561135757611324611315896114bf565b61131f6001610deb565b61075e565b7fffffffffffffffffffffffffffffffffffffffffffffffffffffffffffffffff809050975097505050505050506113d5565b606060208951016040519080825280601f01601f1916602001820160405280156113905781602001600182028038833980820191505090505b5090506020890193506040810192506113ab83858b516113dd565b6001602082015280600180905098509850505050505050506113d5565b8787975097505050505050505b935093915050565b5b60208110151561140357815183526020830192506020820191506020810390506113de565b505050565b606060006020835181151561141957fe5b0614151561142657600080fd5b600060019050600080600090505b8451811015611468576020810185015115925082156114585760208201915061145d565b611468565b602081019050611434565b5080840192508084510383525050919050565b606060206040519080825280601f01601f1916602001820160405280156114b15781602001600182028038833980820191505090505b509050816020820152919050565b60606000806020840191508351820190505b808210156114e95781511982526020820191506114d1565b8392505050919050565b828054600181600116156101000203166002900490600052602060002090601f016020900481019282601f1061153457805160ff1916838001178555611562565b82800160010185558215611562579182015b82811115611561578251825591602001919060010190611546565b5b50905061156f919061159c565b5090565b608060405190810160405280600081526020016000815260200160008152602001600081525090565b6115be91905b808211156115ba5760008160009055506001016115a2565b5090565b90565b60006115cd8235611dc7565b905092915050565b600082601f83011215156115e857600080fd5b81356115fb6115f682611d4b565b611d1e565b9150808252602083016020830185838301111561161757600080fd5b611622838284611de5565b50505092915050565b60006116378235611dd1565b905092915050565b600061164b8235611ddb565b905092915050565b60006020828403121561166557600080fd5b6000611673848285016115c1565b91505092915050565b6000806040838503121561168f57600080fd5b600061169d858286016115c1565b925050602083013567ffffffffffffffff8111156116ba57600080fd5b6116c6858286016115d5565b9150509250929050565b600080604083850312156116e357600080fd5b60006116f1858286016115c1565b92505060206117028582860161163f565b9150509250929050565b600080600080600060a0868803121561172457600080fd5b6000611732888289016115c1565b95505060206117438882890161163f565b94505060406117548882890161163f565b93505060606117658882890161163f565b92505060806117768882890161163f565b9150509295509295909350565b60006020828403121561179557600080fd5b600082013567ffffffffffffffff8111156117af57600080fd5b6117bb848285016115d5565b91505092915050565b600080604083850312156117d757600080fd5b600083013567ffffffffffffffff8111156117f157600080fd5b6117fd858286016115d5565b925050602083013567ffffffffffffffff81111561181a57600080fd5b611826858286016115d5565b9150509250929050565b60008060006060848603121561184557600080fd5b600084013567ffffffffffffffff81111561185f57600080fd5b61186b868287016115d5565b935050602084013567ffffffffffffffff81111561188857600080fd5b611894868287016115d5565b925050604084013567ffffffffffffffff8111156118b157600080fd5b6118bd868287016115d5565b9150509250925092565b600080604083850312156118da57600080fd5b600083013567ffffffffffffffff8111156118f457600080fd5b611900858286016115d5565b92505060206119118582860161162b565b9150509250929050565b6000806040838503121561192e57600080fd5b600083013567ffffffffffffffff81111561194857600080fd5b611954858286016115d5565b92505060206119658582860161163f565b9150509250929050565b60006020828403121561198157600080fd5b600061198f8482850161163f565b91505092915050565b600080600080608085870312156119ae57600080fd5b60006119bc8782880161163f565b94505060206119cd8782880161163f565b935050604085013567ffffffffffffffff8111156119ea57600080fd5b6119f6878288016115d5565b925050606085013567ffffffffffffffff811115611a1357600080fd5b611a1f878288016115d5565b91505092959194509250565b60008060008060808587031215611a4157600080fd5b6000611a4f8782880161163f565b9450506020611a608782880161163f565b9350506040611a718782880161163f565b9250506060611a828782880161163f565b91505092959194509250565b6000611a9982611d84565b808452602084019350611aab83611d77565b60005b82811015611add57611ac1868351611af8565b611aca82611d9a565b9150602086019550600181019050611aae565b50849250505092915050565b611af281611da7565b82525050565b611b0181611db3565b82525050565b6000611b1282611d8f565b808452611b26816020860160208601611df4565b611b2f81611e27565b602085010191505092915050565b6000600c82527f70726f6f66206c656e67746800000000000000000000000000000000000000006020830152604082019050919050565b608082016000820151611b8a6000850182611bc9565b506020820151611b9d6020850182611bc9565b506040820151611bb06040850182611bc9565b506060820151611bc36060850182611bc9565b50505050565b611bd281611dbd565b82525050565b60006020820190508181036000830152611bf28184611a8e565b905092915050565b6000602082019050611c0f6000830184611ae9565b92915050565b6000604082019050611c2a6000830185611af8565b8181036020830152611c3c8184611b07565b90509392505050565b600060a082019050611c5a6000830188611af8565b611c676020830187611bc9565b611c746040830186611bc9565b611c816060830185611bc9565b611c8e6080830184611bc9565b9695505050505050565b60006020820190508181036000830152611cb28184611b07565b905092915050565b60006040820190508181036000830152611cd381611b3d565b9050611ce26020830184611bc9565b92915050565b6000608082019050611cfd6000830184611b74565b92915050565b6000602082019050611d186000830184611bc9565b92915050565b6000604051905081810181811067ffffffffffffffff82111715611d4157600080fd5b8060405250919050565b600067ffffffffffffffff821115611d6257600080fd5b601f19601f8301169050602081019050919050565b6000602082019050919050565b600081519050919050565b600081519050919050565b6000602082019050919050565b60008115159050919050565b6000819050919050565b6000819050919050565b6000819050919050565b6000819050919050565b6000819050919050565b82818337600083830152505050565b60005b83811015611e12578082015181840152602081019050611df7565b83811115611e21576000848401525b50505050565b6000601f19601f830116905091905056fea265627a7a723058201a6f080778b896ff73158381b91ead30b7070c0bb284dd74a845706f91d98e106c6578706572696d656e74616cf50037",
  "source": "pragma solidity >=0.4.21 <0.6.0;\npragma experimental ABIEncoderV2; // solium-disable-line no-experimental \n//import \"chainlink/contracts/ChainlinkClient.sol\";\nimport \"./RangeProofValidator.sol\";\n\ncontract ZkSensors is RangeProofValidator{\n\n  struct Details {\n        uint timestamp_c1;\n        uint timestamp_c2;\n        uint orientation_c1;\n        uint orientation_c2;\n  }\n\n\n  mapping(bytes32 => Details[]) idToSensorReport;\n  mapping(bytes32 => bytes) idToZkProof;\n  bytes32[] sensorIds;\n\n  event SensorReport(bytes32 _id,uint _tc1, uint _tc2, uint _oc1, uint _oc2);\n  event ProofVerified(bytes32 _id, bytes _proof);\n  event FailedProof(bytes32 _id, bytes _proof);\n\n  function sensorReport(bytes32 _id, uint _tc1, uint _tc2, uint _oc1, uint _oc2) public {\n    idToSensorReport[_id].push(Details({\n      timestamp_c1: _tc1,\n      timestamp_c2: _tc2,\n      orientation_c1: _oc1,\n      orientation_c2: _oc2\n    }));\n    emit SensorReport(_id, _tc1,_tc2,_oc1,_oc2);\n  }\n\n\n  function verifyProof(bytes32 _id,bytes memory _proof) public returns(bool res){\n    uint _lower = 0;\n    uint _upper = 3;\n    Details[] storage _d = idToSensorReport[_id];\n    bytes memory _data;\n    bytes memory _comm;\n    for(uint i =0;i<_d.length;i++){\n      _data = generateCommitment(_d[i].timestamp_c1,_d[i].timestamp_c2,_d[i].orientation_c1,_d[i].orientation_c2);\n      _comm = abi.encodePacked(_comm,_data);\n    }\n    res = validate(_lower,_upper,_comm,_proof);\n    if(res){\n      idToZkProof[_id] = _proof;\n      emit ProofVerified(_id,_proof);\n    }\n    else{\n      emit FailedProof(_id,_proof);\n    }\n  }\n\n  function generateCommitment(uint _tc1,uint _tc2, uint _oc1, uint _oc2) public returns(bytes memory res){\n    res = abi.encodePacked(toBytes(_tc1),toBytes(_tc2),toBytes(_oc1),toBytes(_oc2));\n  }\n\n  function toBytes(uint256 x) internal returns (bytes memory b) {\n      b = new bytes(32);\n      assembly { mstore(add(b, 32), x) }\n  }\n\n  function getAllIds() public view returns(bytes32[] memory){\n    return sensorIds;\n  }\n\n    function getSensorIdsLength() public view returns(uint){\n    return sensorIds.length;\n  }\n\n  function getDetailsByIdAndIndex(bytes32 _id, uint _index) public view returns(Details memory){\n    return idToSensorReport[_id][_index];\n  }\n\n  function getNumberOfReportsById(bytes32 _id) public view returns(uint){\n    return idToSensorReport[_id].length;\n  }\n}\n",
  "sourcePath": "C:/Nick/ethnyc/zksupply/contracts/ZkSensors.sol",
  "compiler": {
    "name": "solc",
    "version": "0.5.0+commit.1d4f565a.Emscripten.clang"
  },
  "schemaVersion": "3.0.1",
  "updatedAt": "2019-05-18T18:53:57.022Z",
  "devdoc": {
    "methods": {}
  },
  "userdoc": {
    "methods": {}
  }
}